BL51 BANKED LINKER/LOCATER V6.22.4.0                                                    11/17/2023  15:27:36  PAGE 1


BL51 BANKED LINKER/LOCATER V6.22.4.0, INVOKED BY:
D:\KEIL_V5\C51\BIN\BL51.EXE .\Objects\exp3_1.obj TO .\Objects\Project PRINT (.\Listings\Project.m51) RAMSIZE (256)


INPUT MODULES INCLUDED:
  .\Objects\exp3_1.obj (EXP3_1)


LINK MAP OF MODULE:  .\Objects\Project (EXP3_1)


            TYPE    BASE      LENGTH    RELOCATION   SEGMENT NAME
            -----------------------------------------------------

            * * * * * * *   D A T A   M E M O R Y   * * * * * * *
            REG     0000H     0008H     ABSOLUTE     "REG BANK 0"

            * * * * * * *   C O D E   M E M O R Y   * * * * * * *
            CODE    0000H     017DH     ABSOLUTE     



SYMBOL TABLE OF MODULE:  .\Objects\Project (EXP3_1)

  VALUE           TYPE          NAME
  ----------------------------------

  -------         MODULE        EXP3_1
  C:0168H         SYMBOL        DELAY1MS
  C:0130H         SYMBOL        HC595SENDBYTE
  C:0134H         SYMBOL        HC595SENDLOOP
  B:00C0H.3       SYMBOL        HC595_RCK
  B:00C0H.2       SYMBOL        HC595_SCK
  B:00C0H.4       SYMBOL        HC595_SI
  C:0165H         SYMBOL        INCREASE
  C:0100H         SYMBOL        MAIN
  C:0115H         SYMBOL        MAINLOOP
  C:0172H         SYMBOL        NEXT
  D:00C0H         SYMBOL        P4
  D:00B4H         SYMBOL        P4M0
  D:00B3H         SYMBOL        P4M1
  D:00E8H         SYMBOL        P6
  D:00CCH         SYMBOL        P6M0
  D:00CBH         SYMBOL        P6M1
  C:011EH         SYMBOL        POSTABLE
  C:0167H         SYMBOL        RENEW
  C:0140H         SYMBOL        SCANDISP
  C:0126H         SYMBOL        SEGTABLE
  D:0081H         SYMBOL        SP
  C:0000H         LINE#         23
  C:0100H         LINE#         27
  C:0103H         LINE#         28
  C:0106H         LINE#         33
  C:0109H         LINE#         34
  C:010CH         LINE#         35
  C:010FH         LINE#         36
  C:0111H         LINE#         37
  C:0113H         LINE#         38
BL51 BANKED LINKER/LOCATER V6.22.4.0                                                  11/17/2023  15:27:36  PAGE 2


  C:0115H         LINE#         40
  C:0118H         LINE#         41
  C:011BH         LINE#         42
  C:0130H         LINE#         53
  C:0132H         LINE#         54
  C:0134H         LINE#         56
  C:0135H         LINE#         57
  C:0137H         LINE#         58
  C:0139H         LINE#         59
  C:013BH         LINE#         60
  C:013DH         LINE#         61
  C:013FH         LINE#         62
  C:0140H         LINE#         68
  C:0142H         LINE#         69
  C:0145H         LINE#         70
  C:0148H         LINE#         71
  C:0149H         LINE#         72
  C:014AH         LINE#         73
  C:014DH         LINE#         74
  C:014FH         LINE#         75
  C:0150H         LINE#         76
  C:0152H         LINE#         77
  C:0153H         LINE#         78
  C:0155H         LINE#         79
  C:0158H         LINE#         80
  C:0159H         LINE#         81
  C:015AH         LINE#         82
  C:015CH         LINE#         83
  C:015FH         LINE#         84
  C:0161H         LINE#         85
  C:0163H         LINE#         86
  C:0165H         LINE#         88
  C:0166H         LINE#         89
  C:0167H         LINE#         91
  C:0168H         LINE#         97
  C:016AH         LINE#         98
  C:016CH         LINE#         99
  C:016FH         LINE#         100
  C:0172H         LINE#         102
  C:0175H         LINE#         103
  C:0178H         LINE#         104
  C:017AH         LINE#         105
  C:017CH         LINE#         106
  -------         ENDMOD        EXP3_1

Program Size: data=8.0 xdata=0 code=381
LINK/LOCATE RUN COMPLETE.  0 WARNING(S),  0 ERROR(S)
