BL51 BANKED LINKER/LOCATER V6.22                                                        01/23/2023  10:57:19  PAGE 1


BL51 BANKED LINKER/LOCATER V6.22, INVOKED BY:
D:\KEIL_V5\C51\BIN\BL51.EXE .\Objects\main.obj, .\Objects\Delay.obj, .\Objects\LCD1602.obj, .\Objects\Int0.obj, .\Object
>> s\Timer0.obj, .\Objects\IR.obj TO .\Objects\Project PRINT (.\Listings\Project.m51) RAMSIZE (256) DISABLEWARNING (16)


MEMORY MODEL: SMALL


INPUT MODULES INCLUDED:
  .\Objects\main.obj (MAIN)
  .\Objects\Delay.obj (DELAY)
  .\Objects\LCD1602.obj (LCD1602)
  .\Objects\Int0.obj (INT0)
  .\Objects\Timer0.obj (TIMER0)
  .\Objects\IR.obj (IR)
  D:\KEIL_V5\C51\LIB\C51S.LIB (?C_STARTUP)
  D:\KEIL_V5\C51\LIB\C51S.LIB (?C?CLDOPTR)
  D:\KEIL_V5\C51\LIB\C51S.LIB (?C?IMUL)
  D:\KEIL_V5\C51\LIB\C51S.LIB (?C?UIDIV)


LINK MAP OF MODULE:  .\Objects\Project (MAIN)


            TYPE    BASE      LENGTH    RELOCATION   SEGMENT NAME
            -----------------------------------------------------

            * * * * * * *   D A T A   M E M O R Y   * * * * * * *
            REG     0000H     0008H     ABSOLUTE     "REG BANK 0"
            DATA    0008H     000CH     UNIT         ?DT?IR
            DATA    0014H     0009H     UNIT         _DATA_GROUP_
            DATA    001DH     0007H     UNIT         ?DT?_LCD_SHOWSIGNEDNUM?LCD1602
            DATA    0024H     0005H     UNIT         ?DT?_LCD_SHOWBINNUM?LCD1602
            DATA    0029H     0003H     UNIT         ?DT?MAIN
            IDATA   002CH     0001H     UNIT         ?STACK

            * * * * * * *   C O D E   M E M O R Y   * * * * * * *
            CODE    0000H     0003H     ABSOLUTE     
            CODE    0003H     0003H     ABSOLUTE     
            CODE    0006H     0149H     UNIT         ?PR?INT0_ROUTINE?IR
            CODE    014FH     0094H     UNIT         ?C?LIB_CODE
            CODE    01E3H     0073H     UNIT         ?PR?MAIN?MAIN
            CODE    0256H     003AH     UNIT         ?PR?_LCD_SHOWSIGNEDNUM?LCD1602
            CODE    0290H     0039H     UNIT         ?PR?_LCD_SHOWHEXNUM?LCD1602
            CODE    02C9H     0038H     UNIT         ?PR?_LCD_SHOWBINNUM?LCD1602
            CODE    0301H     0033H     UNIT         ?PR?_LCD_POW?LCD1602
            CODE    0334H     0023H     UNIT         ?PR?_LCD_SHOWSTRING?LCD1602
            CODE    0357H     001EH     UNIT         ?CO?MAIN
            CODE    0375H     001EH     UNIT         ?PR?_LCD_WRITEDATA?LCD1602
            CODE    0393H     001DH     UNIT         ?PR?_LCD_SHOWNUM?LCD1602
            CODE    03B0H     0016H     UNIT         ?PR?_LCD_SETCURSOR?LCD1602
            CODE    03C6H     0015H     UNIT         ?PR?_DELAY?DELAY
            CODE    03DBH     0014H     UNIT         ?PR?LCD_INIT?LCD1602
            CODE    03EFH     0010H     UNIT         ?PR?TIMER0_INIT?TIMER0
            CODE    03FFH     000FH     UNIT         ?PR?LCD_DELAY?LCD1602
            CODE    040EH     000DH     UNIT         ?PR?IR_GET_DATAFLAG?IR
            CODE    041BH     000DH     UNIT         ?PR?IR_GET_REPEATFLAG?IR
            CODE    0428H     000CH     UNIT         ?C_C51STARTUP
BL51 BANKED LINKER/LOCATER V6.22                                                      01/23/2023  10:57:19  PAGE 2


            CODE    0434H     000BH     UNIT         ?PR?INT0_INIT?INT0
            CODE    043FH     000BH     UNIT         ?PR?_TIMER0_SET_COUNTER?TIMER0
            CODE    044AH     000AH     UNIT         ?PR?_LCD_WRITECOMMAND?LCD1602
            CODE    0454H     000AH     UNIT         ?PR?_LCD_SHOWCHAR?LCD1602
            CODE    045EH     0009H     UNIT         ?PR?TIMER0_GET_COUNTER?TIMER0
            CODE    0467H     0006H     UNIT         ?PR?_TIMER0_RUN?TIMER0
            CODE    046DH     0006H     UNIT         ?PR?IR_INIT?IR
            CODE    0473H     0003H     UNIT         ?PR?IR_GET_ADDRESS?IR
            CODE    0476H     0003H     UNIT         ?PR?IR_GET_COMMAND?IR



OVERLAY MAP OF MODULE:   .\Objects\Project (MAIN)


SEGMENT                                  DATA_GROUP 
  +--> CALLED SEGMENT                  START    LENGTH
------------------------------------------------------
?PR?INT0_ROUTINE?IR                    -----    -----
  +--> ?PR?_TIMER0_SET_COUNTER?TIMER0
  +--> ?PR?_TIMER0_RUN?TIMER0
  +--> ?PR?TIMER0_GET_COUNTER?TIMER0

*** NEW ROOT ***************************************************

?C_C51STARTUP                          -----    -----
  +--> ?PR?MAIN?MAIN

?PR?MAIN?MAIN                          -----    -----
  +--> ?PR?LCD_INIT?LCD1602
  +--> ?CO?MAIN
  +--> ?PR?_LCD_SHOWSTRING?LCD1602
  +--> ?PR?IR_INIT?IR
  +--> ?PR?IR_GET_DATAFLAG?IR
  +--> ?PR?IR_GET_REPEATFLAG?IR
  +--> ?PR?IR_GET_ADDRESS?IR
  +--> ?PR?IR_GET_COMMAND?IR
  +--> ?PR?_LCD_SHOWHEXNUM?LCD1602
  +--> ?PR?_LCD_SHOWNUM?LCD1602

?PR?LCD_INIT?LCD1602                   -----    -----
  +--> ?PR?_LCD_WRITECOMMAND?LCD1602

?PR?_LCD_WRITECOMMAND?LCD1602          -----    -----
  +--> ?PR?LCD_DELAY?LCD1602

?PR?_LCD_SHOWSTRING?LCD1602            0014H    0003H
  +--> ?PR?_LCD_SETCURSOR?LCD1602
  +--> ?PR?_LCD_WRITEDATA?LCD1602

?PR?_LCD_SETCURSOR?LCD1602             -----    -----
  +--> ?PR?_LCD_WRITECOMMAND?LCD1602

?PR?_LCD_WRITEDATA?LCD1602             -----    -----
  +--> ?PR?LCD_DELAY?LCD1602

?PR?IR_INIT?IR                         -----    -----
BL51 BANKED LINKER/LOCATER V6.22                                                      01/23/2023  10:57:19  PAGE 3


  +--> ?PR?TIMER0_INIT?TIMER0
  +--> ?PR?INT0_INIT?INT0

?PR?_LCD_SHOWHEXNUM?LCD1602            0014H    0005H
  +--> ?PR?_LCD_SETCURSOR?LCD1602
  +--> ?PR?_LCD_POW?LCD1602
  +--> ?PR?_LCD_WRITEDATA?LCD1602

?PR?_LCD_POW?LCD1602                   0019H    0004H

?PR?_LCD_SHOWNUM?LCD1602               0014H    0005H
  +--> ?PR?_LCD_SETCURSOR?LCD1602
  +--> ?PR?_LCD_POW?LCD1602
  +--> ?PR?_LCD_WRITEDATA?LCD1602



SYMBOL TABLE OF MODULE:  .\Objects\Project (MAIN)

  VALUE           TYPE          NAME
  ----------------------------------

  -------         MODULE        MAIN
  C:0000H         SYMBOL        _ICE_DUMMY_
  C:01E3H         PUBLIC        main
  D:0029H         PUBLIC        num
  D:002AH         PUBLIC        command
  D:002BH         PUBLIC        address
  -------         PROC          MAIN
  C:01E3H         LINE#         10
  C:01E3H         LINE#         11
  C:01E3H         LINE#         12
  C:01E6H         LINE#         13
  C:01F3H         LINE#         14
  C:0200H         LINE#         16
  C:0203H         LINE#         18
  C:0203H         LINE#         19
  C:0203H         LINE#         20
  C:020FH         LINE#         21
  C:020FH         LINE#         22
  C:0214H         LINE#         23
  C:0219H         LINE#         24
  C:0228H         LINE#         25
  C:0237H         LINE#         26
  C:023CH         LINE#         27
  C:023CH         LINE#         28
  C:023EH         LINE#         29
  C:023EH         LINE#         30
  C:0243H         LINE#         31
  C:0243H         LINE#         32
  C:0245H         LINE#         33
  C:0245H         LINE#         34
  C:0254H         LINE#         35
  C:0254H         LINE#         36
  -------         ENDPROC       MAIN
  -------         ENDMOD        MAIN

BL51 BANKED LINKER/LOCATER V6.22                                                      01/23/2023  10:57:19  PAGE 4


  -------         MODULE        DELAY
  C:0000H         SYMBOL        _ICE_DUMMY_
  C:03C6H         PUBLIC        _Delay
  -------         PROC          _DELAY
  D:0006H         SYMBOL        xms
  -------         DO            
  D:0005H         SYMBOL        i
  D:0004H         SYMBOL        j
  -------         ENDDO         
  C:03C6H         LINE#         1
  C:03C6H         LINE#         2
  C:03C6H         LINE#         4
  C:03D0H         LINE#         5
  C:03D0H         LINE#         6
  C:03D2H         LINE#         7
  C:03D4H         LINE#         9
  C:03D4H         LINE#         10
  C:03D6H         LINE#         11
  C:03D8H         LINE#         12
  C:03DAH         LINE#         13
  -------         ENDPROC       _DELAY
  -------         ENDMOD        DELAY

  -------         MODULE        LCD1602
  C:0000H         SYMBOL        _ICE_DUMMY_
  D:0080H         PUBLIC        P0
  D:00A0H         PUBLIC        P2
  C:044AH         PUBLIC        _LCD_WriteCommand
  C:0393H         PUBLIC        _LCD_ShowNum
  C:02C9H         PUBLIC        _LCD_ShowBinNum
  C:0405H         PUBLIC        LCD_Delay
  C:0290H         PUBLIC        _LCD_ShowHexNum
  C:0389H         PUBLIC        _LCD_WriteData
  B:00A0H.7       PUBLIC        LCD_EN
  C:03DBH         PUBLIC        LCD_Init
  C:0334H         PUBLIC        _LCD_ShowString
  C:0454H         PUBLIC        _LCD_ShowChar
  B:00A0H.6       PUBLIC        LCD_RS
  B:00A0H.5       PUBLIC        LCD_RW
  C:03B0H         PUBLIC        _LCD_SetCursor
  C:0256H         PUBLIC        _LCD_ShowSignedNum
  C:030DH         PUBLIC        _LCD_Pow
  -------         PROC          L?0048
  -------         ENDPROC       L?0048
  -------         PROC          LCD_DELAY
  -------         DO            
  D:0007H         SYMBOL        i
  D:0006H         SYMBOL        j
  -------         ENDDO         
  C:0405H         LINE#         15
  C:0405H         LINE#         17
  C:0407H         LINE#         18
  C:0409H         LINE#         19
  C:0409H         LINE#         20
  C:040BH         LINE#         21
  C:040DH         LINE#         22
  -------         ENDPROC       LCD_DELAY
BL51 BANKED LINKER/LOCATER V6.22                                                      01/23/2023  10:57:19  PAGE 5


  -------         PROC          _LCD_WRITECOMMAND
  D:0007H         SYMBOL        Command
  C:044AH         LINE#         29
  C:044AH         LINE#         30
  C:044CH         LINE#         31
  C:044CH         LINE#         32
  C:044CH         LINE#         33
  C:044CH         LINE#         34
  C:044FH         LINE#         35
  C:0451H         LINE#         36
  -------         ENDPROC       _LCD_WRITECOMMAND
  -------         PROC          L?0047
  -------         ENDPROC       L?0047
  -------         PROC          _LCD_WRITEDATA
  D:0007H         SYMBOL        Data
  C:0389H         LINE#         44
  C:0389H         LINE#         45
  C:038BH         LINE#         46
  C:038BH         LINE#         47
  C:038BH         LINE#         48
  C:038BH         LINE#         49
  C:038EH         LINE#         50
  C:0390H         LINE#         51
  -------         ENDPROC       _LCD_WRITEDATA
  -------         PROC          _LCD_SETCURSOR
  D:0006H         SYMBOL        Line
  D:0005H         SYMBOL        Column
  C:03B0H         LINE#         60
  C:03B2H         LINE#         61
  C:03B5H         LINE#         62
  C:03B7H         LINE#         63
  C:03BCH         LINE#         64
  C:03C5H         LINE#         65
  C:03C5H         LINE#         66
  -------         ENDPROC       _LCD_SETCURSOR
  -------         PROC          LCD_INIT
  C:03DBH         LINE#         73
  C:03DBH         LINE#         74
  C:03E0H         LINE#         75
  C:03E5H         LINE#         76
  C:03EAH         LINE#         77
  -------         ENDPROC       LCD_INIT
  -------         PROC          _LCD_SHOWCHAR
  D:0006H         SYMBOL        Line
  D:0005H         SYMBOL        Column
  D:0004H         SYMBOL        Char
  C:0454H         LINE#         87
  C:0456H         LINE#         88
  C:0459H         LINE#         89
  -------         ENDPROC       _LCD_SHOWCHAR
  -------         PROC          _LCD_SHOWSTRING
  D:0007H         SYMBOL        Line
  D:0005H         SYMBOL        Column
  D:0014H         SYMBOL        String
  -------         DO            
  D:0005H         SYMBOL        i
  -------         ENDDO         
BL51 BANKED LINKER/LOCATER V6.22                                                      01/23/2023  10:57:19  PAGE 6


  C:0334H         LINE#         99
  C:033AH         LINE#         101
  C:033DH         LINE#         102
  C:0350H         LINE#         103
  C:0353H         LINE#         104
  C:0356H         LINE#         105
  -------         ENDPROC       _LCD_SHOWSTRING
  C:0303H         SYMBOL        L?0046
  -------         PROC          L?0045
  -------         ENDPROC       L?0045
  C:0303H         SYMBOL        L?0046
  -------         PROC          _LCD_POW
  D:0019H         SYMBOL        X
  D:001BH         SYMBOL        Y
  -------         DO            
  D:0003H         SYMBOL        i
  D:0006H         SYMBOL        Result
  -------         ENDDO         
  C:030DH         LINE#         110
  C:0315H         LINE#         112
  C:0319H         LINE#         113
  C:0329H         LINE#         114
  C:0330H         LINE#         115
  C:0333H         LINE#         116
  C:0333H         LINE#         117
  -------         ENDPROC       _LCD_POW
  -------         PROC          _LCD_SHOWNUM
  D:0007H         SYMBOL        Line
  D:0005H         SYMBOL        Column
  D:0016H         SYMBOL        Number
  D:0018H         SYMBOL        Length
  -------         DO            
  D:0002H         SYMBOL        i
  -------         ENDDO         
  C:0393H         LINE#         127
  C:0397H         LINE#         129
  C:039AH         LINE#         130
  C:03A2H         LINE#         131
  C:03ACH         LINE#         132
  C:03AFH         LINE#         133
  -------         ENDPROC       _LCD_SHOWNUM
  -------         PROC          _LCD_SHOWSIGNEDNUM
  D:0007H         SYMBOL        Line
  D:0005H         SYMBOL        Column
  D:0002H         SYMBOL        Number
  D:0021H         SYMBOL        Length
  -------         DO            
  D:0002H         SYMBOL        i
  D:0022H         SYMBOL        Number1
  -------         ENDDO         
  C:0256H         LINE#         143
  C:0256H         LINE#         146
  C:0259H         LINE#         147
  C:0261H         LINE#         148
  C:0266H         LINE#         149
  C:026AH         LINE#         150
  C:026CH         LINE#         151
BL51 BANKED LINKER/LOCATER V6.22                                                      01/23/2023  10:57:19  PAGE 7


  C:0271H         LINE#         152
  C:027AH         LINE#         153
  C:027AH         LINE#         154
  C:0282H         LINE#         155
  C:028CH         LINE#         156
  C:028FH         LINE#         157
  -------         ENDPROC       _LCD_SHOWSIGNEDNUM
  -------         PROC          _LCD_SHOWHEXNUM
  D:0007H         SYMBOL        Line
  D:0005H         SYMBOL        Column
  D:0016H         SYMBOL        Number
  D:0018H         SYMBOL        Length
  -------         DO            
  D:0002H         SYMBOL        i
  D:0006H         SYMBOL        SingleNumber
  -------         ENDDO         
  C:0290H         LINE#         167
  C:0294H         LINE#         169
  C:0297H         LINE#         170
  C:029FH         LINE#         171
  C:02B5H         LINE#         172
  C:02BBH         LINE#         173
  C:02BDH         LINE#         174
  C:02BFH         LINE#         175
  C:02C5H         LINE#         176
  C:02C5H         LINE#         177
  C:02C8H         LINE#         178
  -------         ENDPROC       _LCD_SHOWHEXNUM
  -------         PROC          _LCD_SHOWBINNUM
  D:0007H         SYMBOL        Line
  D:0005H         SYMBOL        Column
  D:0026H         SYMBOL        Number
  D:0028H         SYMBOL        Length
  -------         DO            
  D:0002H         SYMBOL        i
  -------         ENDDO         
  C:02C9H         LINE#         188
  C:02CDH         LINE#         190
  C:02D0H         LINE#         191
  C:02D8H         LINE#         192
  C:02FDH         LINE#         193
  C:0300H         LINE#         194
  -------         ENDPROC       _LCD_SHOWBINNUM
  -------         ENDMOD        LCD1602

  -------         MODULE        INT0
  C:0000H         SYMBOL        _ICE_DUMMY_
  B:00A8H.7       PUBLIC        EA
  B:0088H.1       PUBLIC        IE0
  B:00A8H.0       PUBLIC        EX0
  B:0088H.0       PUBLIC        IT0
  B:00B8H.0       PUBLIC        PX0
  C:0434H         PUBLIC        Int0_init
  -------         PROC          INT0_INIT
  C:0434H         LINE#         8
  C:0434H         LINE#         9
  C:0434H         LINE#         10
BL51 BANKED LINKER/LOCATER V6.22                                                      01/23/2023  10:57:19  PAGE 8


  C:0436H         LINE#         11
  C:0438H         LINE#         12
  C:043AH         LINE#         13
  C:043CH         LINE#         14
  C:043EH         LINE#         15
  -------         ENDPROC       INT0_INIT
  -------         ENDMOD        INT0

  -------         MODULE        TIMER0
  C:0000H         SYMBOL        _ICE_DUMMY_
  C:03EFH         PUBLIC        Timer0_Init
  D:0089H         PUBLIC        TMOD
  C:045EH         PUBLIC        Timer0_get_counter
  C:043FH         PUBLIC        _Timer0_set_counter
  B:0088H.5       PUBLIC        TF0
  D:008CH         PUBLIC        TH0
  D:008AH         PUBLIC        TL0
  B:0088H.4       PUBLIC        TR0
  C:0467H         PUBLIC        _Timer0_run
  -------         PROC          TIMER0_INIT
  C:03EFH         LINE#         8
  C:03EFH         LINE#         9
  C:03EFH         LINE#         10
  C:03F2H         LINE#         11
  C:03F5H         LINE#         12
  C:03F8H         LINE#         13
  C:03FAH         LINE#         14
  C:03FCH         LINE#         15
  C:03FEH         LINE#         16
  -------         ENDPROC       TIMER0_INIT
  -------         PROC          _TIMER0_SET_COUNTER
  D:0004H         SYMBOL        value
  C:043FH         LINE#         23
  C:0443H         LINE#         24
  C:0443H         LINE#         25
  C:0445H         LINE#         26
  C:0449H         LINE#         27
  -------         ENDPROC       _TIMER0_SET_COUNTER
  -------         PROC          TIMER0_GET_COUNTER
  C:045EH         LINE#         34
  C:045EH         LINE#         35
  C:045EH         LINE#         36
  C:0466H         LINE#         37
  -------         ENDPROC       TIMER0_GET_COUNTER
  -------         PROC          _TIMER0_RUN
  D:0007H         SYMBOL        flag
  C:0467H         LINE#         44
  C:0467H         LINE#         45
  C:0467H         LINE#         46
  C:046CH         LINE#         47
  -------         ENDPROC       _TIMER0_RUN
  -------         ENDMOD        TIMER0

  -------         MODULE        IR
  C:0000H         SYMBOL        _ICE_DUMMY_
  C:0476H         PUBLIC        IR_get_command
  C:0473H         PUBLIC        IR_get_address
BL51 BANKED LINKER/LOCATER V6.22                                                      01/23/2023  10:57:19  PAGE 9


  D:0008H         PUBLIC        IR_dataFlag
  D:0009H         PUBLIC        IR_data
  D:000DH         PUBLIC        IR_state
  C:0006H         PUBLIC        Int0_Routine
  D:000EH         PUBLIC        IR_time
  C:046DH         PUBLIC        IR_init
  C:041BH         PUBLIC        IR_get_repeatflag
  C:040EH         PUBLIC        IR_get_dataflag
  D:0010H         PUBLIC        IR_command
  D:0011H         PUBLIC        IR_address
  D:0012H         PUBLIC        IR_pData
  D:0013H         PUBLIC        IR_repeatFlag
  -------         PROC          IR_INIT
  C:046DH         LINE#         13
  C:046DH         LINE#         14
  C:046DH         LINE#         15
  C:0470H         LINE#         16
  -------         ENDPROC       IR_INIT
  -------         PROC          IR_GET_DATAFLAG
  C:040EH         LINE#         24
  C:040EH         LINE#         25
  C:040EH         LINE#         26
  C:0412H         LINE#         27
  C:0412H         LINE#         28
  C:0415H         LINE#         29
  C:0418H         LINE#         30
  C:0418H         LINE#         32
  C:041AH         LINE#         33
  -------         ENDPROC       IR_GET_DATAFLAG
  -------         PROC          IR_GET_REPEATFLAG
  C:041BH         LINE#         40
  C:041BH         LINE#         41
  C:041BH         LINE#         42
  C:041FH         LINE#         43
  C:041FH         LINE#         44
  C:0422H         LINE#         45
  C:0425H         LINE#         46
  C:0425H         LINE#         48
  C:0427H         LINE#         49
  -------         ENDPROC       IR_GET_REPEATFLAG
  -------         PROC          IR_GET_ADDRESS
  C:0473H         LINE#         56
  C:0473H         LINE#         57
  C:0473H         LINE#         58
  C:0475H         LINE#         59
  -------         ENDPROC       IR_GET_ADDRESS
  -------         PROC          IR_GET_COMMAND
  C:0476H         LINE#         66
  C:0476H         LINE#         67
  C:0476H         LINE#         68
  C:0478H         LINE#         69
  -------         ENDPROC       IR_GET_COMMAND
  -------         PROC          INT0_ROUTINE
  C:0006H         LINE#         72
  C:0023H         LINE#         74
  C:0032H         LINE#         75
  C:0032H         LINE#         76
BL51 BANKED LINKER/LOCATER V6.22                                                      01/23/2023  10:57:19  PAGE 10


  C:0032H         LINE#         77
  C:0032H         LINE#         79
  C:0038H         LINE#         80
  C:003DH         LINE#         81
  C:003DH         LINE#         82
  C:003FH         LINE#         83
  C:003FH         LINE#         84
  C:003FH         LINE#         85
  C:003FH         LINE#         87
  C:0046H         LINE#         88
  C:004CH         LINE#         91
  C:0061H         LINE#         92
  C:0061H         LINE#         94
  C:0064H         LINE#         95
  C:0067H         LINE#         98
  C:007CH         LINE#         99
  C:007CH         LINE#         100
  C:007FH         LINE#         101
  C:007FH         LINE#         102
  C:007FH         LINE#         103
  C:0082H         LINE#         106
  C:0082H         LINE#         107
  C:0085H         LINE#         108
  C:0085H         LINE#         109
  C:0088H         LINE#         110
  C:0088H         LINE#         111
  C:0088H         LINE#         112
  C:0088H         LINE#         113
  C:008FH         LINE#         114
  C:0095H         LINE#         116
  C:00AAH         LINE#         117
  C:00AAH         LINE#         120
  C:00CAH         LINE#         121
  C:00CAH         LINE#         122
  C:00CCH         LINE#         124
  C:00E1H         LINE#         125
  C:00E1H         LINE#         126
  C:0103H         LINE#         127
  C:0105H         LINE#         128
  C:0107H         LINE#         131
  C:0107H         LINE#         132
  C:010AH         LINE#         133
  C:010DH         LINE#         134
  C:010DH         LINE#         137
  C:0114H         LINE#         138
  C:0114H         LINE#         139
  C:0117H         LINE#         141
  C:0123H         LINE#         142
  C:0123H         LINE#         143
  C:0126H         LINE#         144
  C:0129H         LINE#         145
  C:012CH         LINE#         146
  C:012CH         LINE#         147
  C:0131H         LINE#         148
  C:0134H         LINE#         149
  C:0134H         LINE#         150
  C:0134H         LINE#         151
BL51 BANKED LINKER/LOCATER V6.22                                                      01/23/2023  10:57:19  PAGE 11


  C:0134H         LINE#         152
  C:0134H         LINE#         153
  -------         ENDPROC       INT0_ROUTINE
  -------         ENDMOD        IR

  -------         MODULE        ?C?CLDOPTR
  C:014FH         PUBLIC        ?C?CLDOPTR
  -------         ENDMOD        ?C?CLDOPTR

  -------         MODULE        ?C?IMUL
  C:017CH         PUBLIC        ?C?IMUL
  -------         ENDMOD        ?C?IMUL

  -------         MODULE        ?C?UIDIV
  C:018EH         PUBLIC        ?C?UIDIV
  -------         ENDMOD        ?C?UIDIV

Program Size: data=45.0 xdata=0 code=1145
LINK/LOCATE RUN COMPLETE.  0 WARNING(S),  0 ERROR(S)
