BL51 BANKED LINKER/LOCATER V6.22.4.0                                                    11/24/2023  11:02:48  PAGE 1


BL51 BANKED LINKER/LOCATER V6.22.4.0, INVOKED BY:
D:\KEIL_V5\C51\BIN\BL51.EXE .\Objects\exp4_3.obj TO .\Objects\Project PRINT (.\Listings\Project.m51) RAMSIZE (256)


INPUT MODULES INCLUDED:
  .\Objects\exp4_3.obj (EXP4_3)


LINK MAP OF MODULE:  .\Objects\Project (EXP4_3)


            TYPE    BASE      LENGTH    RELOCATION   SEGMENT NAME
            -----------------------------------------------------

            * * * * * * *   D A T A   M E M O R Y   * * * * * * *
            REG     0000H     0008H     ABSOLUTE     "REG BANK 0"

            * * * * * * *   C O D E   M E M O R Y   * * * * * * *
            CODE    0000H     0230H     ABSOLUTE     



SYMBOL TABLE OF MODULE:  .\Objects\Project (EXP4_3)

  VALUE           TYPE          NAME
  ----------------------------------

  -------         MODULE        EXP4_3
  D:00F0H         SYMBOL        B
  C:0118H         SYMBOL        CLEARLOOP
  C:0210H         SYMBOL        DELAY20MS
  C:01FAH         SYMBOL        DELAY2MS
  C:0220H         SYMBOL        DELAYLOOP
  N:0010H         SYMBOL        DISP_BLACK
  D:0038H         SYMBOL        DISP_INDEX
  D:0083H         SYMBOL        DPH
  D:0082H         SYMBOL        DPL
  B:00A8H.7       SYMBOL        EA
  B:00A8H.0       SYMBOL        EX0
  B:00A8H.2       SYMBOL        EX1
  C:014DH         SYMBOL        HC595SENDBYTE
  C:0151H         SYMBOL        HC595SENDLOOP
  B:00C0H.3       SYMBOL        HC595_RCK
  B:00C0H.2       SYMBOL        HC595_SCK
  B:00C0H.4       SYMBOL        HC595_SI
  B:0088H.1       SYMBOL        IE0
  B:0088H.3       SYMBOL        IE1
  C:01CAH         SYMBOL        INT0LOOP
  C:01CCH         SYMBOL        INT0SCANDISP
  C:01B8H         SYMBOL        INT0SUB
  C:01EBH         SYMBOL        INT1LOOP
  C:01EDH         SYMBOL        INT1SCANDISP
  C:01D9H         SYMBOL        INT1SUB
  D:0039H         SYMBOL        INT_CNT
  B:0088H.0       SYMBOL        IT0
  B:0088H.2       SYMBOL        IT1
  C:0100H         SYMBOL        MAIN
  C:012BH         SYMBOL        MAINLOOP
BL51 BANKED LINKER/LOCATER V6.22.4.0                                                  11/24/2023  11:02:48  PAGE 2


  C:0205H         SYMBOL        NEXT
  D:0030H         SYMBOL        NIXIE8
  D:00B0H         SYMBOL        P3
  D:00C0H         SYMBOL        P4
  D:00B4H         SYMBOL        P4M0
  D:00B3H         SYMBOL        P4M1
  D:00E8H         SYMBOL        P6
  D:00CCH         SYMBOL        P6M0
  D:00CBH         SYMBOL        P6M1
  C:0134H         SYMBOL        POSTABLE
  C:01B1H         SYMBOL        QUITSCANDISP
  C:015DH         SYMBOL        SCANDISP
  C:013CH         SYMBOL        SEGTABLE
  D:0081H         SYMBOL        SP
  C:0000H         LINE#         27
  C:0003H         LINE#         29
  C:0013H         LINE#         31
  C:0100H         LINE#         35
  C:0103H         LINE#         36
  C:0106H         LINE#         38
  C:0109H         LINE#         39
  C:010CH         LINE#         40
  C:010FH         LINE#         41
  C:0112H         LINE#         42
  C:0114H         LINE#         43
  C:0116H         LINE#         44
  C:0118H         LINE#         46
  C:011AH         LINE#         47
  C:011BH         LINE#         48
  C:011DH         LINE#         49
  C:011FH         LINE#         50
  C:0121H         LINE#         51
  C:0123H         LINE#         52
  C:0125H         LINE#         54
  C:0127H         LINE#         55
  C:0129H         LINE#         56
  C:012BH         LINE#         58
  C:012EH         LINE#         59
  C:0131H         LINE#         60
  C:014DH         LINE#         73
  C:014FH         LINE#         74
  C:0151H         LINE#         76
  C:0152H         LINE#         77
  C:0154H         LINE#         78
  C:0156H         LINE#         79
  C:0158H         LINE#         80
  C:015AH         LINE#         81
  C:015CH         LINE#         82
  C:015DH         LINE#         88
  C:015FH         LINE#         89
  C:0161H         LINE#         90
  C:0163H         LINE#         91
  C:0165H         LINE#         92
  C:0168H         LINE#         93
  C:016BH         LINE#         95
  C:016DH         LINE#         96
  C:016EH         LINE#         97
BL51 BANKED LINKER/LOCATER V6.22.4.0                                                  11/24/2023  11:02:48  PAGE 3


  C:0171H         LINE#         98
  C:0173H         LINE#         99
  C:0174H         LINE#         100
  C:0176H         LINE#         101
  C:0177H         LINE#         102
  C:0179H         LINE#         103
  C:017CH         LINE#         105
  C:017EH         LINE#         106
  C:0180H         LINE#         107
  C:0181H         LINE#         108
  C:0182H         LINE#         109
  C:0183H         LINE#         110
  C:0185H         LINE#         111
  C:0187H         LINE#         112
  C:0189H         LINE#         113
  C:018BH         LINE#         114
  C:018DH         LINE#         117
  C:0190H         LINE#         119
  C:0192H         LINE#         120
  C:0195H         LINE#         121
  C:0196H         LINE#         122
  C:0198H         LINE#         123
  C:019AH         LINE#         124
  C:019CH         LINE#         125
  C:019DH         LINE#         126
  C:019FH         LINE#         127
  C:01A2H         LINE#         128
  C:01A5H         LINE#         129
  C:01A8H         LINE#         130
  C:01ABH         LINE#         131
  C:01AEH         LINE#         132
  C:01B1H         LINE#         136
  C:01B3H         LINE#         137
  C:01B5H         LINE#         138
  C:01B7H         LINE#         139
  C:01B8H         LINE#         146
  C:01BBH         LINE#         147
  C:01BEH         LINE#         148
  C:01C1H         LINE#         149
  C:01C4H         LINE#         150
  C:01C6H         LINE#         151
  C:01C8H         LINE#         152
  C:01CAH         LINE#         154
  C:01CCH         LINE#         156
  C:01CFH         LINE#         157
  C:01D2H         LINE#         158
  C:01D4H         LINE#         159
  C:01D6H         LINE#         160
  C:01D8H         LINE#         161
  C:01D9H         LINE#         167
  C:01DCH         LINE#         168
  C:01DFH         LINE#         169
  C:01E2H         LINE#         170
  C:01E5H         LINE#         171
  C:01E7H         LINE#         172
  C:01E9H         LINE#         173
  C:01EBH         LINE#         175
BL51 BANKED LINKER/LOCATER V6.22.4.0                                                  11/24/2023  11:02:48  PAGE 4


  C:01EDH         LINE#         177
  C:01F0H         LINE#         178
  C:01F3H         LINE#         179
  C:01F5H         LINE#         180
  C:01F7H         LINE#         181
  C:01F9H         LINE#         182
  C:01FAH         LINE#         188
  C:01FBH         LINE#         189
  C:01FDH         LINE#         190
  C:01FFH         LINE#         191
  C:0202H         LINE#         192
  C:0205H         LINE#         194
  C:0208H         LINE#         195
  C:020BH         LINE#         196
  C:020DH         LINE#         197
  C:020FH         LINE#         198
  C:0210H         LINE#         204
  C:0211H         LINE#         205
  C:0213H         LINE#         206
  C:0215H         LINE#         207
  C:0217H         LINE#         208
  C:021AH         LINE#         209
  C:021DH         LINE#         210
  C:0220H         LINE#         212
  C:0223H         LINE#         213
  C:0226H         LINE#         214
  C:0229H         LINE#         215
  C:022BH         LINE#         216
  C:022DH         LINE#         217
  C:022FH         LINE#         218
  -------         ENDMOD        EXP4_3

Program Size: data=8.0 xdata=0 code=560
LINK/LOCATE RUN COMPLETE.  0 WARNING(S),  0 ERROR(S)
