BL51 BANKED LINKER/LOCATER V6.22                                                        06/07/2023  21:15:50  PAGE 1


BL51 BANKED LINKER/LOCATER V6.22, INVOKED BY:
D:\KEIL_V5\C51\BIN\BL51.EXE .\Objects\main.obj, .\Objects\Delay.obj, .\Objects\Timer0.obj TO .\Objects\Project PRINT (.\
>> Listings\Project.m51) RAMSIZE (256)


MEMORY MODEL: SMALL


INPUT MODULES INCLUDED:
  .\Objects\main.obj (MAIN)
  .\Objects\Delay.obj (DELAY)
  .\Objects\Timer0.obj (TIMER0)
  D:\KEIL_V5\C51\LIB\C51S.LIB (?C_STARTUP)
  D:\KEIL_V5\C51\LIB\C51S.LIB (?C_INIT)


LINK MAP OF MODULE:  .\Objects\Project (MAIN)


            TYPE    BASE      LENGTH    RELOCATION   SEGMENT NAME
            -----------------------------------------------------

            * * * * * * *   D A T A   M E M O R Y   * * * * * * *
            REG     0000H     0008H     ABSOLUTE     "REG BANK 0"
            DATA    0008H     004CH     UNIT         ?DT?MAIN
            IDATA   0054H     0001H     UNIT         ?STACK

            * * * * * * *   C O D E   M E M O R Y   * * * * * * *
            CODE    0000H     0003H     ABSOLUTE     
                    0003H     0008H                  *** GAP ***
            CODE    000BH     0003H     ABSOLUTE     
            CODE    000EH     008CH     UNIT         ?C_C51STARTUP
            CODE    009AH     004EH     UNIT         ?C_INITSEG
            CODE    00E8H     0034H     UNIT         ?PR?TIMER0_ROUNTINE?MAIN
            CODE    011CH     0031H     UNIT         ?PR?MAIN?MAIN
            CODE    014DH     002FH     UNIT         ?CO?MAIN
            CODE    017CH     0017H     UNIT         ?PR?TIMER0INIT?TIMER0
            CODE    0193H     0015H     UNIT         ?PR?_DELAY?DELAY



OVERLAY MAP OF MODULE:   .\Objects\Project (MAIN)


SEGMENT
  +--> CALLED SEGMENT
---------------------
?C_C51STARTUP
  +--> ?PR?MAIN?MAIN
  +--> ?C_INITSEG

?PR?MAIN?MAIN
  +--> ?PR?TIMER0INIT?TIMER0
  +--> ?CO?MAIN
  +--> ?PR?_DELAY?DELAY



BL51 BANKED LINKER/LOCATER V6.22                                                      06/07/2023  21:15:50  PAGE 2


SYMBOL TABLE OF MODULE:  .\Objects\Project (MAIN)

  VALUE           TYPE          NAME
  ----------------------------------

  -------         MODULE        MAIN
  C:0000H         SYMBOL        _ICE_DUMMY_
  D:00A0H         PUBLIC        P2
  D:0008H         PUBLIC        music_select
  D:0009H         PUBLIC        freq_select
  D:000AH         PUBLIC        freq_table
  C:014DH         PUBLIC        music
  C:011CH         PUBLIC        main
  D:008CH         PUBLIC        TH0
  D:008AH         PUBLIC        TL0
  B:0088H.4       PUBLIC        TR0
  B:00A0H.5       PUBLIC        BUZZER
  C:00E8H         PUBLIC        Timer0_Rountine
  -------         PROC          MAIN
  C:011CH         LINE#         42
  C:011CH         LINE#         43
  C:011CH         LINE#         44
  C:011FH         LINE#         45
  C:011FH         LINE#         46
  C:011FH         LINE#         47
  C:0129H         LINE#         48
  C:0129H         LINE#         49
  C:012BH         LINE#         50
  C:012DH         LINE#         51
  C:013AH         LINE#         52
  C:013CH         LINE#         53
  C:013EH         LINE#         54
  C:0145H         LINE#         55
  C:0147H         LINE#         56
  C:0149H         LINE#         58
  C:0149H         LINE#         59
  C:014BH         LINE#         60
  -------         ENDPROC       MAIN
  -------         PROC          TIMER0_ROUNTINE
  C:00E8H         LINE#         65
  C:00F3H         LINE#         68
  C:0101H         LINE#         69
  C:0101H         LINE#         70
  C:010EH         LINE#         71
  C:0111H         LINE#         72
  C:0113H         LINE#         73
  C:0113H         LINE#         75
  -------         ENDPROC       TIMER0_ROUNTINE
  -------         ENDMOD        MAIN

  -------         MODULE        DELAY
  C:0000H         SYMBOL        _ICE_DUMMY_
  C:0193H         PUBLIC        _Delay
  -------         PROC          _DELAY
  D:0006H         SYMBOL        xms
  -------         DO            
  D:0005H         SYMBOL        i
BL51 BANKED LINKER/LOCATER V6.22                                                      06/07/2023  21:15:50  PAGE 3


  D:0004H         SYMBOL        j
  -------         ENDDO         
  C:0193H         LINE#         1
  C:0193H         LINE#         3
  C:019DH         LINE#         4
  C:019FH         LINE#         5
  C:01A1H         LINE#         6
  C:01A1H         LINE#         7
  C:01A3H         LINE#         8
  C:01A5H         LINE#         9
  C:01A7H         LINE#         10
  -------         ENDPROC       _DELAY
  -------         ENDMOD        DELAY

  -------         MODULE        TIMER0
  C:0000H         SYMBOL        _ICE_DUMMY_
  B:00A8H.7       PUBLIC        EA
  D:0089H         PUBLIC        TMOD
  B:00A8H.1       PUBLIC        ET0
  B:0088H.5       PUBLIC        TF0
  C:017CH         PUBLIC        Timer0Init
  D:008CH         PUBLIC        TH0
  D:008AH         PUBLIC        TL0
  B:00B8H.1       PUBLIC        PT0
  B:0088H.4       PUBLIC        TR0
  -------         PROC          TIMER0INIT
  C:017CH         LINE#         9
  C:017CH         LINE#         10
  C:017CH         LINE#         12
  C:017FH         LINE#         13
  C:0182H         LINE#         14
  C:0185H         LINE#         15
  C:0188H         LINE#         16
  C:018AH         LINE#         17
  C:018CH         LINE#         19
  C:018EH         LINE#         20
  C:0190H         LINE#         21
  C:0192H         LINE#         22
  -------         ENDPROC       TIMER0INIT
  -------         ENDMOD        TIMER0

Program Size: data=85.0 xdata=0 code=416
LINK/LOCATE RUN COMPLETE.  0 WARNING(S),  0 ERROR(S)
