:100282005772697465205375636365737300202028
:100292002020202020202020202020005265616480
:1002A2002053756363657373002020202020202073
:0602B200202020202000A6
:1000030012040F750C05AB1EAA1D7D017F0112039F
:10001300C71201768F1FE51FB40115051EE51E707B
:1000230002051D750C05FBAA1D7D017F011203C787
:10003300E51FB40216E51E151E7002151D750C058D
:10004300AB1EAA1D7D017F011203C7E51F64037068
:1000530040FCAD1EFF1203447F057E001203FAE548
:100063001DFD7C00E4FF1203447F057E001203FAAA
:100073007BFF7A0279827D017F021203687FE87E2B
:10008300031203FA7BFF7A0279907D017F02120348
:1000930068E51F64046003020014FF1202EB751D80
:1000A300008F1E7F011202EBEFFEEE421D750C0561
:1000B300AB1EAA1D7D017F011203C77BFF7A027964
:1000C3009E7D017F021203687FE87E031203FA7BA1
:0F00D300FF7A0279AB7D017F02120368020014ED
:06042300C2A58F80D2A7E4
:080429007F027EEFDEFEDFFC26
:0104310022A8
:0A044A00C2A6120423C2A70204296F
:10038B00CFCDCFCECCCE1201217C007D0A12012124
:04039B00ED2430FF1E
:0A039F00D2A6120423C2A70204290B
:1003E400AE07BE0104ED148006BE0209ED243F44AD
:0603F40080FF12044A2202
:10040F007F3812044A7F0C12044A7F0612044A7F77
:04041F000102044A88
:0A045400AC031203E4AF0402039F9F
:060368008B088A09890AD6
:10036E001203E4E4FDAB08AA09A90A8D8275830085
:0C037E001200E2FF600612039F0D80E9F0
:01038A002250
:0C02B8007F0AEA24FFFDE434FFFC7E0016
:0802C4008E0D8F0E8C0F8D10C2
:1002CC007F017E00E4FBEBC39510E50F6480F874AE
:0E02DC008098500AAC0DAD0E12010F0B80E899
:0102EA0022F1
:0403C7008A0A8B0B08
:1003CB001203E4AA0CEAD39400400D1202B8AC0A53
:0803DB00AD0B12038B1A80ED3B
:0103E30022F7
:1001D7001203E4C3EA64809480400B7F2B12039FD1
:1001E7008A168B17800E7F2D12039FC3E49BF5178A
:1001F700E49AF516AA15EAD39400400D1202B8AC9A
:0902070016AD1712038B1A80EDED
:0102100022CB
:040211008A1A8B1B9F
:100215001203E4AA1CEAD3940040297F101202BA03
:10022500AC1AAD1BCFCDCFCECCCE120121EF540FE2
:10023500FEC3940AEE5004243080022437FF1203D3
:040245009F1A80D1AB
:010249002292
:04024A008A238B2454
:10024E001203E4AA25EAD394004028EA24FFFDE431
:10025E0034FFFC7F027E001202C4AC23AD24CFCD4E
:10026E00CFCECCCE120121EF54012430FF12039FCA
:03027E001A80D211
:01028100225A
:1003FA00EF1FAC0670011E4C600A7D027CEFDCFE2A
:04040A00DDFC80ECA9
:01040E0022CB
:10017600E4F50820B1137F14FE1203FA30B1FD7FB7
:10018600147E001203FA75080120B0147F147E0055
:100196001203FA30B0FD7F147E001203FA750802CE
:1001A60020B2147F147E001203FA30B2FD7F147E53
:1001B600001203FA75080320B3147F147E0012039D
:1001C600FA30B3FD7F147E001203FA750804AF08F7
:0101D6002206
:100344008F088C098D0A12045E7FA012031B12040D
:1003540032AF0812031B120432AF0A12031B120439
:0403640032020470ED
:0202EB008F087A
:1002ED0012045E7FA012031B120432AF0812031B0F
:1002FD0012043212045E7FA112031B120432120388
:0D030D00A98F09D200120467120470AF0915
:01031A0022C0
:09045E00D2A0D2A1C2A0C2A122C9
:07047000C2A0D2A1D2A0221C
:02031B00AD072C
:10031D00E4FB74807E00A803088006CEA2E713CE0E
:10032D0013D8F8FFEDF582EF558224FF92A0D2A1EC
:06033D00C2A10BBB08DCAD
:010343002297
:1003A900E4FFD2A0FED2A130A00D7480A806088077
:0D03B90002C313D8FC4207C2A10EBE08E823
:0103C6002214
:09046700A20092A0D2A1C2A122C0
:0B043200D2A0D2A1A2A0E433FFC2A11F
:01043D00229C
:0300000002043EB9
:0C043E00787FE4F6D8FD758125020003EC
:1000E200BB010CE58229F582E5833AF583E02250D3
:1000F20006E92582F8E622BBFE06E92582F8E2221D
:0D010200E58229F582E5833AF583E4932236
:10010F00EF8DF0A4A8F0CF8CF0A428CE8DF0A42E04
:02011F00FE22BE
:10012100BC000BBE0029EF8DF084FFADF022E4CCC2
:10013100F875F008EF2FFFEE33FEEC33FCEE9DEC8B
:10014100984005FCEE9DFE0FD5F0E9E4CEFD22EDD1
:10015100F8F5F0EE8420D21CFEADF075F008EF2F1B
:10016100FFED33FD4007985006D5F0F222C398FD0C
:050171000FD5F0EA22A9
:00000001FF
