:03000000020050AB
:10005000E4F593F594F591F592F595F596F5B1F5EE
:10006000B2F5B375B401F5C9F5CAF5CBF5CCF5E138
:10007000F5E27581D075D000D2C07530FF7531E3DF
:100080007532EB7533EB7534007535EB7536EB7502
:1000900037E37538FF753900753A2A753B0A753CA8
:1000A00002753D2A753E2A753F007540FD7541FD7C
:1000B0007542FC75430175440D75456975460575B6
:1000C00047ED75487B754977754A6F754B01754CDF
:1000D0007F754D01754E6F754F777550FF75517B6C
:1000E0007552BB7553DB7554E07555DB7556BB75A2
:1000F000577B7558D37559DA755AD1755BC3755CE2
:1001000001755D52755E99755FD27520BF7521418D
:100110007522557523557524007525D57526D57519
:1001200027C1752875752961752A51752B31752C74
:1001300071752D70752EFD752FFB757061757105CC
:100140007572E57573047574617575F47576F2757D
:10015000770278307A00120209120238DAF8783819
:100160007A00120209120238DAF878407A00120294
:1001700009120238DAF878487A00120209120238B5
:10018000DAF878507A00120209120238DAF8785850
:100190007A00120209120238DAF878207A00120284
:1001A00009120238DAF878287A00120209120238A5
:1001B000DAF878587A00120209120238DAF8787000
:1001C0007A00120209120238DAF878607A00020125
:1001D000523F065B4F666D7D077F6F777C395E7996
:1001E000710040761E7038375C733E783D6750373B
:1001F0006E0102040810204080C0027A083392C4C5
:10020000D2C2C2C2DAF7D00222C083C0829001F10A
:10021000E57F93001201F9E41201F9D2C3C2C3E6EB
:10022000F5E808057FE57F54F86008757F00E8C3AE
:100230009408F8D082D08322C003C0047B647CF889
:0B024000DCFEDBFC0000D004D0032239
:00000001FF
