:1009AE0020200020202D20202D20200020203A2045
:0509BE00203A2020009A
:10064200120529E518FB3395E0FA750C027D017F4E
:1006520001120964E519FB3395E0FA750C027D0479
:100662007F01120964E51AFB3395E0FA750C027DED
:10067200077F01120964E51BFB3395E0FA750C0252
:100682007D017F02120964E51CFB3395E0FA750CCB
:10069200027D047F02120964E51DFB3395E0FA75C1
:0906A2000C027D077F02020964CD
:10000E00E524B4020D0522E52275F006120473856F
:10001E00F022E524640360030200EA74182522F836
:10002E0006D3E518648094E34003E4F518D3E5198C
:10003E006480948C4003751901E51964016023E511
:10004E00196403601DE51964056017E519640760FE
:10005E0011E5196408600BE519640A6005E519B429
:10006E000C0BD3E51A6480949F404D8048E51964CB
:10007E00046011E5196406600BE51964096005E575
:10008E0019B40B0BD3E51A6480949E402B8026E5A1
:10009E0019B40224E51875F004120473AFF0EF7072
:1000AE000BD3E51A6480949D400E8009D3E51A6443
:1000BE0080949C4003751A01D3E51B64809497408D
:1000CE0003E4F51BD3E51C648094BB4003E4F51CEC
:1000DE00D3E51D648094BB4003E4F51DE524640460
:1000EE0060030201E574182522F816C3E518648032
:1000FE0094805003751863C3E5196480948150038E
:10010E0075190CE51964016023E5196403601DE59A
:10011E001964056017E51964076011E51964086034
:10012E000BE519640A6005E519B40C17C3E51A64EA
:10013E008094815003751A1FD3E51A6480949F40F2
:10014E0072806DE51964046011E5196406600BE5B3
:10015E001964096005E519B40B17C3E51A64809498
:10016E00815003751A1ED3E51A6480949E40448014
:10017E003FE5196402703CE51875F004120473AF84
:10018E00F0EF7017C3E51A648094815003751A1D41
:10019E00D3E51A6480949D401A8015C3E51A6480D5
:1001AE0094815003751A1CD3E51A6480949C400305
:1001BE00751A01C3E51B648094805003751B17C329
:1001CE00E51C648094805003751C3BC3E51D648060
:1001DE0094805003751D3BE5227014E523B4010F86
:1001EE007BFF7A0979AE7D017F011209238011E52B
:1001FE0018FB3395E0FA750C027D017F011209643C
:10020E00E522B40114E523B4010F7BFF7A0979AE20
:10021E007D047F011209238011E519FB3395E0FA65
:10022E00750C027D047F01120964E522B40214E507
:10023E0023B4010F7BFF7A0979AE7D077F01120986
:10024E00238011E51AFB3395E0FA750C027D077FCA
:10025E0001120964E522B40314E523B4010F7BFFF8
:10026E007A0979AE7D017F021209238011E51BFB0D
:10027E003395E0FA750C027D017F02120964E522C6
:10028E00B40414E523B4010F7BFF7A0979AE7D0423
:10029E007F021209238011E51CFB3395E0FA750CE1
:1002AE00027D047F02120964E522B40514E523B42D
:1002BE00010F7BFF7A0979AE7D077F021209238039
:1002CE0011E51DFB3395E0FA750C027D077F0212D6
:1002DE000964E522FB3395E0FA750C027D0A7F0274
:1002EE00120964E523FB3395E0FA750C027D0D7F50
:0402FE00020209648B
:100768001209D81200031209817BFF7A0979B17D39
:10077800017F011209237BFF7A0979BA7D017F0283
:100788001209231203021206AB8F24E524B40114C4
:10079800E5217005752101800BE521B40106E4F51A
:1007A80021120000E5211460080470DA1206428064
:0607B800D512000E80D0F6
:03000B00020846A2
:09084600C0E0C0D075D000C0076D
:10084F00758A18758CFC0520E5207002051FC3946E
:10085F00F4E51F94014012751F00752000E5237009
:09086F00047F0180027F008F2349
:07087800D007D0D0D0E03220
:0609EC00C2A58F80D2A716
:0809F2007F027EEFDEFEDFFC58
:0109FA0022DA
:0A09FB00C2A61209ECC2A70209F21D
:10094600CFCDCFCECCCE1204D47C007D0A1204D4F7
:04095600ED2430FF5D
:0A095A00D2A61209ECC2A70209F2AE
:10099800AE07BE0104ED148006BE0209ED243F44F3
:0609A80080FF1209FB2292
:1009D8007F381209FB7F0C1209FB7F061209FB7F87
:0409E800010209FB04
:0A0A0500AC03120998AF0402095A6D
:060923008B088A09890A15
:10092900120998E4FDAB08AA09A90A8D827583000A
:0C093900120495FF600612095A0D80E9B7
:01094500228F
:0C08F0007F0AEA24FFFDE434FFFC7E00D8
:0808FC008E0D8F0E8C0F8D1084
:100904007F017E00E4FBEBC39510E50F6480F8746F
:0E0914008098500AAC0DAD0E1204C20B80E8A4
:0109220022B2
:040964008A0A8B0B65
:10096800120998AA0CEAD39400400D1208F0AC0AB8
:08097800AD0B1209461A80EDD7
:010980002254
:10080C00120998C3EA64809480400B7F2B12095A1A
:10081C008A168B17800E7F2D12095AC3E49BF5178D
:10082C00E49AF516AA15EAD39400400D1208F0AC20
:09083C0016AD171209461A80EDF1
:010845002290
:04087F008A278B2811
:10088300120998AA29EAD3940040297F101208F28A
:10089300AC27AD28CFCDCFCECCCE1204D4EF540F9E
:1008A300FEC3940AEE5004243080022437FF120959
:0408B3005A1A80D17C
:0108B700221E
:0408B8008A2C8B2DCE
:1008BC00120998AA2EEAD394004028EA24FFFDE4FA
:1008CC0034FFFC7F027E001208FCAC2CAD2DCFCD8A
:1008DC00CFCECCCE1204D4EF54012430FF12095ADF
:0308EC001A80D29D
:0108EF0022E6
:090A0F00071817010B0C3B37031B
:05000300C2B5C2B622E7
:05070C002DFDEE3CFC98
:060711008C088D09AB0706
:10071700D2B5E4FD74017E00A805088005C333CE79
:1007270033CED8F9FFEBF582EF558224FF92B4D28E
:10073700B6C2B60DBD08DDE4FD74017E00A805084C
:100747008005C333CE33CED8F9FFE5085EFEE50951
:100757005F4E24FF92B4D2B6C2B60DBD08DBC2B558
:01076700226F
:0207BE00AD0785
:1007C000E4F9430501D2B5FB74017E00A80308805B
:1007D00005C333CE33CED8F9FFEDF582EF55822431
:1007E000FF92B4C2B6D2B60BBB08DDE4FBD2B6C2F0
:1007F000B630B40D7401A803088002C333D8FC429C
:0B080000010BBB08E8C2B5C2B4AF0199
:01080B0022CA
:10030200E4FDFC7F8E120711E51875F00A120473E2
:10031200FF3395E0FEEFC4F8540FC868FFEEC454F3
:10032200F048FEE51875F00A120473ADF0ED33954E
:10033200E0FCEF7F8C12070CE51975F00A120473CA
:10034200FF3395E0FEEFC4F8540FC868FFEEC454C3
:10035200F048FEE51975F00A120473ADF0ED33951D
:10036200E0FCEF7F8812070CE51A75F00A1204739D
:10037200FF3395E0FEEFC4F8540FC868FFEEC45493
:10038200F048FEE51A75F00A120473ADF0ED3395EC
:10039200E0FCEF2DFDEE3CFC7F86120711E51B759C
:1003A200F00A120473FF3395E0FEEFC4F8540FC84D
:1003B20068FFEEC454F048FEE51B75F00A120473A0
:1003C200ADF0ED3395E0FCEF2DFDEE3CFC7F8412A9
:1003D2000711E51C75F00A120473FF3395E0FEEF76
:1003E200C4F8540FC868FFEEC454F048FEE51C750B
:1003F200F00A120473ADF0ED3395E0FCEF2DFDEE43
:100402003CFC7F82120711E51D75F00A120473FF8E
:100412003395E0FEEFC4F8540FC868FFEEC454F001
:1004220048FEE51D75F00A120473ADF0ED3395E058
:10043200FCEF2DFDEE3CFC7F80120711E51E75F0EE
:100442000A120473FF3395E0FEEFC4F8540FC86834
:10045200FFEEC454F048FEE51E75F00A120473ADB7
:10046200F0ED3395E0FCEF2DFDEE3CFC7F8A0207B8
:010472001178
:100529007F8C1207BEEFC4540F75F00AA4FEEF5476
:100539000F2EF5187F881207BEEFC4540F75F00A05
:10054900A4FEEF540F2EF5197F861207BEEFC4548F
:100559000F75F00AA4FEEF540F2EF51A7F841207C7
:10056900BEEFC4540F75F00AA4FEEF540F2EF51B0D
:100579007F821207BEEFC4540F75F00AA4FEEF5430
:100589000F2EF51C7F801207BEEFC4540F75F00AB9
:10059900A4FEEF540F2EF51D7F8A1207BEEFC45437
:0C05A9000F75F00AA4FEEF540F2EF51E93
:0105B5002223
:1009C300EF1FAC0670011E4C600A7D027CEFDCFE5B
:0409D300DDFC80ECDB
:0109D70022FD
:1006AB00E4F50820B1137F14FE1209C330B1FD7FAE
:1006BB00147E001209C375080120B0147F147E004C
:1006CB001209C330B0FD7F147E001209C3750802F6
:1006DB0020B2147F147E001209C330B2FD7F147E4A
:1006EB00001209C375080320B3147F147E0012098E
:1006FB00C330B3FD7F147E001209C3750804AF0825
:01070B0022CB
:100981005389F0438901758A18758CFCC28DD28C0C
:07099100D2A9D2AFC2B922C6
:030000000205B640
:0C05B600787FE4F6D8FD75812E0205FD6B
:10047300C2D530F707B2D563F0FF05F030E70CB211
:10048300D5F4048463F0FF05F080018430D502F4D1
:02049300042241
:10049500BB010CE58229F582E5833AF583E022501C
:1004A50006E92582F8E622BBFE06E92582F8E22266
:0D04B500E58229F582E5833AF583E4932280
:1004C200EF8DF0A4A8F0CF8CF0A428CE8DF0A42E4E
:0204D200FE2208
:1004D400BC000BBE0029EF8DF084FFADF022E4CC0C
:1004E400F875F008EF2FFFEE33FEEC33FCEE9DECD5
:1004F400984005FCEE9DFE0FD5F0E9E4CEFD22ED1B
:10050400F8F5F0EE8420D21CFEADF075F008EF2F64
:10051400FFED33FD4007985006D5F0F222C398FD55
:050524000FD5F0EA22F2
:1005C200020768E493A3F8E493A34003F68001F2E0
:1005D20008DFF48029E493A3F85407240CC8C3333A
:1005E200C4540F4420C8834004F456800146F6DF09
:1005F200E4800B0102040810204080900A0FE47E80
:10060200019360BCA3FF543F30E509541FFEE493FD
:10061200A360010ECF54C025E060A840B8E493A3C4
:10062200FAE493A3F8E493A3C8C582C8CAC583CAEF
:10063200F0A3C8C582C8CAC583CADFE9DEE780BEA7
:010A180000DD
:00000001FF
