BL51 BANKED LINKER/LOCATER V6.22.4.0                                                    11/10/2023  20:06:10  PAGE 1


BL51 BANKED LINKER/LOCATER V6.22.4.0, INVOKED BY:
D:\KEIL_V5\C51\BIN\BL51.EXE .\Objects\exp2_1.obj TO .\Objects\Project PRINT (.\Listings\Project.m51) RAMSIZE (256)


INPUT MODULES INCLUDED:
  .\Objects\exp2_1.obj (EXP2_1)


LINK MAP OF MODULE:  .\Objects\Project (EXP2_1)


            TYPE    BASE      LENGTH    RELOCATION   SEGMENT NAME
            -----------------------------------------------------

            * * * * * * *   D A T A   M E M O R Y   * * * * * * *
            REG     0000H     0008H     ABSOLUTE     "REG BANK 0"

            * * * * * * *   C O D E   M E M O R Y   * * * * * * *
            CODE    0000H     0166H     ABSOLUTE     



SYMBOL TABLE OF MODULE:  .\Objects\Project (EXP2_1)

  VALUE           TYPE          NAME
  ----------------------------------

  -------         MODULE        EXP2_1
  D:00E0H         SYMBOL        ACC
  C:0145H         SYMBOL        DELAY500MS
  C:0131H         SYMBOL        HC595OFF
  C:0121H         SYMBOL        HC595SENDBYTE
  C:0125H         SYMBOL        HC595SENDLOOP
  B:00C0H.3       SYMBOL        HC595_RCK
  B:00C0H.2       SYMBOL        HC595_SCK
  B:00C0H.4       SYMBOL        HC595_SI
  C:0119H         SYMBOL        LOOP
  C:0100H         SYMBOL        MAIN
  C:0156H         SYMBOL        NEXT
  D:00C0H         SYMBOL        P4
  D:00B4H         SYMBOL        P4M0
  D:00B3H         SYMBOL        P4M1
  D:00E8H         SYMBOL        P6
  D:00CCH         SYMBOL        P6M0
  D:00CBH         SYMBOL        P6M1
  D:0081H         SYMBOL        SP
  C:0000H         LINE#         20
  C:0100H         LINE#         24
  C:0103H         LINE#         25
  C:0106H         LINE#         27
  C:0109H         LINE#         28
  C:010CH         LINE#         30
  C:010FH         LINE#         31
  C:0112H         LINE#         32
  C:0115H         LINE#         33
  C:0117H         LINE#         34
  C:0119H         LINE#         36
  C:011BH         LINE#         37
BL51 BANKED LINKER/LOCATER V6.22.4.0                                                  11/10/2023  20:06:10  PAGE 2


  C:011CH         LINE#         38
  C:011FH         LINE#         39
  C:0121H         LINE#         45
  C:0123H         LINE#         46
  C:0125H         LINE#         48
  C:0126H         LINE#         49
  C:0128H         LINE#         50
  C:012AH         LINE#         51
  C:012CH         LINE#         52
  C:012EH         LINE#         53
  C:0130H         LINE#         54
  C:0131H         LINE#         60
  C:0133H         LINE#         62
  C:0134H         LINE#         63
  C:0137H         LINE#         65
  C:0138H         LINE#         66
  C:013BH         LINE#         67
  C:013DH         LINE#         68
  C:013EH         LINE#         69
  C:0140H         LINE#         70
  C:0142H         LINE#         71
  C:0144H         LINE#         72
  C:0145H         LINE#         75
  C:0146H         LINE#         76
  C:0147H         LINE#         77
  C:0149H         LINE#         78
  C:014BH         LINE#         79
  C:014DH         LINE#         80
  C:0150H         LINE#         81
  C:0153H         LINE#         82
  C:0156H         LINE#         84
  C:0159H         LINE#         85
  C:015CH         LINE#         86
  C:015FH         LINE#         87
  C:0161H         LINE#         88
  C:0163H         LINE#         89
  C:0165H         LINE#         90
  -------         ENDMOD        EXP2_1

Program Size: data=8.0 xdata=0 code=358
LINK/LOCATE RUN COMPLETE.  0 WARNING(S),  0 ERROR(S)
