:100260001203E81203E212039DEF604B1203F18FB9
:1002700022E522B41603E4F521E522B40C0375212E
:1002800001E522B41803752102E522B45E0375214D
:1002900003E5217004FF1203EBE521B401057F3271
:1002A0001203EBE521B402057F4B1203EBE521B409
:1002B00003057F641203EBAD217F011201F380A6D9
:10000600EF1FAC0670011E4C600A7D027CEFDCFE21
:04001600DDFC80ECA1
:01001A0022C3
:0503D600E4AF20F5205A
:0103DB0022FF
:10036A00E4FF20B1010F20B0027F0220B2027F0316
:05037A0020B3027F0426
:01037F00225B
:10031A00851E1F12036A8F1EE51FB40107E51E70B2
:10032A0003752001E51FB40207E51E70037520025C
:10033A00E51FB40307E51E7003752003E51FB40427
:08034A0007E51E700375200495
:010352002288
:0C0390000A143F065B4F666D7D077F6F0F
:1001F300EF14B40800505490020875F003A4C583AB
:1002030025F0C5837302022002022402022802029F
:100213002C020230020238020240020248D2A480B9
:100223000ED2A48012D2A48016D2A4801AC2A4D261
:10023300A3D2A28016C2A4D2A3C2A2800EC2A4C219
:10024300A3D2A28006C2A4C2A3C2A274142DF8E64C
:0D025300F5807F017E00120006E4F5802298
:1003530053890F438910758B9C758DFFC28FD28E85
:07036300D2ABD2AFC2BB22F6
:0B03B700D288C289D2A8D2AFD2B822EF
:0303E800020353BA
:0303EB008F24223A
:03001B000202C01E
:1002C000C0E0C0F0C083C082C0D075D000C000C004
:1002D00001C002C003C004C005C006C007758B9CE6
:1002E000758DFF0523E523C3946440067523001232
:1002F000031AE523C395245004D2908002C290D003
:1003000007D006D005D004D003D002D001D000D051
:0A031000D0D082D083D0F0D0E032CC
:100380005389F0438901E4F58AF58CC28DC28C2231
:0B03C200AD07AC068C8CAF058F8A22C3
:0903CD00AF8CEFFEAD8AEDFF22BA
:0603DC00EF24FF928C22C9
:0603E2001203800203B7C4
:0D039D00E5086006E4F5087F01227F0022DC
:0D03AA00E5136006E4F5137F01227F0022B9
:0303EE00AF11222A
:0303F100AF102228
:0300030002001EDA
:10001E00C0E0C0F0C083C082C0D075D000C000C0A8
:10002E0001C002C003C004C005C006C007E50D1420
:10003E00601714605D2402600302014CE4FFFE129F
:10004E0003C27F011203DC80431203CD8E0E8F0F8D
:10005E00E4FFFE1203C2D3E50F94A6E50E942E40E4
:10006E0010E50F948EE50E94325006750D020201C6
:10007E004CD3E50F948CE50E94264010E50F947446
:10008E00E50E942A5006751301020144750D010206
:10009E00014C1203CD8E0E8F0FE4FFFE1203C2D35E
:1000AE00E50F9414E50E9402402CE50F94FCE50E3A
:1000BE0094055022E512131313541F2409F8C0009F
:1000CE00E6FFE5125407FE7401A806088002C3334A
:1000DE00D8FCF45F8034D3E50F9426E50E940640E9
:1000EE0030E50F940EE50E940A5026E51213131305
:1000FE00541F2409F8C000E6FFE5125407FE7401F0
:10010E00A806088002C333D8FC4FD000F605128033
:10011E0006751200750D01E512C39420402075126C
:10012E0000E50AF4B5090FE50CF4B50B09850911C4
:10013E00850B10750801E4FF1203DC750D00D00766
:10014E00D006D005D004D003D002D001D000D0D03C
:09015E00D082D083D0F0D0E03251
:0300000002016793
:0C016700787FE4F6D8FD7581240201AE1B
:10017300020260E493A3F8E493A34003F68001F240
:1001830008DFF48029E493A3F85407240CC8C3338D
:10019300C4540F4420C8834004F456800146F6DF5C
:1001A300E4800B0102040810204080900390E47E59
:1001B300019360BCA3FF543F30E509541FFEE49351
:1001C300A360010ECF54C025E060A840B8E493A318
:1001D300FAE493A3F8E493A3C8C582C8CAC583CA43
:1001E300F0A3C8C582C8CAC583CADFE9DEE780BEFB
:01039C000060
:00000001FF
