:03000000020100FA
:1001000075930075940175B30075B40175CB0075D6
:10011000CCFF75818075D000D2C075BA8074009014
:10012000FE00F0740290FE01F075BA00758E007545
:10013000380078307A08761008DAFB1201BF753083
:10014000007531007539007F00C2807AFA75300180
:100150007531001201BF1201F9DAF81208B7000078
:100160001201F902014B7D017E05C3D28012024FBC
:10017000C28012024FEE9401FEED9400FD600280F9
:10018000EAEE70E7220102040810204080C0F9A4C2
:10019000B0999282F880908883C6A1868EFF4079BC
:1001A000243019120278001008034621060EFFC001
:1001B000027A083392C4D2C2C2C2DAF7D00222C095
:1001C00083C082C00074001201AF900185E53893AE
:1001D0001201AFC2C300D2C300C2C390018DE53883
:1001E0002430F8E693F5E80538E53854F8600375EF
:1001F0003800D000D082D083220000C030C03175DA
:100200003010753191D531FDD530FAD031D0302252
:100210007B1E7CFEDCFEDBFA227B1B7CFBDCFEDB38
:10022000FA227B587C44DCFEDBFA227B537C44DCE4
:10023000FEDBFA227B4A7C44DCFEDBFA227B2D7C4F
:1002400064DCFEDBFA227B287C64DCFEDBFA227BAA
:08025000277C61DCFEDBFA22D1
:100258007B227C63DCFEDBFA227B1F7C61DCFEDB1D
:10026800FA227B1C7C65DCFEDBFA227B197C65DCD0
:10027800FEDBFA227B177C62DCFEDBFA227B147C35
:1002880064DCFEDBFA227B157C5ADCFEDBFA227B7F
:10029800117C63DCFEDBFA227B117C58DCFEDBFA86
:1002A800227B107C58DCFEDBFA227B0D7C61DCFEB5
:1002B800DBFA227B0E7C50DCFEDBFA227B0D7C4DC8
:1002C800DCFEDBFA227F041201F9DFFB227F041235
:1002D80001F9DFFB227F021201F9DFFB227F4E12B8
:1002E80001F9DFFB227F9DD280120210C280120228
:1002F80010DFF4227F4ED280120210C28012021048
:10030800DFF4227F27D280120210C280120210DF8F
:10031800F4227FB0D280120219C280120219DFF4CF
:10032800227F58D280120219C280120219DFF422E9
:100338007F2CD280120219C280120219DFF4227FA8
:100348002CD280120219C280120219DFF4227F1601
:10035800D280120219C280120219DFF4227FC6D29B
:1003680080120222C280120222DFF4227F63D2802E
:0A037800120222C280120222DFF4FA
:10038200227F31D280120222C280120222DFF422A4
:100392007F31D280120222C280120222DFF4227F37
:1003A20019D280120222C280120222DFF4227FD1ED
:1003B200D28012022BC28012022BDFF4227F69D27A
:1003C2008012022BC28012022BDFF4227F34D280F1
:1003D20012022BC28012022BDFF4227F34D280124F
:1003E200022BC28012022BDFF4227F1AD280120269
:1003F2002BC28012022BDFF4227FEBD28012023456
:10040200C280120234DFF4227F76D280120234C21A
:1004120080120234DFF4227F3BD280120234C28087
:10042200120234DFF4227F3BD280120234C28012E5
:100432000234DFF4227F1ED280120234C280120202
:1004420034DFF4227D017E08C3D28012023DC280D5
:1004520012023DEE9401FEED9400FD600280EAEE90
:1004620070E7227F84D28012023DC28012023DDFF9
:10047200F4227F42D28012023DC28012023DDFF49A
:10048200227F42D28012023DC28012023DDFF4225C
:100492007F21D28012023DC28012023DDFF4227D12
:1004A200017E28C3D280120246C280120246EE9416
:0504B20001FEED9400C5
:1004B700FD600280EAEE70E7227F94D28012024646
:1004C700C280120246DFF4227F4AD280120246C25D
:1004D70080120246DFF4227F4AD280120246C2808F
:1004E700120246DFF4227F25D280120246C2801212
:1004F7000246DFF4227D017E3AC3D28012024FC248
:100507008012024FEE9401FEED9400FD600280EA36
:10051700EE70E7227F9DD28012024FC28012024FF7
:10052700DFF4227F4ED28012024FC28012024FDFC9
:10053700F4227F4ED28012024FC28012024FDFF4A4
:10054700227F27D28012024FC28012024FDFF4228D
:100557007D017E60C3D280120258C280120258EE1B
:100567009401FEED9400FD600280EAEE70E7227FC1
:10057700B0D280120258C280120258DFF4227F588C
:10058700D280120258C280120258DFF4227F58D25A
:1005970080120258C280120258DFF4227F2CD280C8
:1005A700120258C280120258DFF4227FC6D280128C
:1005B7000261C280120261DFF4227F63D2801202DD
:1005C70061C280120261DFF4227F63D2801202616E
:0F05D700C280120261DFF4227F32D280120261F1
:1005E600C280120261DFF4227FD1D28012026AC277
:1005F6008012026ADFF4227F69D28012026AC28008
:1006060012026ADFF4227F69D28012026AC2801265
:10061600026ADFF4227F35D28012026AC280120299
:100626006ADFF4227FEBD280120273C28012027359
:10063600DFF4227F76D280120273C280120273DF49
:10064600F4227F76D280120273C280120273DFF424
:10065600227F3BD280120273C280120273DFF42221
:100666007D017E08C3D28012027CC28012027CEE1B
:100676009401FEED9400FD600280EAEE70E7227FB1
:1006860084D28012027CC28012027CDFF4227F8434
:10069600D28012027CC28012027CDFF4227F42D218
:1006A6008012027CC28012027CDFF4227D017E2849
:1006B600C3D280120285C280120285EE9401FEED3D
:1006C6009400FD600280EAEE70E7227F96D28012E7
:1006D6000285C280120285DFF4227F96D280120242
:1006E60085C280120285DFF4227F4BD280120285FA
:1006F600C280120285DFF4227D017E3AC3D28012C7
:0E070600028EC28012028EEE9401FEED94006F
:10071400FD600280EAEE70E7227F9DD28012028E95
:10072400C28012028EDFF4227F9DD28012028EC21A
:100734008012028EDFF4227F4FD28012028EC2809A
:1007440012028EDFF4227D017E60C3D280120297F2
:10075400C280120297EE9401FEED9400FD600280C7
:10076400EAEE70E7227FB0D280120297C2801202B2
:1007740097DFF4227FB0D280120297C280120297D0
:10078400DFF4227F58D280120297C280120297DFD0
:10079400F4227FC6D2801202A0C2801202A0DFF42B
:1007A400227FC6D2801202A0C2801202A0DFF422ED
:1007B4007F63D2801202A0C2801202A0DFF4227FE3
:1007C400D2D2801202A9C2801202A9DFF4227FD2FF
:1007D400D2801202A9C2801202A9DFF4227F69D258
:1007E400801202A9C2801202A9DFF4227FEBD28018
:1007F4001202B2C2801202B2DFF4227FEBD2801264
:1008040002B2C2801202B2DFF4227F75D2801202D9
:10081400B2C2801202B2DFF4227D017E08C3D2800C
:100824001202BBC2801202BBEE9401FEED9400FDE5
:0D083400600280EAEE70E7227D017E08C3BD
:10084100D2801202BBC2801202BBEE9401FEED9473
:1008510000FD600280EAEE70E7227F84D2801202FE
:10086100BBC2801202BBDFF4227D017E28C3D2808D
:100871001202C4C2801202C4EE9401FEED9400FD86
:10088100600280EAEE70E7227D017E28C3D28012E9
:1008910002C4C2801202C4EE9401FEED9400FD6018
:1008A1000280EAEE70E7227F94D2801202C4C280F5
:1008B1001202C4DFF4227A021205B212062A1206CB
:1008C100661206661202DD1206661202DD12066665
:1008D1001202DD1206661206661202DD12066612A9
:1008E100066612062A1202CD1205B21205B21206CE
:1008F1002A1205B21205B21205B21202CD1205B2C8
:1009010012051B1205761205761202DD120576120A
:10091100057612051B1204651204651205B2120553
:10092100B212051B12057612057612051B1204651B
:100931001202CD1202CD1202CD1202CD1202CD123F
:1009410002CD1202CD1202CD1202CD1202CD12023F
:0A095100CD1202CDDA01220208B92E
:00000001FF
