BL51 BANKED LINKER/LOCATER V6.22                                                        01/10/2023  19:50:19  PAGE 1


BL51 BANKED LINKER/LOCATER V6.22, INVOKED BY:
D:\KEIL_V5\C51\BIN\BL51.EXE .\Objects\main.obj TO .\Objects\Project PRINT (.\Listings\Project.m51) RAMSIZE (256)


MEMORY MODEL: SMALL


INPUT MODULES INCLUDED:
  .\Objects\main.obj (MAIN)
  D:\KEIL_V5\C51\LIB\C51S.LIB (?C_STARTUP)
  D:\KEIL_V5\C51\LIB\C51S.LIB (?C_INIT)


LINK MAP OF MODULE:  .\Objects\Project (MAIN)


            TYPE    BASE      LENGTH    RELOCATION   SEGMENT NAME
            -----------------------------------------------------

            * * * * * * *   D A T A   M E M O R Y   * * * * * * *
            REG     0000H     0008H     ABSOLUTE     "REG BANK 0"
            DATA    0008H     0010H     UNIT         ?DT?MAIN
            IDATA   0018H     0001H     UNIT         ?STACK

            * * * * * * *   C O D E   M E M O R Y   * * * * * * *
            CODE    0000H     0003H     ABSOLUTE     
            CODE    0003H     008CH     UNIT         ?C_C51STARTUP
            CODE    008FH     0029H     UNIT         ?PR?_HC595_WRITE_DATA?MAIN
            CODE    00B8H     0018H     UNIT         ?PR?MAIN?MAIN
            CODE    00D0H     0015H     UNIT         ?C_INITSEG
            CODE    00E5H     000FH     UNIT         ?PR?_DELAY_10US?MAIN



OVERLAY MAP OF MODULE:   .\Objects\Project (MAIN)


SEGMENT
  +--> CALLED SEGMENT
---------------------
?C_C51STARTUP
  +--> ?PR?MAIN?MAIN
  +--> ?C_INITSEG

?PR?MAIN?MAIN
  +--> ?PR?_HC595_WRITE_DATA?MAIN
  +--> ?PR?_DELAY_10US?MAIN

?PR?_HC595_WRITE_DATA?MAIN
  +--> ?PR?_DELAY_10US?MAIN



SYMBOL TABLE OF MODULE:  .\Objects\Project (MAIN)

  VALUE           TYPE          NAME
  ----------------------------------

BL51 BANKED LINKER/LOCATER V6.22                                                      01/10/2023  19:50:19  PAGE 2


  -------         MODULE        MAIN
  C:0000H         SYMBOL        _ICE_DUMMY_
  D:0080H         PUBLIC        P0
  B:00B0H.6       PUBLIC        SRCLK
  D:00B0H         PUBLIC        P3
  C:00B8H         PUBLIC        main
  C:00E9H         PUBLIC        _delay_10us
  D:0008H         PUBLIC        gled_col
  D:0010H         PUBLIC        gled_row
  B:00B0H.5       PUBLIC        RCK
  B:00B0H.4       PUBLIC        SER
  C:008FH         PUBLIC        _hc595_write_data
  C:00E5H         SYMBOL        L?0016
  -------         PROC          L?0015
  -------         ENDPROC       L?0015
  C:00E5H         SYMBOL        L?0016
  -------         PROC          _DELAY_10US
  D:0006H         SYMBOL        time
  C:00E9H         LINE#         15
  C:00E9H         LINE#         16
  C:00E9H         LINE#         17
  C:00F3H         LINE#         18
  -------         ENDPROC       _DELAY_10US
  -------         PROC          _HC595_WRITE_DATA
  D:0005H         SYMBOL        dat
  -------         DO            
  D:0003H         SYMBOL        i
  -------         ENDDO         
  C:008FH         LINE#         20
  C:0091H         LINE#         21
  C:0091H         LINE#         22
  C:0093H         LINE#         24
  C:0093H         LINE#         25
  C:0093H         LINE#         26
  C:009EH         LINE#         27
  C:00A2H         LINE#         28
  C:00A4H         LINE#         29
  C:00A7H         LINE#         30
  C:00A9H         LINE#         31
  C:00ACH         LINE#         32
  C:00B0H         LINE#         33
  C:00B2H         LINE#         34
  C:00B5H         LINE#         35
  C:00B7H         LINE#         36
  -------         ENDPROC       _HC595_WRITE_DATA
  -------         PROC          MAIN
  -------         DO            
  D:0002H         SYMBOL        i
  -------         ENDDO         
  C:00B8H         LINE#         38
  C:00B8H         LINE#         39
  C:00B8H         LINE#         40
  C:00B8H         LINE#         41
  C:00B8H         LINE#         42
  C:00B8H         LINE#         44
  C:00BAH         LINE#         45
  C:00BAH         LINE#         46
BL51 BANKED LINKER/LOCATER V6.22                                                      01/10/2023  19:50:19  PAGE 3


  C:00BDH         LINE#         47
  C:00C2H         LINE#         48
  C:00C5H         LINE#         49
  C:00CAH         LINE#         50
  -------         ENDPROC       MAIN
  -------         ENDMOD        MAIN

Program Size: data=25.0 xdata=0 code=244
LINK/LOCATE RUN COMPLETE.  0 WARNING(S),  0 ERROR(S)
