BL51 BANKED LINKER/LOCATER V6.22.4.0                                                    10/13/2023  11:18:05  PAGE 1


BL51 BANKED LINKER/LOCATER V6.22.4.0, INVOKED BY:
D:\KEIL_V5\C51\BIN\BL51.EXE .\Objects\STARTUP.obj, .\Objects\demo_pulse.obj TO .\Objects\Project PRINT (.\Listings\Proje
>> ct.m51) RAMSIZE (256)


INPUT MODULES INCLUDED:
  .\Objects\STARTUP.obj (?C_STARTUP)
  .\Objects\demo_pulse.obj (DEMO_PULSE)


LINK MAP OF MODULE:  .\Objects\Project (?C_STARTUP)


            TYPE    BASE      LENGTH    RELOCATION   SEGMENT NAME
            -----------------------------------------------------

            * * * * * * *   D A T A   M E M O R Y   * * * * * * *
            REG     0000H     0008H     ABSOLUTE     "REG BANK 0"
            IDATA   0008H     0001H     UNIT         ?STACK

            * * * * * * *   C O D E   M E M O R Y   * * * * * * *
            CODE    0000H     0003H     ABSOLUTE     
* OVERLAP * CODE    0000H     007AH     ABSOLUTE     
            CODE    007AH     000CH     UNIT         ?C_C51STARTUP



UNRESOLVED EXTERNAL SYMBOLS:
   ?C_START



SYMBOL TABLE OF MODULE:  .\Objects\Project (?C_STARTUP)

  VALUE           TYPE          NAME
  ----------------------------------

  -------         MODULE        ?C_STARTUP
  C:007AH         SEGMENT       ?C_C51STARTUP
  I:0008H         SEGMENT       ?STACK
  C:0000H         PUBLIC        ?C_STARTUP
  D:00E0H         SYMBOL        ACC
  D:00F0H         SYMBOL        B
  D:0083H         SYMBOL        DPH
  D:0082H         SYMBOL        DPL
  N:0000H         SYMBOL        IBPSTACK
  N:0100H         SYMBOL        IBPSTACKTOP
  N:0080H         SYMBOL        IDATALEN
  C:007DH         SYMBOL        IDATALOOP
  N:0000H         SYMBOL        PBPSTACK
  N:0100H         SYMBOL        PBPSTACKTOP
  N:0000H         SYMBOL        PDATALEN
  N:0000H         SYMBOL        PDATASTART
  N:0000H         SYMBOL        PPAGE
  N:0000H         SYMBOL        PPAGEENABLE
  D:00A0H         SYMBOL        PPAGE_SFR
  D:0081H         SYMBOL        SP
  C:007AH         SYMBOL        STARTUP1
BL51 BANKED LINKER/LOCATER V6.22.4.0                                                  10/13/2023  11:18:05  PAGE 2


  N:0000H         SYMBOL        XBPSTACK
  N:0000H         SYMBOL        XBPSTACKTOP
  N:0000H         SYMBOL        XDATALEN
  N:0000H         SYMBOL        XDATASTART
  C:0000H         LINE#         126
  C:007AH         LINE#         133
  C:007CH         LINE#         134
  C:007DH         LINE#         135
  C:007EH         LINE#         136
  C:0080H         LINE#         185
  C:0083H         LINE#         196
  -------         ENDMOD        ?C_STARTUP

  -------         MODULE        DEMO_PULSE
  D:00F0H         SYMBOL        B
  C:005FH         SYMBOL        D1
  C:0061H         SYMBOL        D2
  C:005DH         SYMBOL        DELAY
  C:002FH         SYMBOL        LOOP1
  C:003AH         SYMBOL        LOOP2
  C:0045H         SYMBOL        LOOP3
  C:0050H         SYMBOL        LOOP4
  D:0080H         SYMBOL        P0
  D:00A0H         SYMBOL        P2
  D:00B0H         SYMBOL        P3
  C:002CH         SYMBOL        SCANDISP
  C:006AH         SYMBOL        TABLE
  D:008CH         SYMBOL        TH0
  N:0022H         SYMBOL        TH0_ONES
  N:0023H         SYMBOL        TH0_TENS
  D:008AH         SYMBOL        TL0
  N:0020H         SYMBOL        TL0_ONES
  N:0021H         SYMBOL        TL0_TENS
  D:0089H         SYMBOL        TMOD
  B:0088H.4       SYMBOL        TR0
  C:0000H         LINE#         24
  C:0003H         LINE#         25
  C:0006H         LINE#         26
  C:0009H         LINE#         27
  C:000CH         LINE#         28
  C:000EH         LINE#         29
  C:0011H         LINE#         30
  C:0014H         LINE#         31
  C:0016H         LINE#         32
  C:0018H         LINE#         33
  C:001BH         LINE#         34
  C:001CH         LINE#         35
  C:001EH         LINE#         36
  C:0021H         LINE#         37
  C:0023H         LINE#         38
  C:0026H         LINE#         39
  C:0027H         LINE#         40
  C:0029H         LINE#         41
  C:002CH         LINE#         44
  C:002FH         LINE#         46
  C:0031H         LINE#         47
  C:0033H         LINE#         48
BL51 BANKED LINKER/LOCATER V6.22.4.0                                                  10/13/2023  11:18:05  PAGE 3


  C:0035H         LINE#         49
  C:0036H         LINE#         50
  C:0038H         LINE#         51
  C:003AH         LINE#         53
  C:003CH         LINE#         54
  C:003EH         LINE#         55
  C:0040H         LINE#         56
  C:0041H         LINE#         57
  C:0043H         LINE#         58
  C:0045H         LINE#         60
  C:0047H         LINE#         61
  C:0049H         LINE#         62
  C:004BH         LINE#         63
  C:004CH         LINE#         64
  C:004EH         LINE#         65
  C:0050H         LINE#         67
  C:0052H         LINE#         68
  C:0054H         LINE#         69
  C:0056H         LINE#         70
  C:0057H         LINE#         71
  C:0059H         LINE#         72
  C:005BH         LINE#         73
  C:005DH         LINE#         77
  C:005FH         LINE#         79
  C:0061H         LINE#         81
  C:0063H         LINE#         82
  C:0065H         LINE#         83
  C:0067H         LINE#         84
  C:0069H         LINE#         85
  -------         ENDMOD        DEMO_PULSE

*** WARNING L5: CODE SPACE MEMORY OVERLAP
    FROM:    0000H
    TO:      0002H

*** WARNING L1: UNRESOLVED EXTERNAL SYMBOL
    SYMBOL:  ?C_START
    MODULE:  .\Objects\STARTUP.obj (?C_STARTUP)

*** WARNING L2: REFERENCE MADE TO UNRESOLVED EXTERNAL
    SYMBOL:  ?C_START
    MODULE:  .\Objects\STARTUP.obj (?C_STARTUP)
    ADDRESS: 0084H

Program Size: data=9.0 xdata=0 code=137
LINK/LOCATE RUN COMPLETE.  3 WARNING(S),  0 ERROR(S)
