BL51 BANKED LINKER/LOCATER V6.22.4.0                                                    11/24/2023  20:47:27  PAGE 1


BL51 BANKED LINKER/LOCATER V6.22.4.0, INVOKED BY:
D:\KEIL_V5\C51\BIN\BL51.EXE .\Objects\exp5_2.obj TO .\Objects\Project PRINT (.\Listings\Project.m51) RAMSIZE (256)


INPUT MODULES INCLUDED:
  .\Objects\exp5_2.obj (EXP5_2)


LINK MAP OF MODULE:  .\Objects\Project (EXP5_2)


            TYPE    BASE      LENGTH    RELOCATION   SEGMENT NAME
            -----------------------------------------------------

            * * * * * * *   D A T A   M E M O R Y   * * * * * * *
            REG     0000H     0008H     ABSOLUTE     "REG BANK 0"

            * * * * * * *   C O D E   M E M O R Y   * * * * * * *
            CODE    0000H     021AH     ABSOLUTE     



SYMBOL TABLE OF MODULE:  .\Objects\Project (EXP5_2)

  VALUE           TYPE          NAME
  ----------------------------------

  -------         MODULE        EXP5_2
  D:00E0H         SYMBOL        ACC
  D:008EH         SYMBOL        AUXR
  N:FE00H         SYMBOL        CKSEL
  C:0146H         SYMBOL        CLEARLOOP
  N:FE01H         SYMBOL        CLKDIV
  C:0207H         SYMBOL        DELAY1MS
  C:01A9H         SYMBOL        DISPLAYSCAN
  N:0010H         SYMBOL        DISP_BLACK
  D:0038H         SYMBOL        DISP_INDEX
  D:0083H         SYMBOL        DPH
  D:0082H         SYMBOL        DPL
  B:00A8H.7       SYMBOL        EA
  N:FE02H         SYMBOL        HIRCCR
  D:00A8H         SYMBOL        IE
  C:01F3H         SYMBOL        INCSEC
  D:00B8H         SYMBOL        IP
  N:FE04H         SYMBOL        IRC32KCR
  D:009FH         SYMBOL        IRTRIM
  C:0100H         SYMBOL        MAIN
  C:0169H         SYMBOL        MAINLOOP
  C:020FH         SYMBOL        NEXT
  C:0202H         SYMBOL        NEXT1
  D:0030H         SYMBOL        NIXIE8
  D:0094H         SYMBOL        P0M0
  D:0093H         SYMBOL        P0M1
  D:0092H         SYMBOL        P1M0
  D:0091H         SYMBOL        P1M1
  D:0096H         SYMBOL        P2M0
  D:0095H         SYMBOL        P2M1
  D:00B2H         SYMBOL        P3M0
BL51 BANKED LINKER/LOCATER V6.22.4.0                                                  11/24/2023  20:47:27  PAGE 2


  D:00B1H         SYMBOL        P3M1
  D:00C0H         SYMBOL        P4
  D:00B4H         SYMBOL        P4M0
  D:00B3H         SYMBOL        P4M1
  D:00C8H         SYMBOL        P5
  D:00CAH         SYMBOL        P5M0
  D:00C9H         SYMBOL        P5M1
  D:00E8H         SYMBOL        P6
  D:00CCH         SYMBOL        P6M0
  D:00CBH         SYMBOL        P6M1
  D:00F8H         SYMBOL        P7
  D:00E2H         SYMBOL        P7M0
  D:00E1H         SYMBOL        P7M1
  D:00D0H         SYMBOL        PSW
  B:00C0H.3       SYMBOL        P_HC595_RCK
  B:00C0H.2       SYMBOL        P_HC595_SCK
  B:00C0H.4       SYMBOL        P_HC595_SI
  D:00BAH         SYMBOL        P_SW2
  C:01DAH         SYMBOL        QUITDISPLAYSCAN
  D:0039H         SYMBOL        SECOND
  B:00E8H.0       SYMBOL        SEG_A
  B:00E8H.1       SYMBOL        SEG_B
  B:00E8H.2       SYMBOL        SEG_C
  B:00E8H.3       SYMBOL        SEG_D
  B:00E8H.7       SYMBOL        SEG_DP
  B:00E8H.4       SYMBOL        SEG_E
  B:00E8H.5       SYMBOL        SEG_F
  B:00E8H.6       SYMBOL        SEG_G
  C:0199H         SYMBOL        SEND595
  C:019DH         SYMBOL        SEND595LOOP
  D:0081H         SYMBOL        SP
  N:00D0H         SYMBOL        STACK_POINTER
  C:0191H         SYMBOL        TABLECOM
  C:0171H         SYMBOL        TABLEDISPLAY
  D:008CH         SYMBOL        TH0
  D:008AH         SYMBOL        TL0
  C:01E1H         SYMBOL        TM0ISR
  D:0089H         SYMBOL        TMOD
  B:0088H.4       SYMBOL        TR0
  N:FE03H         SYMBOL        XOSCCR
  C:0000H         LINE#         60
  C:000BH         LINE#         62
  C:0100H         LINE#         65
  C:0101H         LINE#         66
  C:0103H         LINE#         67
  C:0105H         LINE#         68
  C:0107H         LINE#         69
  C:0109H         LINE#         70
  C:010BH         LINE#         71
  C:010DH         LINE#         72
  C:010FH         LINE#         73
  C:0111H         LINE#         74
  C:0113H         LINE#         75
  C:0116H         LINE#         76
  C:0118H         LINE#         77
  C:011AH         LINE#         78
  C:011CH         LINE#         79
BL51 BANKED LINKER/LOCATER V6.22.4.0                                                  11/24/2023  20:47:27  PAGE 3


  C:011EH         LINE#         80
  C:0120H         LINE#         81
  C:0122H         LINE#         82
  C:0125H         LINE#         83
  C:0128H         LINE#         84
  C:012AH         LINE#         86
  C:012DH         LINE#         88
  C:012FH         LINE#         89
  C:0132H         LINE#         90
  C:0133H         LINE#         92
  C:0135H         LINE#         93
  C:0138H         LINE#         94
  C:0139H         LINE#         95
  C:013CH         LINE#         96
  C:013FH         LINE#         99
  C:0142H         LINE#         100
  C:0144H         LINE#         101
  C:0146H         LINE#         103
  C:0148H         LINE#         104
  C:0149H         LINE#         105
  C:014BH         LINE#         106
  C:014EH         LINE#         107
  C:0151H         LINE#         108
  C:0154H         LINE#         110
  C:0157H         LINE#         111
  C:015AH         LINE#         112
  C:015DH         LINE#         114
  C:0160H         LINE#         115
  C:0163H         LINE#         116
  C:0165H         LINE#         117
  C:0167H         LINE#         118
  C:0169H         LINE#         122
  C:016CH         LINE#         123
  C:016FH         LINE#         124
  C:0199H         LINE#         137
  C:019BH         LINE#         138
  C:019DH         LINE#         140
  C:019EH         LINE#         141
  C:01A0H         LINE#         142
  C:01A2H         LINE#         143
  C:01A4H         LINE#         144
  C:01A6H         LINE#         145
  C:01A8H         LINE#         146
  C:01A9H         LINE#         150
  C:01ABH         LINE#         151
  C:01ADH         LINE#         152
  C:01AFH         LINE#         153
  C:01B0H         LINE#         154
  C:01B3H         LINE#         155
  C:01B6H         LINE#         156
  C:01B8H         LINE#         157
  C:01B9H         LINE#         158
  C:01BAH         LINE#         159
  C:01BDH         LINE#         160
  C:01BEH         LINE#         161
  C:01C0H         LINE#         162
  C:01C2H         LINE#         163
BL51 BANKED LINKER/LOCATER V6.22.4.0                                                  11/24/2023  20:47:27  PAGE 4


  C:01C5H         LINE#         164
  C:01C7H         LINE#         165
  C:01C9H         LINE#         166
  C:01CAH         LINE#         167
  C:01CBH         LINE#         168
  C:01CCH         LINE#         169
  C:01CDH         LINE#         170
  C:01CFH         LINE#         171
  C:01D1H         LINE#         172
  C:01D3H         LINE#         173
  C:01D5H         LINE#         174
  C:01D7H         LINE#         175
  C:01DAH         LINE#         177
  C:01DCH         LINE#         178
  C:01DEH         LINE#         179
  C:01E0H         LINE#         180
  C:01E1H         LINE#         184
  C:01E3H         LINE#         185
  C:01E5H         LINE#         187
  C:01E7H         LINE#         188
  C:01E9H         LINE#         189
  C:01EBH         LINE#         190
  C:01EDH         LINE#         191
  C:01EEH         LINE#         192
  C:01F1H         LINE#         193
  C:01F3H         LINE#         195
  C:01F5H         LINE#         197
  C:01F7H         LINE#         198
  C:01F9H         LINE#         199
  C:01FBH         LINE#         200
  C:01FDH         LINE#         201
  C:01FFH         LINE#         202
  C:0200H         LINE#         203
  C:0202H         LINE#         206
  C:0204H         LINE#         207
  C:0206H         LINE#         208
  C:0207H         LINE#         211
  C:0209H         LINE#         212
  C:020BH         LINE#         213
  C:020DH         LINE#         214
  C:020FH         LINE#         215
  C:0211H         LINE#         216
  C:0213H         LINE#         217
  C:0214H         LINE#         218
  C:0215H         LINE#         219
  C:0217H         LINE#         220
  C:0219H         LINE#         221
  -------         ENDMOD        EXP5_2

Program Size: data=8.0 xdata=0 code=538
LINK/LOCATE RUN COMPLETE.  0 WARNING(S),  0 ERROR(S)
