BL51 BANKED LINKER/LOCATER V6.22.4.0                                                    08/26/2023  08:03:48  PAGE 1


BL51 BANKED LINKER/LOCATER V6.22.4.0, INVOKED BY:
D:\KEIL_V5\C51\BIN\BL51.EXE .\Objects\STARTUP.obj, .\Objects\demo1A.obj TO .\Objects\Project PRINT (.\Listings\Project.m
>> 51) RAMSIZE (256)


INPUT MODULES INCLUDED:
  .\Objects\STARTUP.obj (?C_STARTUP)
  .\Objects\demo1A.obj (DEMO1A)


LINK MAP OF MODULE:  .\Objects\Project (?C_STARTUP)


            TYPE    BASE      LENGTH    RELOCATION   SEGMENT NAME
            -----------------------------------------------------

            * * * * * * *   D A T A   M E M O R Y   * * * * * * *
            REG     0000H     0008H     ABSOLUTE     "REG BANK 0"
            IDATA   0008H     0001H     UNIT         ?STACK

            * * * * * * *   C O D E   M E M O R Y   * * * * * * *
            CODE    0000H     0003H     ABSOLUTE     
* OVERLAP * CODE    0000H     0041H     ABSOLUTE     
            CODE    0041H     000CH     UNIT         ?C_C51STARTUP



UNRESOLVED EXTERNAL SYMBOLS:
   ?C_START



SYMBOL TABLE OF MODULE:  .\Objects\Project (?C_STARTUP)

  VALUE           TYPE          NAME
  ----------------------------------

  -------         MODULE        ?C_STARTUP
  C:0041H         SEGMENT       ?C_C51STARTUP
  I:0008H         SEGMENT       ?STACK
  C:0000H         PUBLIC        ?C_STARTUP
  D:00E0H         SYMBOL        ACC
  D:00F0H         SYMBOL        B
  D:0083H         SYMBOL        DPH
  D:0082H         SYMBOL        DPL
  N:0000H         SYMBOL        IBPSTACK
  N:0100H         SYMBOL        IBPSTACKTOP
  N:0080H         SYMBOL        IDATALEN
  C:0044H         SYMBOL        IDATALOOP
  N:0000H         SYMBOL        PBPSTACK
  N:0100H         SYMBOL        PBPSTACKTOP
  N:0000H         SYMBOL        PDATALEN
  N:0000H         SYMBOL        PDATASTART
  N:0000H         SYMBOL        PPAGE
  N:0000H         SYMBOL        PPAGEENABLE
  D:00A0H         SYMBOL        PPAGE_SFR
  D:0081H         SYMBOL        SP
  C:0041H         SYMBOL        STARTUP1
BL51 BANKED LINKER/LOCATER V6.22.4.0                                                  08/26/2023  08:03:48  PAGE 2


  N:0000H         SYMBOL        XBPSTACK
  N:0000H         SYMBOL        XBPSTACKTOP
  N:0000H         SYMBOL        XDATALEN
  N:0000H         SYMBOL        XDATASTART
  C:0000H         LINE#         126
  C:0041H         LINE#         133
  C:0043H         LINE#         134
  C:0044H         LINE#         135
  C:0045H         LINE#         136
  C:0047H         LINE#         185
  C:004AH         LINE#         196
  -------         ENDMOD        ?C_STARTUP

  -------         MODULE        DEMO1A
  D:00E0H         SYMBOL        ACC
  C:003AH         SYMBOL        D1
  C:0038H         SYMBOL        DELAY
  D:00A8H         SYMBOL        IE
  C:001EH         SYMBOL        INTLOOP0
  C:0022H         SYMBOL        INTLOOP1
  C:002DH         SYMBOL        INTLOOP2
  C:0016H         SYMBOL        INT_0
  B:0088H.0       SYMBOL        IT0
  C:000FH         SYMBOL        LOOP
  D:00A0H         SYMBOL        P2
  D:00D0H         SYMBOL        PSW
  B:00D0H.3       SYMBOL        RS0
  D:0081H         SYMBOL        SP
  C:0005H         SYMBOL        START
  C:0000H         LINE#         15
  C:0003H         LINE#         17
  C:0005H         LINE#         20
  C:0008H         LINE#         21
  C:000BH         LINE#         22
  C:000DH         LINE#         23
  C:000FH         LINE#         26
  C:0011H         LINE#         27
  C:0013H         LINE#         28
  C:0014H         LINE#         29
  C:0016H         LINE#         33
  C:0018H         LINE#         34
  C:001AH         LINE#         35
  C:001CH         LINE#         37
  C:001EH         LINE#         41
  C:0020H         LINE#         42
  C:0022H         LINE#         44
  C:0024H         LINE#         45
  C:0026H         LINE#         46
  C:0027H         LINE#         47
  C:0029H         LINE#         51
  C:002BH         LINE#         52
  C:002DH         LINE#         54
  C:002FH         LINE#         55
  C:0031H         LINE#         56
  C:0032H         LINE#         57
  C:0034H         LINE#         60
  C:0036H         LINE#         63
BL51 BANKED LINKER/LOCATER V6.22.4.0                                                  08/26/2023  08:03:48  PAGE 3


  C:0038H         LINE#         66
  C:003AH         LINE#         68
  C:003CH         LINE#         69
  C:003EH         LINE#         70
  C:0040H         LINE#         71
  -------         ENDMOD        DEMO1A

*** WARNING L5: CODE SPACE MEMORY OVERLAP
    FROM:    0000H
    TO:      0002H

*** WARNING L1: UNRESOLVED EXTERNAL SYMBOL
    SYMBOL:  ?C_START
    MODULE:  .\Objects\STARTUP.obj (?C_STARTUP)

*** WARNING L2: REFERENCE MADE TO UNRESOLVED EXTERNAL
    SYMBOL:  ?C_START
    MODULE:  .\Objects\STARTUP.obj (?C_STARTUP)
    ADDRESS: 004BH

Program Size: data=9.0 xdata=0 code=80
LINK/LOCATE RUN COMPLETE.  3 WARNING(S),  0 ERROR(S)
