BL51 BANKED LINKER/LOCATER V6.22.4.0                                                    11/17/2023  15:33:56  PAGE 1


BL51 BANKED LINKER/LOCATER V6.22.4.0, INVOKED BY:
D:\KEIL_V5\C51\BIN\BL51.EXE .\Objects\exp3_2.obj TO .\Objects\Project PRINT (.\Listings\Project.m51) RAMSIZE (256)


INPUT MODULES INCLUDED:
  .\Objects\exp3_2.obj (EXP3_2)


LINK MAP OF MODULE:  .\Objects\Project (EXP3_2)


            TYPE    BASE      LENGTH    RELOCATION   SEGMENT NAME
            -----------------------------------------------------

            * * * * * * *   D A T A   M E M O R Y   * * * * * * *
            REG     0000H     0008H     ABSOLUTE     "REG BANK 0"

            * * * * * * *   C O D E   M E M O R Y   * * * * * * *
            CODE    0000H     017AH     ABSOLUTE     



SYMBOL TABLE OF MODULE:  .\Objects\Project (EXP3_2)

  VALUE           TYPE          NAME
  ----------------------------------

  -------         MODULE        EXP3_2
  C:0159H         SYMBOL        DELAY500MS
  C:0139H         SYMBOL        DISP
  C:0129H         SYMBOL        HC595SENDBYTE
  C:012DH         SYMBOL        HC595SENDLOOP
  B:00C0H.3       SYMBOL        HC595_RCK
  B:00C0H.2       SYMBOL        HC595_SCK
  B:00C0H.4       SYMBOL        HC595_SI
  C:0157H         SYMBOL        INCREASE
  C:0100H         SYMBOL        MAIN
  C:0110H         SYMBOL        MAINLOOP
  C:016AH         SYMBOL        NEXT
  D:00C0H         SYMBOL        P4
  D:00B4H         SYMBOL        P4M0
  D:00B3H         SYMBOL        P4M1
  D:00E8H         SYMBOL        P6
  D:00CCH         SYMBOL        P6M0
  D:00CBH         SYMBOL        P6M1
  C:0158H         SYMBOL        RENEW
  C:0119H         SYMBOL        SEGTABLE
  C:0000H         LINE#         24
  C:0100H         LINE#         28
  C:0103H         LINE#         29
  C:0106H         LINE#         31
  C:0109H         LINE#         32
  C:010CH         LINE#         33
  C:010EH         LINE#         34
  C:0110H         LINE#         36
  C:0113H         LINE#         37
  C:0116H         LINE#         38
  C:0129H         LINE#         48
BL51 BANKED LINKER/LOCATER V6.22.4.0                                                  11/17/2023  15:33:56  PAGE 2


  C:012BH         LINE#         49
  C:012DH         LINE#         51
  C:012EH         LINE#         52
  C:0130H         LINE#         53
  C:0132H         LINE#         54
  C:0134H         LINE#         55
  C:0136H         LINE#         56
  C:0138H         LINE#         57
  C:0139H         LINE#         63
  C:013BH         LINE#         64
  C:013EH         LINE#         65
  C:0140H         LINE#         66
  C:0143H         LINE#         67
  C:0144H         LINE#         68
  C:0146H         LINE#         69
  C:0147H         LINE#         70
  C:0149H         LINE#         71
  C:014CH         LINE#         72
  C:014DH         LINE#         73
  C:014EH         LINE#         74
  C:0150H         LINE#         75
  C:0153H         LINE#         76
  C:0155H         LINE#         77
  C:0157H         LINE#         79
  C:0158H         LINE#         81
  C:0159H         LINE#         87
  C:015AH         LINE#         88
  C:015BH         LINE#         89
  C:015DH         LINE#         90
  C:015FH         LINE#         91
  C:0161H         LINE#         92
  C:0164H         LINE#         93
  C:0167H         LINE#         94
  C:016AH         LINE#         96
  C:016DH         LINE#         97
  C:0170H         LINE#         98
  C:0173H         LINE#         99
  C:0175H         LINE#         100
  C:0177H         LINE#         101
  C:0179H         LINE#         102
  -------         ENDMOD        EXP3_2

Program Size: data=8.0 xdata=0 code=378
LINK/LOCATE RUN COMPLETE.  0 WARNING(S),  0 ERROR(S)
