:0A00C0000808007C8282827C0000A8
:0B00B500EF1FAC0670011E4C70F6221D
:0900CB00C2B5D2B5C2B6D2B6220C
:10008F00E4FDD2B41200CBC2B4E4FD7580FF1200C0
:10009F00CB74082DF8E6F4F5807F017E001200B5D1
:0600AF000DBD08E780DC36
:03000000020003F8
:0C000300787FE4F6D8FD75810F02004AFA
:10000F0002008FE493A3F8E493A34003F68001F278
:10001F0008DFF48029E493A3F85407240CC8C333F2
:10002F00C4540F4420C8834004F456800146F6DFC1
:10003F00E4800B01020408102040809000C0E47E91
:10004F00019360BCA3FF543F30E509541FFEE493B6
:10005F00A360010ECF54C025E060A840B8E493A37D
:10006F00FAE493A3F8E493A3C8C582C8CAC583CAA8
:10007F00F0A3C8C582C8CAC583CADFE9DEE780BE60
:0100CA000035
:00000001FF
