:03000000020100FA
:1001000075B40175B30075CCFF75CB0075E2007551
:10011000E10075818012027DC2C07F0075420085BA
:1001200042E812015DBF000302011FBF0F1575E811
:10013000551202B175E8AA1202B112015DBF10EEAC
:10014000020146BF10147542008542E805421202C2
:10015000B112015DBF0FF202012E02011F7F007577
:10016000F8FFC2FB30FC0C30FD1530FE1E30FF27BF
:100170000201A312029130FCFD1202917F012212B2
:10018000029130FDFD1202917F052212029130FE94
:10019000FD1202917F092212029130FFFD1202919D
:1001A0007F0D2275F8FFC2FA30FC0C30FD1530FED1
:1001B0001E30FF270201E712029130FCFD1202916E
:1001C0007F022212029130FDFD1202917F0622125F
:1001D000029130FEFD1202917F0A2212029130FF3D
:1001E000FD1202917F0E2275F8FFC2F930FC0C302F
:1001F000FD1530FE1E30FF2702022B12029130FC4B
:10020000FD1202917F032212029130FDFD12029134
:100210007F072212029130FEFD1202917F0B221203
:10022000029130FFFD1202917F0F2275F8FFC2F894
:1002300030FC0A30FD1330FE1C30FF2522120291E3
:1002400030FCFD1202917F042212029130FDFD125A
:1002500002917F082212029130FEFD1202917F0C62
:100260002212029130FFFD1202917F1022C0027A09
:0C027000083392C4D2C2C2C2DAF7D00236
:10027C0022C0E0E412026DE412026DC2C300D2C3CC
:10028C00C2C3D0E02200C030C031C032753003751B
:10029C003170753259D532FDD531FAD530F7D032AF
:1002AC00D031D030220000C030C031C03275303D6A
:1002BC007531E175323CD532FDD531FAD530F7D0F8
:0602CC0032D031D03022D7
:00000001FF
