:0402B7004D4355005E
:100097001202747B417D017F011202AD7BFF7A0260
:1000A70079B77D037F011201EB750C037B017A00A1
:1000B7007D077F0112022C750C027BBE7AFF7D0B38
:1000C7007F0112010D750C027BA87A007D017F026A
:1000D700120147750C087BAA7A007D047F02120182
:1000E700807513007514020514E514700205137F5B
:1000F700E87E0312025F750C03AB14AA137D0D7F14
:060107000212022C80E14F
:06028800C2A58F80D2A781
:08028E007F027EEFDEFEDFFCC3
:010296002245
:0A02A300C2A6120288C2A702028E52
:10020E00CFCDCFCECCCE1200427C007D0A12004262
:04021E00ED2430FF9C
:0A022200D2A6120288C2A702028EC3
:10024900AE07BE0104ED148006BE0209ED243F4449
:0602590080FF1202A32247
:100274007F381202A37F0C1202A37F061202A37F0F
:04028400010202A3CE
:0A02AD00AC03120249AF0402022262
:0601EB008B088A09890A55
:1001F100120249E4FDAB08AA09A90A8D82758300A0
:0C020100120003FF60061202220D80E9CB
:01020D0022CE
:0C01B8007F0AEA24FFFDE434FFFC7E0017
:0801C4008E0F8F108C118D12BB
:1001CC007F017E00E4FBEBC39512E5116480F874AB
:0E01DC008098500AAC0FAD101200300B80E876
:0101EA0022F2
:04022C008A0A8B0BA4
:10023000120249AA0CEAD39400400D1201B8AC0A8C
:08024000AD0B12020E1A80ED55
:010248002293
:10010D00120249C3EA64809480400B7F2B120222B5
:10011D008A0D8B0E800E7F2D120222C3E49BF50EED
:10012D00E49AF50DAA0CEAD39400400D1201B8AC77
:09013D000DAD0E12020E1A80ED48
:010146002296
:040147008A0A8B0B8A
:10014B00120249AA0CEAD3940040297F101201BA7B
:10015B00AC0AAD0BCFCDCFCECCCE120042EF540FAD
:10016B00FEC3940AEE5004243080022437FF12029F
:04017B00221A80D1F3
:01017F00225D
:040180008A0A8B0B51
:10018400120249AA0CEAD394004028EA24FFFDE4B1
:1001940034FFFC7F027E001201C4AC0AAD0BCFCD4C
:1001A400CFCECCCE120042EF54012430FF120222F3
:0301B4001A80D2DC
:0101B7002225
:10025F00EF1FAC0670011E4C600A7D027CEFDCFEC6
:04026F00DDFC80EC46
:010273002268
:0300000002029762
:0C029700787FE4F6D8FD75811402009712
:10000300BB010CE58229F582E5833AF583E02250B2
:1000130006E92582F8E622BBFE06E92582F8E222FC
:0D002300E58229F582E5833AF583E4932216
:10003000EF8DF0A4A8F0CF8CF0A428CE8DF0A42EE4
:02004000FE229E
:10004200BC000BBE0029EF8DF084FFADF022E4CCA2
:10005200F875F008EF2FFFEE33FEEC33FCEE9DEC6B
:10006200984005FCEE9DFE0FD5F0E9E4CEFD22EDB1
:10007200F8F5F0EE8420D21CFEADF075F008EF2FFB
:10008200FFED33FD4007985006D5F0F222C398FDEC
:050092000FD5F0EA2289
:00000001FF
