:1000D0000810007C8282827C000008087FBFDFEF6E
:0400E000F7FBFDFE2F
:0400E5007F017E0019
:0B00E900EF1FAC0670011E4C70F622E9
:02008F00AD07BB
:10009100E4FBEDC4131313540124FF92B4ED25E0E6
:1000A100FDC2B61200E5D2B61200E50BBB08E3C2F1
:0600B100B51200E5D2B516
:0100B7002226
:1000B800E4FA850980AF1112008F1200E5E4FF12FF
:0800C800008F0ABA08EC80E881
:03000000020003F8
:0C000300787FE4F6D8FD75811702004AF2
:10000F000200B8E493A3F8E493A34003F68001F24F
:10001F0008DFF48029E493A3F85407240CC8C333F2
:10002F00C4540F4420C8834004F456800146F6DFC1
:10003F00E4800B01020408102040809000D0E47E81
:10004F00019360BCA3FF543F30E509541FFEE493B6
:10005F00A360010ECF54C025E060A840B8E493A37D
:10006F00FAE493A3F8E493A3C8C582C8CAC583CAA8
:10007F00F0A3C8C582C8CAC583CADFE9DEE780BE60
:0100E400001B
:00000001FF
