:03000000020100FA
:030003000201C136
:030013000201CD1A
:1001000075B30075B40175CB0075CCFF7581807532
:10011000380078307A08D2C0761008DAFBC28BC279
:1001200089D2AAD2A8D288D28AD2AF1201D912011A
:100130005D02012B8040201008040201C0F9A4B028
:10014000999282F880908883C6A1868EFFC0027A39
:10015000083392C4D2C2C2C2DAF7D00222C083C02E
:1001600082C000740012014D900134E538931201F1
:100170004DC2C300D2C300C2C390013CE538243055
:10018000F8E693F5E80538E53854F8602D75380041
:10019000E53975F06484F530740AC5F084F531856D
:1001A000F032753310753410E53A75F06484F53526
:1001B000740AC5F084F53685F037D000D082D0833C
:1001C000221201EF12015D30B2F70539321201EF50
:1001D00012015D30B3F7053A3200C030C0317530DE
:1001E0003F753152D531FDD530FAD031D0302200B3
:1001F000C030C031C032753003753170753259D599
:0F02000032FDD531FAD530F7D032D031D030229F
:00000001FF
