:10025A0048656C6C6F0057656C636F6D6520746FD1
:0B026A00204E657720596F726B210059
:1000970012028A7B417D017F011202D37BFF7A0224
:1000A700795A7D037F011201FC750C027B427A00AD
:1000B7007D097F0112023D750C027BA87AFF7D0C3A
:1000C7007F0112011E750C027BA57A007D017F025C
:1000D700120158750C087BA57A007D047F02120176
:1000E700917BDF7D0D7F021202D37B437D0E7F0262
:1000F7001202D37BE07D107F021202D37BFF7A02CC
:1001070079607D107F011201FC7F181202C97FF40C
:070117007E0112027580F267
:0602AE00C2A58F80D2A75B
:0802B4007F027EEFDEFEDFFC9D
:0102BC00221F
:0A02C900C2A61202AEC2A70202B4E0
:10021F00CFCDCFCECCCE1200427C007D0A12004251
:04022F00ED2430FF8B
:0A023300D2A61202AEC2A70202B466
:10028A007F381202C97F0C1202C97F061202C97F87
:04029A00010202C992
:10029E00EDBF0103148002243F4480FF1202C922E5
:0A02D300AC0312029EAF04020233D6
:0601FC008B088A09890A44
:1002020012029EE4FDAB08AA09A90A8D8275830039
:0C021200120003FF60061202330D80E9A9
:01021E0022BD
:0C01C9007F0AEA24FFFDE434FFFC7E0006
:0801D5008E0F8F108C118D12AA
:1001DD007F017E00E4FBEBC39512E5116480F8749A
:0E01ED008098500AAC0FAD101200300B80E865
:0101FB0022E1
:04023D008A0A8B0B93
:1002410012029EAA0CEAD39400400D1201C9AC0A15
:08025100AD0B12021F1A80ED33
:010259002282
:10011E0012029EC3EA64809480400B7F2B1202333E
:10012E008A0D8B0E800E7F2D120233C3E49BF50ECB
:10013E00E49AF50DAA0CEAD39400400D1201C9AC55
:09014E000DAD0E12021F1A80ED26
:010157002285
:040158008A0A8B0B79
:10015C0012029EAA0CEAD3940040297F101201CB04
:10016C00AC0AAD0BCFCDCFCECCCE120042EF540F9C
:10017C00FEC3940AEE5004243080022437FF12028E
:04018C00331A80D1D1
:01019000224C
:040191008A0A8B0B40
:1001950012029EAA0CEAD394004028EA24FFFDE44B
:1001A50034FFFC7F027E001201D5AC0AAD0BCFCD2A
:1001B500CFCECCCE120042EF54012430FF120233D1
:0301C5001A80D2CB
:0101C8002214
:10027500EF1FAC0670011E4C600A7D027CEFDCFEB0
:04028500DDFC80EC30
:010289002252
:030000000202BD3C
:0C02BD00787FE4F6D8FD758112020097EE
:10000300BB010CE58229F582E5833AF583E02250B2
:1000130006E92582F8E622BBFE06E92582F8E222FC
:0D002300E58229F582E5833AF583E4932216
:10003000EF8DF0A4A8F0CF8CF0A428CE8DF0A42EE4
:02004000FE229E
:10004200BC000BBE0029EF8DF084FFADF022E4CCA2
:10005200F875F008EF2FFFEE33FEEC33FCEE9DEC6B
:10006200984005FCEE9DFE0FD5F0E9E4CEFD22EDB1
:10007200F8F5F0EE8420D21CFEADF075F008EF2FFB
:10008200FFED33FD4007985006D5F0F222C398FDEC
:050092000FD5F0EA2289
:00000001FF
