BL51 BANKED LINKER/LOCATER V6.22                                                        01/16/2023  22:02:43  PAGE 1


BL51 BANKED LINKER/LOCATER V6.22, INVOKED BY:
D:\KEIL_V5\C51\BIN\BL51.EXE .\Objects\main.obj, .\Objects\LCD1602.obj, .\Objects\Delay.obj, .\Objects\Key.obj, .\Objects
>> \AT24C02.obj, .\Objects\I2C.obj TO .\Objects\Project PRINT (.\Listings\Project.m51) RAMSIZE (256) DISABLEWARNING (16)
>> 


MEMORY MODEL: SMALL


INPUT MODULES INCLUDED:
  .\Objects\main.obj (MAIN)
  .\Objects\LCD1602.obj (LCD1602)
  .\Objects\Delay.obj (DELAY)
  .\Objects\Key.obj (KEY)
  .\Objects\AT24C02.obj (AT24C02)
  .\Objects\I2C.obj (I2C)
  D:\KEIL_V5\C51\LIB\C51S.LIB (?C_STARTUP)
  D:\KEIL_V5\C51\LIB\C51S.LIB (?C?CLDOPTR)
  D:\KEIL_V5\C51\LIB\C51S.LIB (?C?IMUL)
  D:\KEIL_V5\C51\LIB\C51S.LIB (?C?UIDIV)


LINK MAP OF MODULE:  .\Objects\Project (MAIN)


            TYPE    BASE      LENGTH    RELOCATION   SEGMENT NAME
            -----------------------------------------------------

            * * * * * * *   D A T A   M E M O R Y   * * * * * * *
            REG     0000H     0008H     ABSOLUTE     "REG BANK 0"
            DATA    0008H     0009H     UNIT         _DATA_GROUP_
            DATA    0011H     0007H     UNIT         ?DT?_LCD_SHOWSIGNEDNUM?LCD1602
            DATA    0018H     0005H     UNIT         ?DT?_LCD_SHOWHEXNUM?LCD1602
            DATA    001DH     0003H     UNIT         ?DT?MAIN
            BIT     0020H.0   0000H.1   UNIT         _BIT_GROUP_
                    0020H.1   0000H.7                *** GAP ***
            DATA    0021H     0005H     UNIT         ?DT?_LCD_SHOWBINNUM?LCD1602
            IDATA   0026H     0001H     UNIT         ?STACK

            * * * * * * *   C O D E   M E M O R Y   * * * * * * *
            CODE    0000H     0003H     ABSOLUTE     
            CODE    0003H     00DFH     UNIT         ?PR?MAIN?MAIN
            CODE    00E2H     0094H     UNIT         ?C?LIB_CODE
            CODE    0176H     0061H     UNIT         ?PR?KEY?KEY
            CODE    01D7H     003AH     UNIT         ?PR?_LCD_SHOWSIGNEDNUM?LCD1602
            CODE    0211H     0039H     UNIT         ?PR?_LCD_SHOWHEXNUM?LCD1602
            CODE    024AH     0038H     UNIT         ?PR?_LCD_SHOWBINNUM?LCD1602
            CODE    0282H     0036H     UNIT         ?CO?MAIN
            CODE    02B8H     0033H     UNIT         ?PR?_LCD_POW?LCD1602
            CODE    02EBH     0030H     UNIT         ?PR?_AT24C02_READBYTE?AT24C02
            CODE    031BH     0029H     UNIT         ?PR?_I2C_SENDBYTE?I2C
            CODE    0344H     0024H     UNIT         ?PR?_AT24C02_WRITEBYTE?AT24C02
            CODE    0368H     0023H     UNIT         ?PR?_LCD_SHOWSTRING?LCD1602
            CODE    038BH     001EH     UNIT         ?PR?_LCD_WRITEDATA?LCD1602
            CODE    03A9H     001EH     UNIT         ?PR?I2C_RECEIVEBYTE?I2C
            CODE    03C7H     001DH     UNIT         ?PR?_LCD_SHOWNUM?LCD1602
            CODE    03E4H     0016H     UNIT         ?PR?_LCD_SETCURSOR?LCD1602
            CODE    03FAH     0015H     UNIT         ?PR?_DELAY?DELAY
BL51 BANKED LINKER/LOCATER V6.22                                                      01/16/2023  22:02:43  PAGE 2


            CODE    040FH     0014H     UNIT         ?PR?LCD_INIT?LCD1602
            CODE    0423H     000FH     UNIT         ?PR?LCD_DELAY?LCD1602
            CODE    0432H     000CH     UNIT         ?PR?I2C_RECEIVEACK?I2C
            CODE    043EH     000CH     UNIT         ?C_C51STARTUP
            CODE    044AH     000AH     UNIT         ?PR?_LCD_WRITECOMMAND?LCD1602
            CODE    0454H     000AH     UNIT         ?PR?_LCD_SHOWCHAR?LCD1602
            CODE    045EH     0009H     UNIT         ?PR?I2C_START?I2C
            CODE    0467H     0009H     UNIT         ?PR?I2C_SENDACK?I2C
            CODE    0470H     0007H     UNIT         ?PR?I2C_STOP?I2C



OVERLAY MAP OF MODULE:   .\Objects\Project (MAIN)


SEGMENT                                   BIT_GROUP          DATA_GROUP 
  +--> CALLED SEGMENT                  START    LENGTH     START    LENGTH
--------------------------------------------------------------------------
?C_C51STARTUP                          -----    -----      -----    -----
  +--> ?PR?MAIN?MAIN

?PR?MAIN?MAIN                          -----    -----      -----    -----
  +--> ?PR?LCD_INIT?LCD1602
  +--> ?PR?_LCD_SHOWNUM?LCD1602
  +--> ?PR?KEY?KEY
  +--> ?PR?_AT24C02_WRITEBYTE?AT24C02
  +--> ?PR?_DELAY?DELAY
  +--> ?CO?MAIN
  +--> ?PR?_LCD_SHOWSTRING?LCD1602
  +--> ?PR?_AT24C02_READBYTE?AT24C02

?PR?LCD_INIT?LCD1602                   -----    -----      -----    -----
  +--> ?PR?_LCD_WRITECOMMAND?LCD1602

?PR?_LCD_WRITECOMMAND?LCD1602          -----    -----      -----    -----
  +--> ?PR?LCD_DELAY?LCD1602

?PR?_LCD_SHOWNUM?LCD1602               -----    -----      0008H    0005H
  +--> ?PR?_LCD_SETCURSOR?LCD1602
  +--> ?PR?_LCD_POW?LCD1602
  +--> ?PR?_LCD_WRITEDATA?LCD1602

?PR?_LCD_SETCURSOR?LCD1602             -----    -----      -----    -----
  +--> ?PR?_LCD_WRITECOMMAND?LCD1602

?PR?_LCD_POW?LCD1602                   -----    -----      000DH    0004H

?PR?_LCD_WRITEDATA?LCD1602             -----    -----      -----    -----
  +--> ?PR?LCD_DELAY?LCD1602

?PR?KEY?KEY                            -----    -----      0008H    0001H
  +--> ?PR?_DELAY?DELAY

?PR?_AT24C02_WRITEBYTE?AT24C02         -----    -----      0008H    0003H
  +--> ?PR?I2C_START?I2C
  +--> ?PR?_I2C_SENDBYTE?I2C
  +--> ?PR?I2C_RECEIVEACK?I2C
BL51 BANKED LINKER/LOCATER V6.22                                                      01/16/2023  22:02:43  PAGE 3


  +--> ?PR?I2C_STOP?I2C

?PR?_LCD_SHOWSTRING?LCD1602            -----    -----      0008H    0003H
  +--> ?PR?_LCD_SETCURSOR?LCD1602
  +--> ?PR?_LCD_WRITEDATA?LCD1602

?PR?_AT24C02_READBYTE?AT24C02          -----    -----      0008H    0002H
  +--> ?PR?I2C_START?I2C
  +--> ?PR?_I2C_SENDBYTE?I2C
  +--> ?PR?I2C_RECEIVEACK?I2C
  +--> ?PR?I2C_RECEIVEBYTE?I2C
  +--> ?PR?I2C_SENDACK?I2C
  +--> ?PR?I2C_STOP?I2C

?PR?I2C_SENDACK?I2C                    0020H.0  0000H.1    -----    -----



SYMBOL TABLE OF MODULE:  .\Objects\Project (MAIN)

  VALUE           TYPE          NAME
  ----------------------------------

  -------         MODULE        MAIN
  C:0000H         SYMBOL        _ICE_DUMMY_
  C:0003H         PUBLIC        main
  D:001DH         PUBLIC        num
  D:001FH         PUBLIC        keyNum
  -------         PROC          MAIN
  C:0003H         LINE#         10
  C:0003H         LINE#         11
  C:0003H         LINE#         12
  C:0006H         LINE#         23
  C:0014H         LINE#         24
  C:0014H         LINE#         25
  C:0014H         LINE#         26
  C:0019H         LINE#         27
  C:001EH         LINE#         28
  C:001EH         LINE#         29
  C:0026H         LINE#         30
  C:0033H         LINE#         31
  C:0033H         LINE#         32
  C:0038H         LINE#         33
  C:0038H         LINE#         34
  C:0040H         LINE#         35
  C:004EH         LINE#         36
  C:004EH         LINE#         37
  C:0054H         LINE#         38
  C:0054H         LINE#         39
  C:005BH         LINE#         40
  C:0062H         LINE#         41
  C:006CH         LINE#         42
  C:0073H         LINE#         43
  C:0080H         LINE#         44
  C:0087H         LINE#         45
  C:0094H         LINE#         46
  C:0094H         LINE#         47
BL51 BANKED LINKER/LOCATER V6.22                                                      01/16/2023  22:02:43  PAGE 4


  C:009DH         LINE#         48
  C:009DH         LINE#         49
  C:00A6H         LINE#         50
  C:00B0H         LINE#         51
  C:00BEH         LINE#         52
  C:00CBH         LINE#         53
  C:00D2H         LINE#         54
  C:00DFH         LINE#         55
  C:00DFH         LINE#         56
  -------         ENDPROC       MAIN
  -------         ENDMOD        MAIN

  -------         MODULE        LCD1602
  C:0000H         SYMBOL        _ICE_DUMMY_
  D:0080H         PUBLIC        P0
  D:00A0H         PUBLIC        P2
  C:044AH         PUBLIC        _LCD_WriteCommand
  C:03C7H         PUBLIC        _LCD_ShowNum
  C:024AH         PUBLIC        _LCD_ShowBinNum
  C:0429H         PUBLIC        LCD_Delay
  C:0211H         PUBLIC        _LCD_ShowHexNum
  C:039FH         PUBLIC        _LCD_WriteData
  B:00A0H.7       PUBLIC        LCD_EN
  C:040FH         PUBLIC        LCD_Init
  C:0368H         PUBLIC        _LCD_ShowString
  C:0454H         PUBLIC        _LCD_ShowChar
  B:00A0H.6       PUBLIC        LCD_RS
  B:00A0H.5       PUBLIC        LCD_RW
  C:03E4H         PUBLIC        _LCD_SetCursor
  C:01D7H         PUBLIC        _LCD_ShowSignedNum
  C:02C4H         PUBLIC        _LCD_Pow
  -------         PROC          L?0048
  -------         ENDPROC       L?0048
  -------         PROC          LCD_DELAY
  -------         DO            
  D:0007H         SYMBOL        i
  D:0006H         SYMBOL        j
  -------         ENDDO         
  C:0429H         LINE#         15
  C:0429H         LINE#         17
  C:042BH         LINE#         18
  C:042DH         LINE#         19
  C:042DH         LINE#         20
  C:042FH         LINE#         21
  C:0431H         LINE#         22
  -------         ENDPROC       LCD_DELAY
  -------         PROC          _LCD_WRITECOMMAND
  D:0007H         SYMBOL        Command
  C:044AH         LINE#         29
  C:044AH         LINE#         30
  C:044CH         LINE#         31
  C:044CH         LINE#         32
  C:044CH         LINE#         33
  C:044CH         LINE#         34
  C:044FH         LINE#         35
  C:0451H         LINE#         36
  -------         ENDPROC       _LCD_WRITECOMMAND
BL51 BANKED LINKER/LOCATER V6.22                                                      01/16/2023  22:02:43  PAGE 5


  -------         PROC          L?0047
  -------         ENDPROC       L?0047
  -------         PROC          _LCD_WRITEDATA
  D:0007H         SYMBOL        Data
  C:039FH         LINE#         44
  C:039FH         LINE#         45
  C:03A1H         LINE#         46
  C:03A1H         LINE#         47
  C:03A1H         LINE#         48
  C:03A1H         LINE#         49
  C:03A4H         LINE#         50
  C:03A6H         LINE#         51
  -------         ENDPROC       _LCD_WRITEDATA
  -------         PROC          _LCD_SETCURSOR
  D:0006H         SYMBOL        Line
  D:0005H         SYMBOL        Column
  C:03E4H         LINE#         60
  C:03E6H         LINE#         61
  C:03E9H         LINE#         62
  C:03EBH         LINE#         63
  C:03F0H         LINE#         64
  C:03F9H         LINE#         65
  C:03F9H         LINE#         66
  -------         ENDPROC       _LCD_SETCURSOR
  -------         PROC          LCD_INIT
  C:040FH         LINE#         73
  C:040FH         LINE#         74
  C:0414H         LINE#         75
  C:0419H         LINE#         76
  C:041EH         LINE#         77
  -------         ENDPROC       LCD_INIT
  -------         PROC          _LCD_SHOWCHAR
  D:0006H         SYMBOL        Line
  D:0005H         SYMBOL        Column
  D:0004H         SYMBOL        Char
  C:0454H         LINE#         87
  C:0456H         LINE#         88
  C:0459H         LINE#         89
  -------         ENDPROC       _LCD_SHOWCHAR
  -------         PROC          _LCD_SHOWSTRING
  D:0007H         SYMBOL        Line
  D:0005H         SYMBOL        Column
  D:0008H         SYMBOL        String
  -------         DO            
  D:0005H         SYMBOL        i
  -------         ENDDO         
  C:0368H         LINE#         99
  C:036EH         LINE#         101
  C:0371H         LINE#         102
  C:0384H         LINE#         103
  C:0387H         LINE#         104
  C:038AH         LINE#         105
  -------         ENDPROC       _LCD_SHOWSTRING
  C:02BAH         SYMBOL        L?0046
  -------         PROC          L?0045
  -------         ENDPROC       L?0045
  C:02BAH         SYMBOL        L?0046
BL51 BANKED LINKER/LOCATER V6.22                                                      01/16/2023  22:02:43  PAGE 6


  -------         PROC          _LCD_POW
  D:000DH         SYMBOL        X
  D:000FH         SYMBOL        Y
  -------         DO            
  D:0003H         SYMBOL        i
  D:0006H         SYMBOL        Result
  -------         ENDDO         
  C:02C4H         LINE#         110
  C:02CCH         LINE#         112
  C:02D0H         LINE#         113
  C:02E0H         LINE#         114
  C:02E7H         LINE#         115
  C:02EAH         LINE#         116
  C:02EAH         LINE#         117
  -------         ENDPROC       _LCD_POW
  -------         PROC          _LCD_SHOWNUM
  D:0007H         SYMBOL        Line
  D:0005H         SYMBOL        Column
  D:000AH         SYMBOL        Number
  D:000CH         SYMBOL        Length
  -------         DO            
  D:0002H         SYMBOL        i
  -------         ENDDO         
  C:03C7H         LINE#         127
  C:03CBH         LINE#         129
  C:03CEH         LINE#         130
  C:03D6H         LINE#         131
  C:03E0H         LINE#         132
  C:03E3H         LINE#         133
  -------         ENDPROC       _LCD_SHOWNUM
  -------         PROC          _LCD_SHOWSIGNEDNUM
  D:0007H         SYMBOL        Line
  D:0005H         SYMBOL        Column
  D:0002H         SYMBOL        Number
  D:0015H         SYMBOL        Length
  -------         DO            
  D:0002H         SYMBOL        i
  D:0016H         SYMBOL        Number1
  -------         ENDDO         
  C:01D7H         LINE#         143
  C:01D7H         LINE#         146
  C:01DAH         LINE#         147
  C:01E2H         LINE#         148
  C:01E7H         LINE#         149
  C:01EBH         LINE#         150
  C:01EDH         LINE#         151
  C:01F2H         LINE#         152
  C:01FBH         LINE#         153
  C:01FBH         LINE#         154
  C:0203H         LINE#         155
  C:020DH         LINE#         156
  C:0210H         LINE#         157
  -------         ENDPROC       _LCD_SHOWSIGNEDNUM
  -------         PROC          _LCD_SHOWHEXNUM
  D:0007H         SYMBOL        Line
  D:0005H         SYMBOL        Column
  D:001AH         SYMBOL        Number
BL51 BANKED LINKER/LOCATER V6.22                                                      01/16/2023  22:02:43  PAGE 7


  D:001CH         SYMBOL        Length
  -------         DO            
  D:0002H         SYMBOL        i
  D:0006H         SYMBOL        SingleNumber
  -------         ENDDO         
  C:0211H         LINE#         167
  C:0215H         LINE#         169
  C:0218H         LINE#         170
  C:0220H         LINE#         171
  C:0236H         LINE#         172
  C:023CH         LINE#         173
  C:023EH         LINE#         174
  C:0240H         LINE#         175
  C:0246H         LINE#         176
  C:0246H         LINE#         177
  C:0249H         LINE#         178
  -------         ENDPROC       _LCD_SHOWHEXNUM
  -------         PROC          _LCD_SHOWBINNUM
  D:0007H         SYMBOL        Line
  D:0005H         SYMBOL        Column
  D:0023H         SYMBOL        Number
  D:0025H         SYMBOL        Length
  -------         DO            
  D:0002H         SYMBOL        i
  -------         ENDDO         
  C:024AH         LINE#         188
  C:024EH         LINE#         190
  C:0251H         LINE#         191
  C:0259H         LINE#         192
  C:027EH         LINE#         193
  C:0281H         LINE#         194
  -------         ENDPROC       _LCD_SHOWBINNUM
  -------         ENDMOD        LCD1602

  -------         MODULE        DELAY
  C:0000H         SYMBOL        _ICE_DUMMY_
  C:03FAH         PUBLIC        _Delay
  -------         PROC          _DELAY
  D:0006H         SYMBOL        xms
  -------         DO            
  D:0005H         SYMBOL        i
  D:0004H         SYMBOL        j
  -------         ENDDO         
  C:03FAH         LINE#         1
  C:03FAH         LINE#         3
  C:0404H         LINE#         4
  C:0406H         LINE#         5
  C:0408H         LINE#         6
  C:0408H         LINE#         7
  C:040AH         LINE#         8
  C:040CH         LINE#         9
  C:040EH         LINE#         10
  -------         ENDPROC       _DELAY
  -------         ENDMOD        DELAY

  -------         MODULE        KEY
  C:0000H         SYMBOL        _ICE_DUMMY_
BL51 BANKED LINKER/LOCATER V6.22                                                      01/16/2023  22:02:43  PAGE 8


  B:00B0H.0       PUBLIC        P3_0
  B:00B0H.1       PUBLIC        P3_1
  B:00B0H.2       PUBLIC        P3_2
  B:00B0H.3       PUBLIC        P3_3
  C:0176H         PUBLIC        Key
  -------         PROC          KEY
  -------         DO            
  D:0008H         SYMBOL        key_number
  -------         ENDDO         
  C:0176H         LINE#         9
  C:0176H         LINE#         10
  C:0179H         LINE#         11
  C:017CH         LINE#         12
  C:0182H         LINE#         13
  C:0185H         LINE#         14
  C:018CH         LINE#         15
  C:018FH         LINE#         16
  C:018FH         LINE#         17
  C:0192H         LINE#         18
  C:0199H         LINE#         19
  C:019CH         LINE#         20
  C:01A3H         LINE#         21
  C:01A6H         LINE#         22
  C:01A6H         LINE#         23
  C:01A9H         LINE#         24
  C:01B0H         LINE#         25
  C:01B3H         LINE#         26
  C:01BAH         LINE#         27
  C:01BDH         LINE#         28
  C:01BDH         LINE#         29
  C:01C0H         LINE#         30
  C:01C7H         LINE#         31
  C:01CAH         LINE#         32
  C:01D1H         LINE#         33
  C:01D4H         LINE#         34
  C:01D4H         LINE#         35
  C:01D6H         LINE#         36
  -------         ENDPROC       KEY
  -------         ENDMOD        KEY

  -------         MODULE        AT24C02
  C:0000H         SYMBOL        _ICE_DUMMY_
  C:02EBH         PUBLIC        _AT24C02_readbyte
  C:0344H         PUBLIC        _AT24C02_writebyte
  -------         PROC          _AT24C02_WRITEBYTE
  D:0008H         SYMBOL        wordAddress
  D:0009H         SYMBOL        Data
  C:0344H         LINE#         12
  C:034AH         LINE#         13
  C:034AH         LINE#         15
  C:034DH         LINE#         16
  C:0352H         LINE#         22
  C:0355H         LINE#         23
  C:035AH         LINE#         24
  C:035DH         LINE#         25
  C:0362H         LINE#         26
  C:0365H         LINE#         27
BL51 BANKED LINKER/LOCATER V6.22                                                      01/16/2023  22:02:43  PAGE 9


  -------         ENDPROC       _AT24C02_WRITEBYTE
  -------         PROC          _AT24C02_READBYTE
  D:0008H         SYMBOL        wordAddress
  -------         DO            
  D:0009H         SYMBOL        Data
  -------         ENDDO         
  C:02EBH         LINE#         35
  C:02EDH         LINE#         36
  C:02EDH         LINE#         38
  C:02F0H         LINE#         39
  C:02F5H         LINE#         40
  C:02F8H         LINE#         41
  C:02FDH         LINE#         42
  C:0300H         LINE#         43
  C:0303H         LINE#         44
  C:0308H         LINE#         45
  C:030BH         LINE#         46
  C:0310H         LINE#         47
  C:0315H         LINE#         48
  C:0318H         LINE#         49
  C:031AH         LINE#         50
  -------         ENDPROC       _AT24C02_READBYTE
  -------         ENDMOD        AT24C02

  -------         MODULE        I2C
  C:0000H         SYMBOL        _ICE_DUMMY_
  B:00A0H.1       PUBLIC        I2C_SCL
  D:00A0H         PUBLIC        P2
  C:031BH         PUBLIC        _I2C_sendbyte
  C:0432H         PUBLIC        I2C_receiveack
  C:03A9H         PUBLIC        I2C_receivebyte
  C:045EH         PUBLIC        I2C_start
  C:0470H         PUBLIC        I2C_stop
  B:00A0H.0       PUBLIC        I2C_SDA
  C:0467H         PUBLIC        I2C_sendack
  -------         PROC          I2C_START
  C:045EH         LINE#         11
  C:045EH         LINE#         12
  C:045EH         LINE#         13
  C:0460H         LINE#         14
  C:0462H         LINE#         15
  C:0464H         LINE#         16
  C:0466H         LINE#         17
  -------         ENDPROC       I2C_START
  -------         PROC          I2C_STOP
  C:0470H         LINE#         24
  C:0470H         LINE#         25
  C:0470H         LINE#         26
  C:0472H         LINE#         27
  C:0474H         LINE#         28
  C:0476H         LINE#         29
  -------         ENDPROC       I2C_STOP
  -------         PROC          _I2C_SENDBYTE
  D:0005H         SYMBOL        byte
  -------         DO            
  D:0003H         SYMBOL        i
  -------         ENDDO         
BL51 BANKED LINKER/LOCATER V6.22                                                      01/16/2023  22:02:43  PAGE 10


  C:031BH         LINE#         36
  C:031DH         LINE#         37
  C:031DH         LINE#         39
  C:031FH         LINE#         40
  C:031FH         LINE#         41
  C:033BH         LINE#         42
  C:033DH         LINE#         44
  C:033FH         LINE#         45
  C:0343H         LINE#         46
  -------         ENDPROC       _I2C_SENDBYTE
  -------         PROC          I2C_RECEIVEBYTE
  -------         DO            
  D:0006H         SYMBOL        i
  D:0007H         SYMBOL        byte
  -------         ENDDO         
  C:03A9H         LINE#         53
  C:03A9H         LINE#         54
  C:03A9H         LINE#         55
  C:03ABH         LINE#         56
  C:03ADH         LINE#         57
  C:03AEH         LINE#         58
  C:03AEH         LINE#         59
  C:03B0H         LINE#         62
  C:03B3H         LINE#         63
  C:03B3H         LINE#         64
  C:03C0H         LINE#         65
  C:03C0H         LINE#         66
  C:03C2H         LINE#         67
  C:03C6H         LINE#         68
  C:03C6H         LINE#         69
  -------         ENDPROC       I2C_RECEIVEBYTE
  -------         PROC          I2C_SENDACK
  B:0020H.0       SYMBOL        ackBit
  C:0467H         LINE#         76
  C:0467H         LINE#         77
  C:0467H         LINE#         78
  C:046BH         LINE#         79
  C:046DH         LINE#         80
  C:046FH         LINE#         81
  -------         ENDPROC       I2C_SENDACK
  -------         PROC          I2C_RECEIVEACK
  -------         DO            
  D:0007H         SYMBOL        ackBit
  -------         ENDDO         
  C:0432H         LINE#         88
  C:0432H         LINE#         89
  C:0432H         LINE#         91
  C:0434H         LINE#         92
  C:0436H         LINE#         93
  C:043BH         LINE#         94
  C:043DH         LINE#         95
  C:043DH         LINE#         96
  -------         ENDPROC       I2C_RECEIVEACK
  -------         ENDMOD        I2C

  -------         MODULE        ?C?CLDOPTR
  C:00E2H         PUBLIC        ?C?CLDOPTR
BL51 BANKED LINKER/LOCATER V6.22                                                      01/16/2023  22:02:43  PAGE 11


  -------         ENDMOD        ?C?CLDOPTR

  -------         MODULE        ?C?IMUL
  C:010FH         PUBLIC        ?C?IMUL
  -------         ENDMOD        ?C?IMUL

  -------         MODULE        ?C?UIDIV
  C:0121H         PUBLIC        ?C?UIDIV
  -------         ENDMOD        ?C?UIDIV

Program Size: data=38.1 xdata=0 code=1143
LINK/LOCATE RUN COMPLETE.  0 WARNING(S),  0 ERROR(S)
