:03000000020100FA
:1001000075B30075B4FF75CB0075CCFF75380078FA
:10011000307A08761008DAFB12017E1201CE75746F
:1001200000753701D2C012017E1201B80574E57462
:10013000B4FAF375740085313085323185333285F8
:1001400034338535348536358537360537E537B46C
:1001500010D402010C8040201008040201C0F9A450
:10016000B0999282F880908883C6A1868EFFC002E3
:100170007A083392C4D2C2C2C2DAF7D00222C08354
:10018000C082C000740012016E900155E5389312D0
:10019000016EC2C300D2C300C2C390015DE5382422
:1001A00030F8E693F5E80538E53854F8600375381B
:1001B00000D000D082D0832200C030C03175303FE3
:1001C000753152D531FDD530FAD031D03022000012
:1001D000C030C031C03275303D7531E175323CD52B
:0F01E00032FDD531FAD530F7D032D031D03022C0
:00000001FF
