:03000000020100FA
:03000B0002021AD4
:1001000075B30075B40175CB0075CCFF7581807532
:10011000D00075380078307A08D2C0761008DAFB43
:10012000C28C438E805389F0758CA2758A40D2A907
:10013000D28CD2AF12017C3000FDC200053AE53A04
:1001400070020539C3E53A942CE539940140E8750D
:100150003A00753900740D120189740D1201898EEF
:100160003D8F3EEEC4540FF534EE540FF535EFC419
:10017000540FF536EF540FF53702013775BC804345
:10018000DE207594DF75932022FF75BD0075BE00DB
:10019000E5BC54804F4440F5BC000000007B64E5A2
:1001A000BC30E50C53BCDFE5BD540FFEAFBE80068E
:1001B000DBED7E107F00228040201008040201C089
:1001C000F9A4B0999282F880908883C6A1868EFFA8
:1001D000C0027A083392C4D2C2C2C2DAF7D0022275
:1001E000C083C082C00074001201D09001B7E5380E
:1001F000931201D0C2C300D2C300C2C39001BFE5B5
:10020000382430F8E693F5E80538E53854F860030B
:10021000753800D000D082D08322C0D0C0E0120157
:08022000E0D200D0E0D0D032A2
:00000001FF
