:10097500543A0054483A00544C3A004F563A48000D
:0A0985004F563A4C002020202000BD
:10046D00120A397FE87E03120A01E4FF1207F68FA4
:10047D00137F011207F68F0ED3E513648094FD50A0
:10048D0016C3E50E64809449400DD3E50E6480F8E3
:10049D00E5136480985006751314750E0F120A1625
:1004AD007BFF7A0979757D017F0112089F7BFF7AA9
:1004BD000979787D017F0212089F7BFF7A09797C8B
:1004CD007D097F0212089FE513FB3395E0FA75193C
:1004DD00037D047F021206DFE50EFB3395E0FA750E
:1004ED0019037D0C7F021206DF1209A8120A848FF0
:1004FD0014120A391208268F128E118D108C0FE4EA
:10050D00FFFEFDFCAB12AA11A910A80F1201B450E9
:10051D001E7B2D7D037F01120A68AF12AE11AD1047
:10052D00AC0F12022D8F0D8E0C8D0B8C0A80157B4E
:10053D002B7D037F01120A6885120D85110C851024
:10054D000B850F0AAF0DAE0CAD0BAC0A12027CABD6
:10055D0007AA067519037D047F0112093B7B2E7DC9
:10056D00077F01120A68E4FFFE7DC87C42AB0DAA2D
:10057D000CA90BA80A12000E12027CE47B64FAF996
:10058D00F81203CD7519027D087F0112093BE514A0
:10059D006050B4010E0513D3E513648094FD400340
:1005AD0075137DE514B402111513D3E50E6480F8AF
:1005BD00E51364809850020513E514B40311050E7C
:1005CD00C3E5136480F8E50E6480984002150EE5CE
:1005DD0014B4040E150EC3E50E64809449500375D2
:1005ED000EC9E513FB3395E0FA7519037D047F02FF
:1005FD001206DFE50EFB3395E0FA7519037D0C7FCE
:10060D00021206DFE513FD3395E0FCE4FF12087BD3
:10061D007F057E00120A01E50EFD3395E0FC7F019A
:10062D0012087B7F057E00120A01AC13EC12024802
:10063D00AB12AA11A910A80F1201B4600A40087BD1
:10064D00FF7A0979808019AC0EEC120248AB12AA20
:10065D0011A910A80F1201B450107BFF7A097985EA
:10066D007D0D7F0112089F0204F97BFF7A09798ABB
:0A067D007D0D7F0112089F0204F9B1
:03000B0002068763
:10068700C0E0C0F0C083C082C0D075D000C000C039
:0D06970001C002C003C004C005C006C007BA
:1006A400758A18758CFC0509E50970020508C39460
:1006B40014E50894004009750800750900120752F2
:1006C400D007D006D005D004D003D002D001D0008A
:0B06D400D0D0D082D083D0F0D0E03234
:10087B008F158C168D17120A727FA0120852120A4E
:10088B0046AF15120852120A46AF17120852120A37
:04089B00460200030E
:0207F6008F155D
:1007F800120A727FA0120852120A46AF1512085246
:10080800120A46120A727FA1120852120A461208E8
:0D081800E18F16D200120A7B120003AF160A
:0108250022B0
:100A0100EF1FAC0670011E4C600A7D027CEFDCFE1C
:040A1100DDFC80EC9C
:010A150022BE
:090A7200D2A0D2A1C2A0C2A122AF
:07000300C2A0D2A1D2A0228D
:02085200AD07F0
:10085400E4FB74807E00A803088006CEA2E713CED2
:1008640013D8F8FFEDF582EF558224FF92A0D2A1B0
:06087400C2A10BBB08DC71
:01087A00225B
:1008E100E4FFD2A0FED2A130A00D7480A80608803A
:0D08F10002C313D8FC4207C2A10EBE08E8E6
:0108FE0022D7
:090A7B00A20092A0D2A1C2A122A6
:0B0A4600D2A0D2A1A2A0E433FFC2A105
:010A51002282
:060A2A00C2A58F80D2A7D7
:080A30007F027EEFDEFEDFFC19
:010A3800229B
:0A0A5E00C2A6120A2AC2A7020A303B
:1008FF00CFCDCFCECCCE12033C7C007D0A12033C71
:04090F00ED2430FFA4
:0A091300D2A6120A2AC2A7020A3077
:1009BF00AE07BE0104ED148006BE0209ED243F44CC
:0609CF0080FF120A5E2207
:100A16007F38120A5E7F0C120A5E7F06120A5E7F1C
:040A260001020A5E61
:0A0A6800AC031209BFAF040209132A
:06089F008B158A16891773
:1008A5001209BFE4FDAB15AA16A9178D8275830041
:0C08B5001202FDFF60061209130D80E91D
:0108C1002214
:0C07C3007F0AEA24FFFDE434FFFC7E0006
:0807CF008E1C8F1D8C1E8D1F76
:1007D7007F017E00E4FBEBC3951FE51E6480F87480
:0E07E7008098500AAC1CAD1D12032A0B80E84E
:0107F50022E1
:04093B008A178B1874
:10093F001209BFAA19EAD39400400D1207C3AC17CE
:08094F00AD181208FF1A80ED3B
:01095700227D
:1006DF001209BFC3EA64809480400B7F2B12091369
:1006EF008A1A8B1B800E7F2D120913C3E49BF51BF7
:1006FF00E49AF51AAA19EAD39400400D1207C3AC75
:09070F001AAD1B1208FF1A80ED5F
:0107180022BE
:040719008A238B2480
:10071D001209BFAA25EAD3940040297F101207C5FC
:10072D00AC23AD24CFCDCFCECCCE12033CEF540FA6
:10073D00FEC3940AEE5004243080022437FF1209C0
:04074D00131A80D12A
:010751002285
:04078B008A288B2904
:10078F001209BFAA2AEAD394004028EA24FFFDE405
:10079F0034FFFC7F027E001207CFAC28AD29CFCDEE
:1007AF00CFCECCCE12033CEF54012430FF120913ED
:0307BF001A80D2CB
:0107C2002214
:0D0A39001208C27FCC12098F7F4402098F82
:100826001208C27FCC12098F7FBE12098F12095897
:100836008F15120958EFFEE515FFFDAC06EC120206
:0B08460043E4FBFA79807841120117AF
:010851002284
:1008C200C2AFD2B7C2B77FF7DFFED2B77F20DFFE5B
:0E08D200A2B7E433FE7FF7DFFED2AFEE24FFC5
:0108E00022F5
:1009D500C2AFC2B77E04DEFEEF24FF92B77E18DEFB
:0509E500FED2B7D2AF05
:0109EA0022EA
:10091D00C2AFC2B77F02DFFED2B77F02DFFED2B712
:0D092D00A2B7E433FE7F18DFFED2AFAF06A5
:01093A00229A
:02098F00AD07B2
:10099100E4FC7401A804088002C333D8FC5DFF1293
:0609A10009D50CBC08ECB6
:0109A700222D
:10095800E4FDFC12091DEF600D7401A80408800273
:0C096800C333D8FC42050CBC08E9AF0505
:010974002260
:050A8400E4AF2DF52D8B
:010A8900224A
:1009EB00E4FF20B1010F20B0027F0220B2027F038F
:0509FB0020B3027F049F
:010A000022D3
:10075200852B2C1209EB8F2BE52CB40107E52B70AE
:1007620003752D01E52CB40207E52B7003752D02EC
:10077200E52CB40307E52B7003752D03E52CB404B7
:0807820007E52B7003752D043F
:01078A00224C
:1009A8005389F0438901758A18758CFCC28DD28CE5
:0709B800D2A9D2AFC2B9229F
:10000E00EC4D6011E8497017ED33EC3304600DE4EC
:10001E00FCFFFEFD22E933E8330470F80202E81219
:10002E0002B358046009E4CC24815006285009021A
:10003E0002F22840030202EFC0E0EB4A7044B9809E
:10004E0006D0E0FB0202DEEF4E701CBD8008EBFF17
:10005E00EAFEE9FD80EBE98DF0A4FEE5F00200F783
:10006E00E9CDF9EAFEEBFFEF89F0A4FCE5F0CE89CD
:10007E00F0A42EFFE435F0CD89F0A42DFEE435F08A
:10008E008067EF4E7005BD80D780C3EF8BF0A4ACB8
:10009E00F0EE8BF0A42CFCE435F0F8EF8AF0A42CF3
:1000AE00E5F038FCE433CB8DF0A42CFCE5F03BF806
:1000BE00EE8AF0A42CFCE5F038F8E433CF89F0A4F6
:1000CE002CFCE5F038CF3400CE89F0A42FFFE5F0FC
:1000DE003EFEE433C98DF0A42EFEE5F039CD8AF054
:1000EE00A42FFFE5F03EFEE43DFD33D0E0FB5007CC
:1000FE000BBB000F0202F2EC2CFCEF33FFEE33FED3
:06010E00ED33FD0202CA00
:100114000202F2EC5D046005E8590470030202E88F
:100124001202B3580460F6EC4860F2EC7004FDFE71
:10013400FF22C860DB2481C85009C39860025006BE
:100144000202EF9850CAF582E9294B4A7005AB8246
:100154000202DE75F0007C1A7880C3EF9BEE9AED04
:1001640099400DC3EF9BFFEE9AFEED99FDE842F036
:10017400DC23ACF0D0E0FFD0E0FED0E0FDAB822089
:10018400E7101BEB60BAEC2CFCEF33FFEE33FEED13
:1001940033FD0202CAE803F830E705C0F075F00049
:1001A400EF2FFFEE33FEED33FD40B830E7C280AAF7
:1001B40074F8CC6480CCC86480C8F58204604FC3F2
:1001C400EB9FF5F0EA9E42F0E99D42F0E89C45F091
:1001D400603C501DE5825FFFE582D313CB5BCBF41B
:1001E4002B5582FB50280ABA002409B90020088044
:1001F4001DE5825BFBE582D313CF5FCFF4C3132FDE
:100204005582FF50090EBE00050DBD00010CC3EB65
:100214009FF5F0EA9E42F0E99D42F0E89C45F060CB
:0902240007CC4820E701B3EC22ED
:10022D00ED33EC33600A047003BD8004ECB2E7FCDF
:01023D00229E
:10023E0075F020800E75F010800575F0087D007E3B
:10024E00007F003392D530D50312045FEC3340109B
:10025E00EF33FFEE33FEED33FDEC33FCD5F0ED2244
:0E026E00E5F0247EA2D513CC92E7CDCEFF2280
:10027C00EDD2E7CD33EC3392D524814006E4FFFE7A
:10028C00FDFC22FCE4CFCECDCC24E0501174FF80D9
:10029C00EDC3CC13CCCD13CDCE13CECF13CF047076
:0702AC00F030D5DE02045F13
:1002B300E9D2E7C933E833F892D5EDD2E7CD33EC91
:0702C30033FC5002B2D5220A
:1002CA00EC30E7100FBF000C0EBE00080DBD000495
:1002DA000BEB6014A2D5EB13FCED92E7FD2274FF41
:1002EA00FCFDFEFF22E480F8A2D574FF13FC7D809A
:0302FA00E480EFAE
:03000000020A529F
:0C0A5200787FE4F6D8FD75812D02046D5C
:1002FD00BB010CE58229F582E5833AF583E02250B6
:10030D0006E92582F8E622BBFE06E92582F8E222FF
:0D031D00E58229F582E5833AF583E4932219
:10032A00EF8DF0A4A8F0CF8CF0A428CE8DF0A42EE7
:02033A00FE22A1
:10033C00BC000BBE0029EF8DF084FFADF022E4CCA5
:10034C00F875F008EF2FFFEE33FEEC33FCEE9DEC6E
:10035C00984005FCEE9DFE0FD5F0E9E4CEFD22EDB4
:10036C00F8F5F0EE8420D21CFEADF075F008EF2FFE
:10037C00FFED33FD4007985006D5F0F222C398FDEF
:05038C000FD5F0EA228C
:1003910075F008758200EF2FFFEE33FECD33CDCC23
:1003A10033CCC58233C5829BED9AEC99E5829840A6
:1003B1000CF582EE9BFEED9AFDEC99FC0FD5F0D683
:1003C100E4CEFBE4CDFAE4CCF9A88222B800C1B9AD
:1003D1000059BA002DEC8BF084CFCECDFCE5F0CBEB
:1003E100F97818EF2FFFEE33FEED33FDEC33FCEB24
:1003F10033FB10D703994004EB99FB0FD8E5E4F9DF
:10040100FA227818EF2FFFEE33FEED33FDEC33FCCB
:10041100C933C910D7059BE99A4007EC9BFCE99ABF
:10042100F90FD8E0E4C9FAE4CCFB2275F010EF2F04
:10043100FFEE33FEED33FDCC33CCC833C810D70704
:100441009BEC9AE899400AED9BFDEC9AFCE899F83F
:0E0451000FD5F0DAE4CDFBE4CCFAE4C8F922D2
:0E045F00C3E49FFFE49EFEE49DFDE49CFC22AE
:00000001FF
