:10000E001203881203EF8F2BE52BB40103632AFF33
:10001E00E52BB40207E4F528F527F529E52B640353
:10002E007033E528FD7C00E4FF1203107F057E008F
:10003E001203B5E527FD7C007F011203107F057EBC
:10004E00001203B5E529FD7C007F021203107F0527
:10005E007E001203B5E52BB40415E4FF1202908F57
:10006E00287F011202908F277F021202908F29E5BE
:10007E002875F00A84FD7F01120003E52875F00A49
:10008E0084ADF07F021200037D0B7F03120003E5A7
:10009E002775F00A84FD7F04120003E52775F00A28
:1000AE0084ADF07F051200037D0B7F06120003E581
:1000BE002975F00A84FD7F07120003E52975F00A01
:0B00CE0084ADF07F0812000302001157
:1002E900E52A60220529E529C394644019E4F52922
:1002F9000527E527943C400EE4F5270528E52894D1
:070309003C4003E4F528224B
:03000B000200D917
:1000D900C0E0C0F0C083C082C0D075D000C000C0ED
:0D00E90001C002C003C004C005C006C0076E
:1000F600758A18758CFC0522E52270020521C394C9
:1001060014E521940040097521007522001202575A
:100116000524E52470020523C39402E523940040D8
:100126000975230075240012036F0526E526700263
:100136000525C3940AE52594004009752500752612
:04014600001202E9B8
:10014A00D007D006D005D004D003D002D001D00009
:0B015A00D0D0D082D083D0F0D0E032B3
:1003B500EF1FAC0670011E4C600A7D027CEFDCFE6F
:0403C500DDFC80ECEF
:0103C9002211
:0503EF00E4AF2EF52E25
:0103F40022E6
:10039F00E4FF20B1010F20B0027F0220B2027F03E1
:0503AF0020B3027F04F1
:0103B4002226
:10025700852C2D12039F8F2CE52DB40107E52C70FB
:1002670003752E01E52DB40207E52C7003752E02E8
:10027700E52DB40307E52C7003752E03E52DB404B3
:0802870007E52C7003752E043D
:01028F00224C
:100388005389F0438901758A18758CFCC28DD28C0B
:07039800D2A9D2AFC2B922C5
:100352000915000A0A0A0A0A0A0A0A0C093F065B78
:0C0362004F666D7D077F6F0040010801B1
:0700030074152FF8A6052279
:1001F100E4F580EF14B40800505490020975F0033F
:10020100A4C58325F0C583730202210202250202DF
:100211002902022D0202310202390202410202497F
:10022100D2A4800ED2A48012D2A48016D2A4801AA5
:10023100C2A4D2A3D2A28016C2A4D2A3C2A2800E0B
:10024100C2A4C2A3D2A28006C2A4C2A3C2A274093C
:060251002DF8E6F5802205
:10036F0074152508F8E6FDAF081201F10508E50838
:08037F00C39409400375080155
:010387002253
:100310008F2F8C308D311203D67FA01202C01203B2
:10032000CAAF2F1202C01203CAAF311202C01203A9
:04033000CA0203E812
:020290008F2FAE
:100292001203D67FA01202C01203CAAF2F1202C0ED
:1002A2001203CA1203D67FA11202C01203CA12039A
:0D02B200348F30D2001203DF1203E8AF30AA
:0102BF00221C
:0903D600D2A0D2A1C2A0C2A12252
:0703E800C2A0D2A1D2A022A5
:0202C000AD0788
:1002C200E4FB74807E00A803088006CEA2E713CE6A
:1002D20013D8F8FFEDF582EF558224FF92A0D2A148
:0602E200C2A10BBB08DC09
:0102E80022F3
:10033400E4FFD2A0FED2A130A00D7480A8060880EC
:0D03440002C313D8FC4207C2A10EBE08E898
:010351002289
:0903DF00A20092A0D2A1C2A12249
:0B03CA00D2A0D2A1A2A0E433FFC2A188
:0103D5002205
:0300000002016595
:0C016500787FE4F6D8FD7581310201AC12
:1001710002000EE493A3F8E493A34003F68001F296
:1001810008DFF48029E493A3F85407240CC8C3338F
:10019100C4540F4420C8834004F456800146F6DF5E
:1001A100E4800B0102040810204080900352E47E99
:1001B100019360BCA3FF543F30E509541FFEE49353
:1001C100A360010ECF54C025E060A840B8E493A31A
:1001D100FAE493A3F8E493A3C8C582C8CAC583CA45
:1001E100F0A3C8C582C8CAC583CADFE9DEE780BEFD
:01036E00008E
:00000001FF
