:03000000020100FA
:030003000201B83F
:030013000201D90E
:1001000075B30075B40175CB0075CCFF7581807532
:10011000380078307A08D2C0761008DAFBC28BC279
:1001200089D2AAD2A8D288D28AD2AF1201FA1201F9
:100130005D02012B8040201008040201C0F9A4B028
:10014000999282F880908883C6A1868EFFC0027A39
:10015000083392C4D2C2C2C2DAF7D00222C083C02E
:1001600082C000740012014D900134E538931201F1
:100170004DC2C300D2C300C2C390013CE538243055
:10018000F8E693F5E80538E53854F860247538004A
:10019000E53975F06484F530740AC5F084F531856D
:1001A000F03275331075341075351075361075379B
:1001B00010D000D082D0832212021012015D30B222
:1001C000F712021015397F067EFFB2C112015D12CF
:1001D00001FADEF8DFF4C2C13212021012015D3002
:1001E000B3F712021015397F067EFFB2C112015D0E
:1001F0001201FADEF8DFF4C2C13200C030C031753E
:10020000303F753152D531FDD530FAD031D0302262
:1002100000C030C031C0327530037531707532594D
:10022000D532FDD531FAD530F7D032D031D03022A9
:00000001FF
