:10035700414444522020434D4420204E554D003007
:0E036700302020202030302020203030300088
:1001E3001203DB7BFF7A0379577D017F011203340E
:1001F3007BFF7A0379667D017F0212033412046D5B
:1002030012040EEF700612041BEF60F41204738FD6
:100213002B1204768F2AE52BFB7A007518027D01D9
:100223007F02120290E52AFB7A007518027D077F90
:1002330002120290E52AB415021529E52AB409022F
:100243000529E529FB7A007518037D0C7F0212034B
:030253009380ADE8
:1003C600EF1FAC0670011E4C600A7D027CEFDCFE5E
:0403D600DDFC80ECDE
:0103DA002200
:0603FF00C2A58F80D2A709
:080405007F027EEFDEFEDFFC4A
:01040D0022CC
:0A044A00C2A61203FFC2A7020405B8
:10037500CFCDCFCECCCE12018E7C007D0A12018E60
:04038500ED2430FF34
:0A038900D2A61203FFC2A70204056A
:1003B000AE07BE0104ED148006BE0209ED243F44E1
:0603C00080FF12044A2236
:1003DB007F3812044A7F0C12044A7F0612044A7FAC
:0403EB000102044ABD
:0A045400AC031203B0AF04020389E9
:060334008B148A158916E6
:10033A001203B0E4FDAB14AA15A9168D82758300C9
:0C034A0012014FFF60061203890D80E9CC
:010356002284
:0C0301007F0AEA24FFFDE434FFFC7E00CC
:08030D008E198F1A8C1B8D1C48
:100315007F017E00E4FBEBC3951CE51B6480F8744C
:0E0325008098500AAC19AD1A12017C0B80E8CA
:0103330022A7
:040393008A168B1724
:100397001203B0AA18EAD39400400D120301AC1659
:0803A700AD171203751A80ED79
:0103AF00222B
:100256001203B0C3EA64809480400B7F2B1203899B
:100266008A228B23800E7F2D120389C3E49BF523FC
:10027600E49AF522AA21EAD39400400D120301ACB8
:0902860022AD231203751A80ED6C
:01028F00224C
:040290008A168B1728
:100294001203B0AA18EAD3940040297F1012030372
:1002A400AC16AD17CFCDCFCECCCE12018EEF540FFE
:1002B400FEC3940AEE5004243080022437FF120354
:0402C400891A80D142
:0102C8002213
:0402C9008A268B27CF
:1002CD001203B0AA28EAD394004028EA24FFFDE4E3
:1002DD0034FFFC7F027E0012030DAC26AD27CFCD7F
:1002ED00CFCECCCE12018EEF54012430FF120389F4
:0302FD001A80D292
:0103000022DA
:0B043400D288C289D2A8D2AFD2B82271
:1003EF005389F0438901E4F58AF58CC28DC28C22C2
:0B043F00AD07AC068C8CAF058F8A2245
:09045E00AF8CEFFEAD8AEDFF2228
:06046700EF24FF928C223D
:06046D001203EF0204344B
:0D040E00E5086006E4F5087F01227F00226A
:0D041B00E5136006E4F5137F01227F002247
:03047300AF1122A4
:03047600AF1022A2
:03000300020006F2
:10000600C0E0C0F0C083C082C0D075D000C000C0C0
:1000160001C002C003C004C005C006C007E50D1438
:10002600601714605D24026003020134E4FFFE12CF
:10003600043F7F01120467804312045E8E0E8F0F09
:10004600E4FFFE12043FD3E50F94A6E50E942E407E
:1000560010E50F948EE50E94325006750D020201DE
:1000660034D3E50F948CE50E94264010E50F947476
:10007600E50E942A500675130102012C750D010236
:10008600013412045E8E0E8F0FE4FFFE12043FD37E
:10009600E50F9414E50E9402402CE50F94FCE50E52
:1000A60094055022E512131313541F2409F8C000B7
:1000B600E6FFE5125407FE7401A806088002C33362
:1000C600D8FCF45F8034D3E50F9426E50E94064001
:1000D60030E50F940EE50E940A5026E5121313131D
:1000E600541F2409F8C000E6FFE5125407FE740108
:1000F600A806088002C333D8FC4FD000F60512804C
:1001060006751200750D01E512C394204020751284
:1001160000E50AF4B5090FE50CF4B50B09850911DC
:10012600850B10750801E4FF120467750D00D007F2
:10013600D006D005D004D003D002D001D000D0D054
:09014600D082D083D0F0D0E03269
:03000000020428CF
:0C042800787FE4F6D8FD75812B0201E31B
:10014F00BB010CE58229F582E5833AF583E0225065
:10015F0006E92582F8E622BBFE06E92582F8E222AF
:0D016F00E58229F582E5833AF583E49322C9
:10017C00EF8DF0A4A8F0CF8CF0A428CE8DF0A42E97
:02018C00FE2251
:10018E00BC000BBE0029EF8DF084FFADF022E4CC55
:10019E00F875F008EF2FFFEE33FEEC33FCEE9DEC1E
:1001AE00984005FCEE9DFE0FD5F0E9E4CEFD22ED64
:1001BE00F8F5F0EE8420D21CFEADF075F008EF2FAE
:1001CE00FFED33FD4007985006D5F0F222C398FD9F
:0501DE000FD5F0EA223C
:00000001FF
