BL51 BANKED LINKER/LOCATER V6.22                                                        01/13/2023  08:36:08  PAGE 1


BL51 BANKED LINKER/LOCATER V6.22, INVOKED BY:
D:\KEIL_V5\C51\BIN\BL51.EXE .\Objects\main.obj, .\Objects\Delay.obj, .\Objects\Key.obj, .\Objects\nixieTube.obj, .\Objec
>> ts\buzzer.obj TO .\Objects\Project PRINT (.\Listings\Project.m51) RAMSIZE (256)


MEMORY MODEL: SMALL


INPUT MODULES INCLUDED:
  .\Objects\main.obj (MAIN)
  .\Objects\Delay.obj (DELAY)
  .\Objects\Key.obj (KEY)
  .\Objects\nixieTube.obj (NIXIETUBE)
  .\Objects\buzzer.obj (BUZZER)
  D:\KEIL_V5\C51\LIB\C51S.LIB (?C_STARTUP)
  D:\KEIL_V5\C51\LIB\C51S.LIB (?C_INIT)


LINK MAP OF MODULE:  .\Objects\Project (MAIN)


            TYPE    BASE      LENGTH    RELOCATION   SEGMENT NAME
            -----------------------------------------------------

            * * * * * * *   D A T A   M E M O R Y   * * * * * * *
            REG     0000H     0008H     ABSOLUTE     "REG BANK 0"
            DATA    0008H     000AH     UNIT         ?DT?NIXIETUBE
            DATA    0012H     0001H     UNIT         ?DT?MAIN
            DATA    0013H     0001H     UNIT         _DATA_GROUP_
            IDATA   0014H     0001H     UNIT         ?STACK

            * * * * * * *   C O D E   M E M O R Y   * * * * * * *
            CODE    0000H     0003H     ABSOLUTE     
            CODE    0003H     008CH     UNIT         ?C_C51STARTUP
            CODE    008FH     0063H     UNIT         ?PR?_NIXIETUBE?NIXIETUBE
            CODE    00F2H     0061H     UNIT         ?PR?KEY?KEY
            CODE    0153H     0022H     UNIT         ?PR?_BUZZER_TIME?BUZZER
            CODE    0175H     0020H     UNIT         ?PR?MAIN?MAIN
            CODE    0195H     0015H     UNIT         ?PR?_DELAY?DELAY
            CODE    01AAH     000DH     UNIT         ?C_INITSEG
            CODE    01B7H     0006H     UNIT         ?PR?BUZZER_DELAY500US?BUZZER



OVERLAY MAP OF MODULE:   .\Objects\Project (MAIN)


SEGMENT                                DATA_GROUP 
  +--> CALLED SEGMENT                START    LENGTH
----------------------------------------------------
?C_C51STARTUP                        -----    -----
  +--> ?PR?MAIN?MAIN
  +--> ?C_INITSEG

?PR?MAIN?MAIN                        -----    -----
  +--> ?PR?_NIXIETUBE?NIXIETUBE
  +--> ?PR?KEY?KEY
  +--> ?PR?_BUZZER_TIME?BUZZER
BL51 BANKED LINKER/LOCATER V6.22                                                      01/13/2023  08:36:08  PAGE 2



?PR?KEY?KEY                          0013H    0001H
  +--> ?PR?_DELAY?DELAY

?PR?_BUZZER_TIME?BUZZER              -----    -----
  +--> ?PR?BUZZER_DELAY500US?BUZZER



SYMBOL TABLE OF MODULE:  .\Objects\Project (MAIN)

  VALUE           TYPE          NAME
  ----------------------------------

  -------         MODULE        MAIN
  C:0000H         SYMBOL        _ICE_DUMMY_
  C:0175H         PUBLIC        main
  D:0012H         PUBLIC        key_num
  -------         PROC          MAIN
  C:0175H         LINE#         9
  C:0175H         LINE#         10
  C:0175H         LINE#         11
  C:017CH         LINE#         12
  C:017CH         LINE#         13
  C:017CH         LINE#         14
  C:0181H         LINE#         15
  C:0185H         LINE#         16
  C:0185H         LINE#         17
  C:018CH         LINE#         18
  C:0193H         LINE#         19
  C:0193H         LINE#         20
  -------         ENDPROC       MAIN
  -------         ENDMOD        MAIN

  -------         MODULE        DELAY
  C:0000H         SYMBOL        _ICE_DUMMY_
  C:0195H         PUBLIC        _Delay
  -------         PROC          _DELAY
  D:0006H         SYMBOL        xms
  -------         DO            
  D:0005H         SYMBOL        i
  D:0004H         SYMBOL        j
  -------         ENDDO         
  C:0195H         LINE#         1
  C:0195H         LINE#         2
  C:0195H         LINE#         4
  C:019FH         LINE#         5
  C:019FH         LINE#         6
  C:01A1H         LINE#         7
  C:01A3H         LINE#         9
  C:01A3H         LINE#         10
  C:01A5H         LINE#         11
  C:01A7H         LINE#         12
  C:01A9H         LINE#         13
  -------         ENDPROC       _DELAY
  -------         ENDMOD        DELAY

BL51 BANKED LINKER/LOCATER V6.22                                                      01/13/2023  08:36:08  PAGE 3


  -------         MODULE        KEY
  C:0000H         SYMBOL        _ICE_DUMMY_
  B:00B0H.0       PUBLIC        P3_0
  B:00B0H.1       PUBLIC        P3_1
  B:00B0H.2       PUBLIC        P3_2
  B:00B0H.3       PUBLIC        P3_3
  C:00F2H         PUBLIC        Key
  -------         PROC          KEY
  -------         DO            
  D:0013H         SYMBOL        key_number
  -------         ENDDO         
  C:00F2H         LINE#         9
  C:00F2H         LINE#         10
  C:00F5H         LINE#         11
  C:00F8H         LINE#         12
  C:00FEH         LINE#         13
  C:0101H         LINE#         14
  C:0108H         LINE#         15
  C:010BH         LINE#         16
  C:010BH         LINE#         17
  C:010EH         LINE#         18
  C:0115H         LINE#         19
  C:0118H         LINE#         20
  C:011FH         LINE#         21
  C:0122H         LINE#         22
  C:0122H         LINE#         23
  C:0125H         LINE#         24
  C:012CH         LINE#         25
  C:012FH         LINE#         26
  C:0136H         LINE#         27
  C:0139H         LINE#         28
  C:0139H         LINE#         29
  C:013CH         LINE#         30
  C:0143H         LINE#         31
  C:0146H         LINE#         32
  C:014DH         LINE#         33
  C:0150H         LINE#         34
  C:0150H         LINE#         35
  C:0152H         LINE#         36
  -------         ENDPROC       KEY
  -------         ENDMOD        KEY

  -------         MODULE        NIXIETUBE
  C:0000H         SYMBOL        _ICE_DUMMY_
  D:0080H         PUBLIC        P0
  D:0008H         PUBLIC        nixieTable
  B:00A0H.2       PUBLIC        P2_2
  B:00A0H.3       PUBLIC        P2_3
  B:00A0H.4       PUBLIC        P2_4
  C:008FH         PUBLIC        _nixieTube
  -------         PROC          _NIXIETUBE
  D:0007H         SYMBOL        location
  D:0005H         SYMBOL        number
  C:008FH         LINE#         6
  C:008FH         LINE#         7
  C:008FH         LINE#         8
  C:00BCH         LINE#         9
BL51 BANKED LINKER/LOCATER V6.22                                                      01/13/2023  08:36:08  PAGE 4


  C:00BCH         LINE#         10
  C:00BCH         LINE#         11
  C:00BEH         LINE#         12
  C:00C0H         LINE#         13
  C:00C0H         LINE#         14
  C:00C2H         LINE#         15
  C:00C4H         LINE#         16
  C:00C4H         LINE#         17
  C:00C6H         LINE#         18
  C:00C8H         LINE#         19
  C:00C8H         LINE#         20
  C:00CAH         LINE#         21
  C:00CCH         LINE#         22
  C:00CCH         LINE#         23
  C:00D2H         LINE#         24
  C:00D4H         LINE#         25
  C:00D4H         LINE#         26
  C:00DAH         LINE#         27
  C:00DCH         LINE#         28
  C:00DCH         LINE#         29
  C:00E2H         LINE#         30
  C:00E4H         LINE#         32
  C:00E4H         LINE#         33
  C:00EAH         LINE#         34
  C:00EAH         LINE#         35
  C:00EAH         LINE#         36
  C:00EAH         LINE#         37
  C:00EAH         LINE#         38
  C:00F1H         LINE#         39
  -------         ENDPROC       _NIXIETUBE
  -------         ENDMOD        NIXIETUBE

  -------         MODULE        BUZZER
  C:0000H         SYMBOL        _ICE_DUMMY_
  D:00A0H         PUBLIC        P2
  C:01B7H         PUBLIC        buzzer_delay500us
  C:0153H         PUBLIC        _buzzer_time
  B:00A0H.5       PUBLIC        BUZZER
  -------         PROC          BUZZER_DELAY500US
  -------         DO            
  D:0007H         SYMBOL        i
  -------         ENDDO         
  C:01B7H         LINE#         7
  C:01B7H         LINE#         8
  C:01B7H         LINE#         11
  C:01B8H         LINE#         12
  C:01BAH         LINE#         13
  C:01BCH         LINE#         14
  -------         ENDPROC       BUZZER_DELAY500US
  -------         PROC          _BUZZER_TIME
  D:0004H         SYMBOL        xms
  -------         DO            
  D:0002H         SYMBOL        i
  -------         ENDDO         
  C:0153H         LINE#         16
  C:0157H         LINE#         17
  C:0157H         LINE#         19
BL51 BANKED LINKER/LOCATER V6.22                                                      01/13/2023  08:36:08  PAGE 5


  C:0168H         LINE#         20
  C:0168H         LINE#         21
  C:016AH         LINE#         22
  C:016DH         LINE#         23
  C:0174H         LINE#         24
  -------         ENDPROC       _BUZZER_TIME
  -------         ENDMOD        BUZZER

Program Size: data=21.0 xdata=0 code=445
LINK/LOCATE RUN COMPLETE.  0 WARNING(S),  0 ERROR(S)
