:100042000000000000000000FF080808FF003F2930
:10005200293B00FF00FF003F21213F007D000000FF
:10006200000000000000000000000000000000008E
:10000300750908E4F50A1200E2E4F508E508250994
:1000130090004293FD7C00AF0812009F0508E5089D
:10002300C3940840E7050AE50AD3940A40DBE4F5E4
:0F0033000A0509E509D3942040CFE4F50980CAF6
:1000C100EF1FAC0670011E4C600A7D027CEFDCFE66
:0400D100DDFC80ECE6
:0100D5002208
:02007200AD07D8
:10007400E4FB74807E00A803088006CEA2E713CEBA
:1000840013D8F8FFEDF582EF558224FF92B4D2B66F
:0A009400C2B60BBB08DCD2B5C2B542
:01009E00223F
:0500E200C2B6C2B52208
:10009F00AA07AF05120072AF027480A8070880028A
:1000AF00C313D8FCF4F5807F017E001200C1758068
:0200BF00FF221E
:030000000200D625
:0C00D600787FE4F6D8FD75810A02000373
:00000001FF
