:0E03C800436C6F636B3A0020203A20203A000D
:0903D600011A37011C3B011B1741
:10018F001203A51203637BFF7A0379C87D017F01F8
:10019F001203057BFF7A0379CF7D017F02120305DE
:1001AF00E51BFB7A00750C027D017F02120346E509
:1001BF001CFB7A00750C027D047F02120346E51AC0
:0F01CF00FB7A00750C027D077F0212034680D178
:03000B000201DE11
:0401DE00C0E0C0D0ED
:1001E200758A18758CFC0519E51970020518C394F7
:1001F200E8E51894034029751800751900051AE5F9
:100202001A943C4005751A00051CE51CC3943C4039
:1002120005751C00051BE51BC394184003751B00E4
:05022200D0D0D0E03255
:10039000EF1FAC0670011E4C600A7D027CEFDCFE94
:0403A000DDFC80EC14
:0103A4002236
:10012E00E4F52720B1137F14FE12039030B1FD7F4A
:10013E00147E0012039075270120B0147F147E00E8
:10014E0012039030B0FD7F147E00120390752702CB
:10015E0020B2147F147E0012039030B2FD7F147E05
:10016E000012039075270320B3147F147E00120330
:10017E009030B3FD7F147E00120390752704AF27D5
:01018E00224E
:100363005389F0438901758A18758CFCC28DD28C30
:07037300D2A9D2AFC2B922EA
:0603B900C2A58F80D2A74F
:0803BF007F027EEFDEFEDFFC91
:0103C7002213
:0A03E000C2A61203B9C2A70203BFB0
:10032800CFCDCFCECCCE12004D7C007D0A12004D31
:04033800ED2430FF81
:0A033C00D2A61203B9C2A70203BF44
:10037A00AE07BE0104ED148006BE0209ED243F4417
:06038A0080FF1203E022D7
:1003A5007F381203E07F0C1203E07F061203E07F23
:0403B500010203E05E
:0A03EA00AC0312037AAF0402033CD7
:060305008B088A09890A39
:10030B0012037AE4FDAB08AA09A90A8D8275830052
:0C031B0012000EFF600612033C0D80E98A
:0103270022B3
:0C02D2007F0AEA24FFFDE434FFFC7E00FC
:0802DE008E0D8F0E8C0F8D10A8
:1002E6007F017E00E4FBEBC39510E50F6480F87494
:0E02F6008098500AAC0DAD0E12003B0B80E854
:0103040022D6
:040346008A0A8B0B89
:10034A0012037AAA0CEAD39400400D1202D2AC0A24
:08035A00AD0B1203281A80ED1F
:010362002278
:1002270012037AC3EA64809480400B7F2B12033C4D
:100237008A168B17800E7F2D12033CC3E49BF5179C
:10024700E49AF516AA15EAD39400400D1202D2AC2F
:0902570016AD171203281A80ED00
:01026000227B
:040261008A1F8B2045
:1002650012037AAA21EAD3940040297F101202D4FE
:10027500AC1FAD20CFCDCFCECCCE12004DEF540F5D
:10028500FEC3940AEE5004243080022437FF120383
:040295003C1A80D1BE
:010299002242
:04029A008A248B2502
:10029E0012037AAA26EAD394004028EA24FFFDE44A
:1002AE0034FFFC7F027E001202DEAC24AD25CFCDE2
:1002BE00CFCECCCE12004DEF54012430FF12033CB2
:0302CE001A80D2C1
:0102D100220A
:030000000200A259
:0C00A200787FE4F6D8FD7581270200E9A4
:10000E00BB010CE58229F582E5833AF583E02250A7
:10001E0006E92582F8E622BBFE06E92582F8E222F1
:0D002E00E58229F582E5833AF583E493220B
:10003B00EF8DF0A4A8F0CF8CF0A428CE8DF0A42ED9
:02004B00FE2293
:10004D00BC000BBE0029EF8DF084FFADF022E4CC97
:10005D00F875F008EF2FFFEE33FEEC33FCEE9DEC60
:10006D00984005FCEE9DFE0FD5F0E9E4CEFD22EDA6
:10007D00F8F5F0EE8420D21CFEADF075F008EF2FF0
:10008D00FFED33FD4007985006D5F0F222C398FDE1
:05009D000FD5F0EA227E
:1000AE0002018FE493A3F8E493A34003F68001F2D8
:1000BE0008DFF48029E493A3F85407240CC8C33353
:1000CE00C4540F4420C8834004F456800146F6DF22
:1000DE00E4800B01020408102040809003D6E47ED9
:1000EE00019360BCA3FF543F30E509541FFEE49317
:1000FE00A360010ECF54C025E060A840B8E493A3DE
:10010E00FAE493A3F8E493A3C8C582C8CAC583CA08
:10011E00F0A3C8C582C8CAC583CADFE9DEE780BEC0
:0103DF00001D
:00000001FF
