BL51 BANKED LINKER/LOCATER V6.22                                                        01/22/2023  09:02:35  PAGE 1


BL51 BANKED LINKER/LOCATER V6.22, INVOKED BY:
D:\KEIL_V5\C51\BIN\BL51.EXE .\Objects\main.obj, .\Objects\Delay.obj, .\Objects\LCD1602.obj, .\Objects\XPT2046.obj TO .\O
>> bjects\Project PRINT (.\Listings\Project.m51) RAMSIZE (256)


MEMORY MODEL: SMALL


INPUT MODULES INCLUDED:
  .\Objects\main.obj (MAIN)
  .\Objects\Delay.obj (DELAY)
  .\Objects\LCD1602.obj (LCD1602)
  .\Objects\XPT2046.obj (XPT2046)
  D:\KEIL_V5\C51\LIB\C51S.LIB (?C_STARTUP)
  D:\KEIL_V5\C51\LIB\C51S.LIB (?C?CLDOPTR)
  D:\KEIL_V5\C51\LIB\C51S.LIB (?C?IMUL)
  D:\KEIL_V5\C51\LIB\C51S.LIB (?C?UIDIV)


LINK MAP OF MODULE:  .\Objects\Project (MAIN)


            TYPE    BASE      LENGTH    RELOCATION   SEGMENT NAME
            -----------------------------------------------------

            * * * * * * *   D A T A   M E M O R Y   * * * * * * *
            REG     0000H     0008H     ABSOLUTE     "REG BANK 0"
            DATA    0008H     0009H     UNIT         _DATA_GROUP_
            DATA    0011H     0007H     UNIT         ?DT?_LCD_SHOWSIGNEDNUM?LCD1602
            DATA    0018H     0005H     UNIT         ?DT?_LCD_SHOWHEXNUM?LCD1602
            DATA    001DH     0005H     UNIT         ?DT?_LCD_SHOWBINNUM?LCD1602
            DATA    0022H     0002H     UNIT         ?DT?MAIN
            IDATA   0024H     0001H     UNIT         ?STACK

            * * * * * * *   C O D E   M E M O R Y   * * * * * * *
            CODE    0000H     0003H     ABSOLUTE     
            CODE    0003H     0094H     UNIT         ?C?LIB_CODE
            CODE    0097H     006EH     UNIT         ?PR?_XPT2046_READAD?XPT2046
            CODE    0105H     005EH     UNIT         ?PR?MAIN?MAIN
            CODE    0163H     003AH     UNIT         ?PR?_LCD_SHOWSIGNEDNUM?LCD1602
            CODE    019DH     0039H     UNIT         ?PR?_LCD_SHOWHEXNUM?LCD1602
            CODE    01D6H     0038H     UNIT         ?PR?_LCD_SHOWBINNUM?LCD1602
            CODE    020EH     0033H     UNIT         ?PR?_LCD_POW?LCD1602
            CODE    0241H     0023H     UNIT         ?PR?_LCD_SHOWSTRING?LCD1602
            CODE    0264H     001EH     UNIT         ?PR?_LCD_WRITEDATA?LCD1602
            CODE    0282H     001DH     UNIT         ?PR?_LCD_SHOWNUM?LCD1602
            CODE    029FH     0016H     UNIT         ?PR?_LCD_SETCURSOR?LCD1602
            CODE    02B5H     0015H     UNIT         ?PR?_DELAY?DELAY
            CODE    02CAH     0014H     UNIT         ?PR?LCD_INIT?LCD1602
            CODE    02DEH     000FH     UNIT         ?PR?LCD_DELAY?LCD1602
            CODE    02EDH     000DH     UNIT         ?CO?MAIN
            CODE    02FAH     000CH     UNIT         ?C_C51STARTUP
            CODE    0306H     000AH     UNIT         ?PR?_LCD_WRITECOMMAND?LCD1602
            CODE    0310H     000AH     UNIT         ?PR?_LCD_SHOWCHAR?LCD1602



OVERLAY MAP OF MODULE:   .\Objects\Project (MAIN)
BL51 BANKED LINKER/LOCATER V6.22                                                      01/22/2023  09:02:35  PAGE 2




SEGMENT                                  DATA_GROUP 
  +--> CALLED SEGMENT                  START    LENGTH
------------------------------------------------------
?C_C51STARTUP                          -----    -----
  +--> ?PR?MAIN?MAIN

?PR?MAIN?MAIN                          -----    -----
  +--> ?PR?LCD_INIT?LCD1602
  +--> ?CO?MAIN
  +--> ?PR?_LCD_SHOWSTRING?LCD1602
  +--> ?PR?_XPT2046_READAD?XPT2046
  +--> ?PR?_LCD_SHOWNUM?LCD1602
  +--> ?PR?_DELAY?DELAY

?PR?LCD_INIT?LCD1602                   -----    -----
  +--> ?PR?_LCD_WRITECOMMAND?LCD1602

?PR?_LCD_WRITECOMMAND?LCD1602          -----    -----
  +--> ?PR?LCD_DELAY?LCD1602

?PR?_LCD_SHOWSTRING?LCD1602            0008H    0003H
  +--> ?PR?_LCD_SETCURSOR?LCD1602
  +--> ?PR?_LCD_WRITEDATA?LCD1602

?PR?_LCD_SETCURSOR?LCD1602             -----    -----
  +--> ?PR?_LCD_WRITECOMMAND?LCD1602

?PR?_LCD_WRITEDATA?LCD1602             -----    -----
  +--> ?PR?LCD_DELAY?LCD1602

?PR?_XPT2046_READAD?XPT2046            0008H    0002H

?PR?_LCD_SHOWNUM?LCD1602               0008H    0005H
  +--> ?PR?_LCD_SETCURSOR?LCD1602
  +--> ?PR?_LCD_POW?LCD1602
  +--> ?PR?_LCD_WRITEDATA?LCD1602

?PR?_LCD_POW?LCD1602                   000DH    0004H



SYMBOL TABLE OF MODULE:  .\Objects\Project (MAIN)

  VALUE           TYPE          NAME
  ----------------------------------

  -------         MODULE        MAIN
  C:0000H         SYMBOL        _ICE_DUMMY_
  D:0022H         PUBLIC        ADValue
  C:0105H         PUBLIC        main
  -------         PROC          MAIN
  C:0105H         LINE#         8
  C:0105H         LINE#         9
  C:0105H         LINE#         10
  C:0108H         LINE#         11
BL51 BANKED LINKER/LOCATER V6.22                                                      01/22/2023  09:02:35  PAGE 3


  C:0115H         LINE#         12
  C:0115H         LINE#         13
  C:0115H         LINE#         14
  C:011EH         LINE#         15
  C:012CH         LINE#         16
  C:0135H         LINE#         17
  C:0143H         LINE#         18
  C:014CH         LINE#         19
  C:015AH         LINE#         20
  C:0161H         LINE#         21
  -------         ENDPROC       MAIN
  -------         ENDMOD        MAIN

  -------         MODULE        DELAY
  C:0000H         SYMBOL        _ICE_DUMMY_
  C:02B5H         PUBLIC        _Delay
  -------         PROC          _DELAY
  D:0006H         SYMBOL        xms
  -------         DO            
  D:0005H         SYMBOL        i
  D:0004H         SYMBOL        j
  -------         ENDDO         
  C:02B5H         LINE#         1
  C:02B5H         LINE#         2
  C:02B5H         LINE#         4
  C:02BFH         LINE#         5
  C:02BFH         LINE#         6
  C:02C1H         LINE#         7
  C:02C3H         LINE#         9
  C:02C3H         LINE#         10
  C:02C5H         LINE#         11
  C:02C7H         LINE#         12
  C:02C9H         LINE#         13
  -------         ENDPROC       _DELAY
  -------         ENDMOD        DELAY

  -------         MODULE        LCD1602
  C:0000H         SYMBOL        _ICE_DUMMY_
  D:0080H         PUBLIC        P0
  D:00A0H         PUBLIC        P2
  C:0306H         PUBLIC        _LCD_WriteCommand
  C:0282H         PUBLIC        _LCD_ShowNum
  C:01D6H         PUBLIC        _LCD_ShowBinNum
  C:02E4H         PUBLIC        LCD_Delay
  C:019DH         PUBLIC        _LCD_ShowHexNum
  C:0278H         PUBLIC        _LCD_WriteData
  B:00A0H.7       PUBLIC        LCD_EN
  C:02CAH         PUBLIC        LCD_Init
  C:0241H         PUBLIC        _LCD_ShowString
  C:0310H         PUBLIC        _LCD_ShowChar
  B:00A0H.6       PUBLIC        LCD_RS
  B:00A0H.5       PUBLIC        LCD_RW
  C:029FH         PUBLIC        _LCD_SetCursor
  C:0163H         PUBLIC        _LCD_ShowSignedNum
  C:021AH         PUBLIC        _LCD_Pow
  -------         PROC          L?0048
  -------         ENDPROC       L?0048
BL51 BANKED LINKER/LOCATER V6.22                                                      01/22/2023  09:02:35  PAGE 4


  -------         PROC          LCD_DELAY
  -------         DO            
  D:0007H         SYMBOL        i
  D:0006H         SYMBOL        j
  -------         ENDDO         
  C:02E4H         LINE#         15
  C:02E4H         LINE#         17
  C:02E6H         LINE#         18
  C:02E8H         LINE#         19
  C:02E8H         LINE#         20
  C:02EAH         LINE#         21
  C:02ECH         LINE#         22
  -------         ENDPROC       LCD_DELAY
  -------         PROC          _LCD_WRITECOMMAND
  D:0007H         SYMBOL        Command
  C:0306H         LINE#         29
  C:0306H         LINE#         30
  C:0308H         LINE#         31
  C:0308H         LINE#         32
  C:0308H         LINE#         33
  C:0308H         LINE#         34
  C:030BH         LINE#         35
  C:030DH         LINE#         36
  -------         ENDPROC       _LCD_WRITECOMMAND
  -------         PROC          L?0047
  -------         ENDPROC       L?0047
  -------         PROC          _LCD_WRITEDATA
  D:0007H         SYMBOL        Data
  C:0278H         LINE#         44
  C:0278H         LINE#         45
  C:027AH         LINE#         46
  C:027AH         LINE#         47
  C:027AH         LINE#         48
  C:027AH         LINE#         49
  C:027DH         LINE#         50
  C:027FH         LINE#         51
  -------         ENDPROC       _LCD_WRITEDATA
  -------         PROC          _LCD_SETCURSOR
  D:0006H         SYMBOL        Line
  D:0005H         SYMBOL        Column
  C:029FH         LINE#         60
  C:02A1H         LINE#         61
  C:02A4H         LINE#         62
  C:02A6H         LINE#         63
  C:02ABH         LINE#         64
  C:02B4H         LINE#         65
  C:02B4H         LINE#         66
  -------         ENDPROC       _LCD_SETCURSOR
  -------         PROC          LCD_INIT
  C:02CAH         LINE#         73
  C:02CAH         LINE#         74
  C:02CFH         LINE#         75
  C:02D4H         LINE#         76
  C:02D9H         LINE#         77
  -------         ENDPROC       LCD_INIT
  -------         PROC          _LCD_SHOWCHAR
  D:0006H         SYMBOL        Line
BL51 BANKED LINKER/LOCATER V6.22                                                      01/22/2023  09:02:35  PAGE 5


  D:0005H         SYMBOL        Column
  D:0004H         SYMBOL        Char
  C:0310H         LINE#         87
  C:0312H         LINE#         88
  C:0315H         LINE#         89
  -------         ENDPROC       _LCD_SHOWCHAR
  -------         PROC          _LCD_SHOWSTRING
  D:0007H         SYMBOL        Line
  D:0005H         SYMBOL        Column
  D:0008H         SYMBOL        String
  -------         DO            
  D:0005H         SYMBOL        i
  -------         ENDDO         
  C:0241H         LINE#         99
  C:0247H         LINE#         101
  C:024AH         LINE#         102
  C:025DH         LINE#         103
  C:0260H         LINE#         104
  C:0263H         LINE#         105
  -------         ENDPROC       _LCD_SHOWSTRING
  C:0210H         SYMBOL        L?0046
  -------         PROC          L?0045
  -------         ENDPROC       L?0045
  C:0210H         SYMBOL        L?0046
  -------         PROC          _LCD_POW
  D:000DH         SYMBOL        X
  D:000FH         SYMBOL        Y
  -------         DO            
  D:0003H         SYMBOL        i
  D:0006H         SYMBOL        Result
  -------         ENDDO         
  C:021AH         LINE#         110
  C:0222H         LINE#         112
  C:0226H         LINE#         113
  C:0236H         LINE#         114
  C:023DH         LINE#         115
  C:0240H         LINE#         116
  C:0240H         LINE#         117
  -------         ENDPROC       _LCD_POW
  -------         PROC          _LCD_SHOWNUM
  D:0007H         SYMBOL        Line
  D:0005H         SYMBOL        Column
  D:000AH         SYMBOL        Number
  D:000CH         SYMBOL        Length
  -------         DO            
  D:0002H         SYMBOL        i
  -------         ENDDO         
  C:0282H         LINE#         127
  C:0286H         LINE#         129
  C:0289H         LINE#         130
  C:0291H         LINE#         131
  C:029BH         LINE#         132
  C:029EH         LINE#         133
  -------         ENDPROC       _LCD_SHOWNUM
  -------         PROC          _LCD_SHOWSIGNEDNUM
  D:0007H         SYMBOL        Line
  D:0005H         SYMBOL        Column
BL51 BANKED LINKER/LOCATER V6.22                                                      01/22/2023  09:02:35  PAGE 6


  D:0002H         SYMBOL        Number
  D:0015H         SYMBOL        Length
  -------         DO            
  D:0002H         SYMBOL        i
  D:0016H         SYMBOL        Number1
  -------         ENDDO         
  C:0163H         LINE#         143
  C:0163H         LINE#         146
  C:0166H         LINE#         147
  C:016EH         LINE#         148
  C:0173H         LINE#         149
  C:0177H         LINE#         150
  C:0179H         LINE#         151
  C:017EH         LINE#         152
  C:0187H         LINE#         153
  C:0187H         LINE#         154
  C:018FH         LINE#         155
  C:0199H         LINE#         156
  C:019CH         LINE#         157
  -------         ENDPROC       _LCD_SHOWSIGNEDNUM
  -------         PROC          _LCD_SHOWHEXNUM
  D:0007H         SYMBOL        Line
  D:0005H         SYMBOL        Column
  D:001AH         SYMBOL        Number
  D:001CH         SYMBOL        Length
  -------         DO            
  D:0002H         SYMBOL        i
  D:0006H         SYMBOL        SingleNumber
  -------         ENDDO         
  C:019DH         LINE#         167
  C:01A1H         LINE#         169
  C:01A4H         LINE#         170
  C:01ACH         LINE#         171
  C:01C2H         LINE#         172
  C:01C8H         LINE#         173
  C:01CAH         LINE#         174
  C:01CCH         LINE#         175
  C:01D2H         LINE#         176
  C:01D2H         LINE#         177
  C:01D5H         LINE#         178
  -------         ENDPROC       _LCD_SHOWHEXNUM
  -------         PROC          _LCD_SHOWBINNUM
  D:0007H         SYMBOL        Line
  D:0005H         SYMBOL        Column
  D:001FH         SYMBOL        Number
  D:0021H         SYMBOL        Length
  -------         DO            
  D:0002H         SYMBOL        i
  -------         ENDDO         
  C:01D6H         LINE#         188
  C:01DAH         LINE#         190
  C:01DDH         LINE#         191
  C:01E5H         LINE#         192
  C:020AH         LINE#         193
  C:020DH         LINE#         194
  -------         ENDPROC       _LCD_SHOWBINNUM
  -------         ENDMOD        LCD1602
BL51 BANKED LINKER/LOCATER V6.22                                                      01/22/2023  09:02:35  PAGE 7



  -------         MODULE        XPT2046
  C:0000H         SYMBOL        _ICE_DUMMY_
  D:00B0H         PUBLIC        P3
  B:00B0H.4       PUBLIC        XPT2046_DIN
  B:00B0H.5       PUBLIC        XPT2046_CS
  B:00B0H.6       PUBLIC        XPT2046_DCLK
  C:0097H         PUBLIC        _XPT2046_readAD
  B:00B0H.7       PUBLIC        XPT2046_DOUT
  -------         PROC          _XPT2046_READAD
  D:0005H         SYMBOL        command
  -------         DO            
  D:0003H         SYMBOL        i
  D:0008H         SYMBOL        ADValue
  -------         ENDDO         
  C:0097H         LINE#         9
  C:0099H         LINE#         10
  C:0099H         LINE#         12
  C:009EH         LINE#         13
  C:00A0H         LINE#         14
  C:00A2H         LINE#         15
  C:00A3H         LINE#         16
  C:00A3H         LINE#         17
  C:00BFH         LINE#         18
  C:00C1H         LINE#         20
  C:00C3H         LINE#         21
  C:00C7H         LINE#         23
  C:00C9H         LINE#         24
  C:00C9H         LINE#         25
  C:00CBH         LINE#         26
  C:00CDH         LINE#         27
  C:00D0H         LINE#         28
  C:00D0H         LINE#         29
  C:00E4H         LINE#         30
  C:00E4H         LINE#         31
  C:00E8H         LINE#         32
  C:00EAH         LINE#         33
  C:00EEH         LINE#         34
  C:00EEH         LINE#         35
  C:00F4H         LINE#         36
  C:00F4H         LINE#         38
  C:00F4H         LINE#         39
  C:0104H         LINE#         40
  C:0104H         LINE#         41
  -------         ENDPROC       _XPT2046_READAD
  -------         ENDMOD        XPT2046

  -------         MODULE        ?C?CLDOPTR
  C:0003H         PUBLIC        ?C?CLDOPTR
  -------         ENDMOD        ?C?CLDOPTR

  -------         MODULE        ?C?IMUL
  C:0030H         PUBLIC        ?C?IMUL
  -------         ENDMOD        ?C?IMUL

  -------         MODULE        ?C?UIDIV
  C:0042H         PUBLIC        ?C?UIDIV
BL51 BANKED LINKER/LOCATER V6.22                                                      01/22/2023  09:02:35  PAGE 8


  -------         ENDMOD        ?C?UIDIV

*** WARNING L16: UNCALLED SEGMENT, IGNORED FOR OVERLAY PROCESS
    SEGMENT: ?PR?_LCD_SHOWCHAR?LCD1602

*** WARNING L16: UNCALLED SEGMENT, IGNORED FOR OVERLAY PROCESS
    SEGMENT: ?PR?_LCD_SHOWSIGNEDNUM?LCD1602

*** WARNING L16: UNCALLED SEGMENT, IGNORED FOR OVERLAY PROCESS
    SEGMENT: ?PR?_LCD_SHOWHEXNUM?LCD1602

*** WARNING L16: UNCALLED SEGMENT, IGNORED FOR OVERLAY PROCESS
    SEGMENT: ?PR?_LCD_SHOWBINNUM?LCD1602

Program Size: data=37.0 xdata=0 code=794
LINK/LOCATE RUN COMPLETE.  4 WARNING(S),  0 ERROR(S)
