:100161001201D77514051200038F15E5156401708E
:10017100230513531303E5137002F514E513B401BA
:1001810003751432E513B4020375144BE513B4037C
:0D01910003751464AD137F0112009A80C93C
:03000B00020107E8
:10010700C0E0C0F0C083C082C0D075D000C000C0BE
:1001170001C002C003C004C005C006C007758A9CA1
:10012700758CFF0512E512C3946440067512001220
:10013700019EE512C395145004D2908002C290D05C
:1001470007D006D005D004D003D002D001D000D00C
:0A015700D0D082D083D0F0D0E03287
:10020400EF1FAC0670011E4C600A7D027CEFDCFE21
:04021400DDFC80ECA1
:0102180022C3
:05000300E4AF18F51840
:0100080022D5
:1001EE00E4FF20B1010F20B0027F0220B2027F0394
:0501FE0020B3027F04A4
:0102030022D8
:10019E008516171201EE8F16E517B40107E51670D6
:1001AE0003751801E517B40207E5167003751802FA
:1001BE00E517B40307E5167003751803E517B404C5
:0801CE0007E516700375180423
:0101D6002206
:1001D7005389F0438901758A9C758CFFC28DD28C37
:0701E700D2A9D2AFC2B92278
:0C0219000A083F065B4F666D7D077F6F93
:10009A00EF14B4080050549000AF75F003A4C58360
:1000AA0025F0C583730200C70200CB0200CF02000D
:1000BA00D30200D70200DF0200E70200EFD2A480D9
:1000CA000ED2A48012D2A48016D2A4801AC2A4D2BC
:1000DA00A3D2A28016C2A4D2A3C2A2800EC2A4C274
:1000EA00A3D2A28006C2A4C2A3C2A274082DF8E6B3
:0D00FA00F5807F017E00120204E4F58022F3
:0300000002000EED
:0C000E00787FE4F6D8FD758118020055DB
:10001A00020161E493A3F8E493A34003F68001F29A
:10002A0008DFF48029E493A3F85407240CC8C333E7
:10003A00C4540F4420C8834004F456800146F6DFB6
:10004A00E4800B0102040810204080900219E47E2B
:10005A00019360BCA3FF543F30E509541FFEE493AB
:10006A00A360010ECF54C025E060A840B8E493A372
:10007A00FAE493A3F8E493A3C8C582C8CAC583CA9D
:10008A00F0A3C8C582C8CAC583CADFE9DEE780BE55
:0102250000D8
:00000001FF
