BL51 BANKED LINKER/LOCATER V6.22.4.0                                                    11/17/2023  11:11:35  PAGE 1


BL51 BANKED LINKER/LOCATER V6.22.4.0, INVOKED BY:
D:\KEIL_V5\C51\BIN\BL51.EXE .\Objects\demo1_1.obj TO .\Objects\Project PRINT (.\Listings\Project.m51) RAMSIZE (256)


INPUT MODULES INCLUDED:
  .\Objects\demo1_1.obj (DEMO1_1)


LINK MAP OF MODULE:  .\Objects\Project (DEMO1_1)


            TYPE    BASE      LENGTH    RELOCATION   SEGMENT NAME
            -----------------------------------------------------

            * * * * * * *   D A T A   M E M O R Y   * * * * * * *
            REG     0000H     0008H     ABSOLUTE     "REG BANK 0"

            * * * * * * *   C O D E   M E M O R Y   * * * * * * *
            CODE    0000H     0132H     ABSOLUTE     



SYMBOL TABLE OF MODULE:  .\Objects\Project (DEMO1_1)

  VALUE           TYPE          NAME
  ----------------------------------

  -------         MODULE        DEMO1_1
  C:0111H         SYMBOL        DELAY500MS
  C:0100H         SYMBOL        MAIN
  C:0109H         SYMBOL        MAINLOOP
  C:0122H         SYMBOL        NEXT
  D:00C0H         SYMBOL        P4
  D:00B4H         SYMBOL        P4M0
  D:00B3H         SYMBOL        P4M1
  D:00E8H         SYMBOL        P6
  D:00CCH         SYMBOL        P6M0
  D:00CBH         SYMBOL        P6M1
  D:0081H         SYMBOL        SP
  C:0000H         LINE#         20
  C:0100H         LINE#         23
  C:0103H         LINE#         25
  C:0106H         LINE#         26
  C:0109H         LINE#         28
  C:010CH         LINE#         29
  C:010FH         LINE#         30
  C:0111H         LINE#         33
  C:0112H         LINE#         34
  C:0113H         LINE#         35
  C:0115H         LINE#         36
  C:0117H         LINE#         37
  C:0119H         LINE#         38
  C:011CH         LINE#         39
  C:011FH         LINE#         40
  C:0122H         LINE#         42
  C:0125H         LINE#         43
  C:0128H         LINE#         44
  C:012BH         LINE#         45
BL51 BANKED LINKER/LOCATER V6.22.4.0                                                  11/17/2023  11:11:35  PAGE 2


  C:012DH         LINE#         46
  C:012FH         LINE#         47
  C:0131H         LINE#         48
  -------         ENDMOD        DEMO1_1

Program Size: data=8.0 xdata=0 code=306
LINK/LOCATE RUN COMPLETE.  0 WARNING(S),  0 ERROR(S)
